{
	"Contract/WTFacademy/Solidity101/train_12.sol": {
		"train_event": {
			"abi": [
				{
					"anonymous": false,
					"inputs": [
						{
							"indexed": true,
							"internalType": "address",
							"name": "from",
							"type": "address"
						},
						{
							"indexed": true,
							"internalType": "address",
							"name": "to",
							"type": "address"
						},
						{
							"indexed": false,
							"internalType": "uint256",
							"name": "value",
							"type": "uint256"
						}
					],
					"name": "Transfer",
					"type": "event"
				},
				{
					"inputs": [
						{
							"internalType": "address",
							"name": "",
							"type": "address"
						}
					],
					"name": "balances",
					"outputs": [
						{
							"internalType": "uint256",
							"name": "",
							"type": "uint256"
						}
					],
					"stateMutability": "view",
					"type": "function"
				},
				{
					"inputs": [
						{
							"internalType": "address",
							"name": "from",
							"type": "address"
						},
						{
							"internalType": "address",
							"name": "to",
							"type": "address"
						},
						{
							"internalType": "uint256",
							"name": "amount",
							"type": "uint256"
						}
					],
					"name": "transfer",
					"outputs": [],
					"stateMutability": "nonpayable",
					"type": "function"
				}
			],
			"devdoc": {
				"kind": "dev",
				"methods": {},
				"version": 1
			},
			"evm": {
				"assembly": "    /* \"Contract/WTFacademy/Solidity101/train_12.sol\":59:446  contract train_event{... */\n  mstore(0x40, 0x80)\n  callvalue\n  dup1\n  iszero\n  tag_1\n  jumpi\n  0x00\n  dup1\n  revert\ntag_1:\n  pop\n  dataSize(sub_0)\n  dup1\n  dataOffset(sub_0)\n  0x00\n  codecopy\n  0x00\n  return\nstop\n\nsub_0: assembly {\n        /* \"Contract/WTFacademy/Solidity101/train_12.sol\":59:446  contract train_event{... */\n      mstore(0x40, 0x80)\n      callvalue\n      dup1\n      iszero\n      tag_1\n      jumpi\n      0x00\n      dup1\n      revert\n    tag_1:\n      pop\n      jumpi(tag_2, lt(calldatasize, 0x04))\n      shr(0xe0, calldataload(0x00))\n      dup1\n      0x27e235e3\n      eq\n      tag_3\n      jumpi\n      dup1\n      0xbeabacc8\n      eq\n      tag_4\n      jumpi\n    tag_2:\n      0x00\n      dup1\n      revert\n        /* \"Contract/WTFacademy/Solidity101/train_12.sol\":88:131  mapping(address => uint256) public balances */\n    tag_3:\n      tag_5\n      0x04\n      dup1\n      calldatasize\n      sub\n      dup2\n      add\n      swap1\n      tag_6\n      swap2\n      swap1\n      tag_7\n      jump\t// in\n    tag_6:\n      tag_8\n      jump\t// in\n    tag_5:\n      mload(0x40)\n      tag_9\n      swap2\n      swap1\n      tag_10\n      jump\t// in\n    tag_9:\n      mload(0x40)\n      dup1\n      swap2\n      sub\n      swap1\n      return\n        /* \"Contract/WTFacademy/Solidity101/train_12.sol\":222:443  function transfer(address from, address to, uint256 amount) external{... */\n    tag_4:\n      tag_11\n      0x04\n      dup1\n      calldatasize\n      sub\n      dup2\n      add\n      swap1\n      tag_12\n      swap2\n      swap1\n      tag_13\n      jump\t// in\n    tag_12:\n      tag_14\n      jump\t// in\n    tag_11:\n      stop\n        /* \"Contract/WTFacademy/Solidity101/train_12.sol\":88:131  mapping(address => uint256) public balances */\n    tag_8:\n      mstore(0x20, 0x00)\n      dup1\n      0x00\n      mstore\n      keccak256(0x00, 0x40)\n      0x00\n      swap2\n      pop\n      swap1\n      pop\n      sload\n      dup2\n      jump\t// out\n        /* \"Contract/WTFacademy/Solidity101/train_12.sol\":222:443  function transfer(address from, address to, uint256 amount) external{... */\n    tag_14:\n        /* \"Contract/WTFacademy/Solidity101/train_12.sol\":318:325  1000000 */\n      0x0f4240\n        /* \"Contract/WTFacademy/Solidity101/train_12.sol\":301:309  balances */\n      0x00\n        /* \"Contract/WTFacademy/Solidity101/train_12.sol\":301:315  balances[from] */\n      dup1\n        /* \"Contract/WTFacademy/Solidity101/train_12.sol\":310:314  from */\n      dup6\n        /* \"Contract/WTFacademy/Solidity101/train_12.sol\":301:315  balances[from] */\n      0xffffffffffffffffffffffffffffffffffffffff\n      and\n      0xffffffffffffffffffffffffffffffffffffffff\n      and\n      dup2\n      mstore\n      0x20\n      add\n      swap1\n      dup2\n      mstore\n      0x20\n      add\n      0x00\n      keccak256\n        /* \"Contract/WTFacademy/Solidity101/train_12.sol\":301:325  balances[from] = 1000000 */\n      dup2\n      swap1\n      sstore\n      pop\n        /* \"Contract/WTFacademy/Solidity101/train_12.sol\":354:360  amount */\n      dup1\n        /* \"Contract/WTFacademy/Solidity101/train_12.sol\":336:344  balances */\n      0x00\n        /* \"Contract/WTFacademy/Solidity101/train_12.sol\":336:350  balances[from] */\n      dup1\n        /* \"Contract/WTFacademy/Solidity101/train_12.sol\":345:349  from */\n      dup6\n        /* \"Contract/WTFacademy/Solidity101/train_12.sol\":336:350  balances[from] */\n      0xffffffffffffffffffffffffffffffffffffffff\n      and\n      0xffffffffffffffffffffffffffffffffffffffff\n      and\n      dup2\n      mstore\n      0x20\n      add\n      swap1\n      dup2\n      mstore\n      0x20\n      add\n      0x00\n      keccak256\n      0x00\n        /* \"Contract/WTFacademy/Solidity101/train_12.sol\":336:360  balances[from] -= amount */\n      dup3\n      dup3\n      sload\n      tag_16\n      swap2\n      swap1\n      tag_17\n      jump\t// in\n    tag_16:\n      swap3\n      pop\n      pop\n      dup2\n      swap1\n      sstore\n      pop\n        /* \"Contract/WTFacademy/Solidity101/train_12.sol\":387:393  amount */\n      dup1\n        /* \"Contract/WTFacademy/Solidity101/train_12.sol\":371:379  balances */\n      0x00\n        /* \"Contract/WTFacademy/Solidity101/train_12.sol\":371:383  balances[to] */\n      dup1\n        /* \"Contract/WTFacademy/Solidity101/train_12.sol\":380:382  to */\n      dup5\n        /* \"Contract/WTFacademy/Solidity101/train_12.sol\":371:383  balances[to] */\n      0xffffffffffffffffffffffffffffffffffffffff\n      and\n      0xffffffffffffffffffffffffffffffffffffffff\n      and\n      dup2\n      mstore\n      0x20\n      add\n      swap1\n      dup2\n      mstore\n      0x20\n      add\n      0x00\n      keccak256\n      0x00\n        /* \"Contract/WTFacademy/Solidity101/train_12.sol\":371:393  balances[to] += amount */\n      dup3\n      dup3\n      sload\n      tag_18\n      swap2\n      swap1\n      tag_19\n      jump\t// in\n    tag_18:\n      swap3\n      pop\n      pop\n      dup2\n      swap1\n      sstore\n      pop\n        /* \"Contract/WTFacademy/Solidity101/train_12.sol\":425:427  to */\n      dup2\n        /* \"Contract/WTFacademy/Solidity101/train_12.sol\":411:435  Transfer(from,to,amount) */\n      0xffffffffffffffffffffffffffffffffffffffff\n      and\n        /* \"Contract/WTFacademy/Solidity101/train_12.sol\":420:424  from */\n      dup4\n        /* \"Contract/WTFacademy/Solidity101/train_12.sol\":411:435  Transfer(from,to,amount) */\n      0xffffffffffffffffffffffffffffffffffffffff\n      and\n      0xddf252ad1be2c89b69c2b068fc378daa952ba7f163c4a11628f55a4df523b3ef\n        /* \"Contract/WTFacademy/Solidity101/train_12.sol\":428:434  amount */\n      dup4\n        /* \"Contract/WTFacademy/Solidity101/train_12.sol\":411:435  Transfer(from,to,amount) */\n      mload(0x40)\n      tag_20\n      swap2\n      swap1\n      tag_10\n      jump\t// in\n    tag_20:\n      mload(0x40)\n      dup1\n      swap2\n      sub\n      swap1\n      log3\n        /* \"Contract/WTFacademy/Solidity101/train_12.sol\":222:443  function transfer(address from, address to, uint256 amount) external{... */\n      pop\n      pop\n      pop\n      jump\t// out\n        /* \"#utility.yul\":88:205   */\n    tag_22:\n        /* \"#utility.yul\":197:198   */\n      0x00\n        /* \"#utility.yul\":194:195   */\n      dup1\n        /* \"#utility.yul\":187:199   */\n      revert\n        /* \"#utility.yul\":334:460   */\n    tag_24:\n        /* \"#utility.yul\":371:378   */\n      0x00\n        /* \"#utility.yul\":411:453   */\n      0xffffffffffffffffffffffffffffffffffffffff\n        /* \"#utility.yul\":404:409   */\n      dup3\n        /* \"#utility.yul\":400:454   */\n      and\n        /* \"#utility.yul\":389:454   */\n      swap1\n      pop\n        /* \"#utility.yul\":334:460   */\n      swap2\n      swap1\n      pop\n      jump\t// out\n        /* \"#utility.yul\":466:562   */\n    tag_25:\n        /* \"#utility.yul\":503:510   */\n      0x00\n        /* \"#utility.yul\":532:556   */\n      tag_39\n        /* \"#utility.yul\":550:555   */\n      dup3\n        /* \"#utility.yul\":532:556   */\n      tag_24\n      jump\t// in\n    tag_39:\n        /* \"#utility.yul\":521:556   */\n      swap1\n      pop\n        /* \"#utility.yul\":466:562   */\n      swap2\n      swap1\n      pop\n      jump\t// out\n        /* \"#utility.yul\":568:690   */\n    tag_26:\n        /* \"#utility.yul\":641:665   */\n      tag_41\n        /* \"#utility.yul\":659:664   */\n      dup2\n        /* \"#utility.yul\":641:665   */\n      tag_25\n      jump\t// in\n    tag_41:\n        /* \"#utility.yul\":634:639   */\n      dup2\n        /* \"#utility.yul\":631:666   */\n      eq\n        /* \"#utility.yul\":621:684   */\n      tag_42\n      jumpi\n        /* \"#utility.yul\":680:681   */\n      0x00\n        /* \"#utility.yul\":677:678   */\n      dup1\n        /* \"#utility.yul\":670:682   */\n      revert\n        /* \"#utility.yul\":621:684   */\n    tag_42:\n        /* \"#utility.yul\":568:690   */\n      pop\n      jump\t// out\n        /* \"#utility.yul\":696:835   */\n    tag_27:\n        /* \"#utility.yul\":742:747   */\n      0x00\n        /* \"#utility.yul\":780:786   */\n      dup2\n        /* \"#utility.yul\":767:787   */\n      calldataload\n        /* \"#utility.yul\":758:787   */\n      swap1\n      pop\n        /* \"#utility.yul\":796:829   */\n      tag_44\n        /* \"#utility.yul\":823:828   */\n      dup2\n        /* \"#utility.yul\":796:829   */\n      tag_26\n      jump\t// in\n    tag_44:\n        /* \"#utility.yul\":696:835   */\n      swap3\n      swap2\n      pop\n      pop\n      jump\t// out\n        /* \"#utility.yul\":841:1170   */\n    tag_7:\n        /* \"#utility.yul\":900:906   */\n      0x00\n        /* \"#utility.yul\":949:951   */\n      0x20\n        /* \"#utility.yul\":937:946   */\n      dup3\n        /* \"#utility.yul\":928:935   */\n      dup5\n        /* \"#utility.yul\":924:947   */\n      sub\n        /* \"#utility.yul\":920:952   */\n      slt\n        /* \"#utility.yul\":917:1036   */\n      iszero\n      tag_46\n      jumpi\n        /* \"#utility.yul\":955:1034   */\n      tag_47\n      tag_22\n      jump\t// in\n    tag_47:\n        /* \"#utility.yul\":917:1036   */\n    tag_46:\n        /* \"#utility.yul\":1075:1076   */\n      0x00\n        /* \"#utility.yul\":1100:1153   */\n      tag_48\n        /* \"#utility.yul\":1145:1152   */\n      dup5\n        /* \"#utility.yul\":1136:1142   */\n      dup3\n        /* \"#utility.yul\":1125:1134   */\n      dup6\n        /* \"#utility.yul\":1121:1143   */\n      add\n        /* \"#utility.yul\":1100:1153   */\n      tag_27\n      jump\t// in\n    tag_48:\n        /* \"#utility.yul\":1090:1153   */\n      swap2\n      pop\n        /* \"#utility.yul\":1046:1163   */\n      pop\n        /* \"#utility.yul\":841:1170   */\n      swap3\n      swap2\n      pop\n      pop\n      jump\t// out\n        /* \"#utility.yul\":1176:1253   */\n    tag_28:\n        /* \"#utility.yul\":1213:1220   */\n      0x00\n        /* \"#utility.yul\":1242:1247   */\n      dup2\n        /* \"#utility.yul\":1231:1247   */\n      swap1\n      pop\n        /* \"#utility.yul\":1176:1253   */\n      swap2\n      swap1\n      pop\n      jump\t// out\n        /* \"#utility.yul\":1259:1377   */\n    tag_29:\n        /* \"#utility.yul\":1346:1370   */\n      tag_51\n        /* \"#utility.yul\":1364:1369   */\n      dup2\n        /* \"#utility.yul\":1346:1370   */\n      tag_28\n      jump\t// in\n    tag_51:\n        /* \"#utility.yul\":1341:1344   */\n      dup3\n        /* \"#utility.yul\":1334:1371   */\n      mstore\n        /* \"#utility.yul\":1259:1377   */\n      pop\n      pop\n      jump\t// out\n        /* \"#utility.yul\":1383:1605   */\n    tag_10:\n        /* \"#utility.yul\":1476:1480   */\n      0x00\n        /* \"#utility.yul\":1514:1516   */\n      0x20\n        /* \"#utility.yul\":1503:1512   */\n      dup3\n        /* \"#utility.yul\":1499:1517   */\n      add\n        /* \"#utility.yul\":1491:1517   */\n      swap1\n      pop\n        /* \"#utility.yul\":1527:1598   */\n      tag_53\n        /* \"#utility.yul\":1595:1596   */\n      0x00\n        /* \"#utility.yul\":1584:1593   */\n      dup4\n        /* \"#utility.yul\":1580:1597   */\n      add\n        /* \"#utility.yul\":1571:1577   */\n      dup5\n        /* \"#utility.yul\":1527:1598   */\n      tag_29\n      jump\t// in\n    tag_53:\n        /* \"#utility.yul\":1383:1605   */\n      swap3\n      swap2\n      pop\n      pop\n      jump\t// out\n        /* \"#utility.yul\":1611:1733   */\n    tag_30:\n        /* \"#utility.yul\":1684:1708   */\n      tag_55\n        /* \"#utility.yul\":1702:1707   */\n      dup2\n        /* \"#utility.yul\":1684:1708   */\n      tag_28\n      jump\t// in\n    tag_55:\n        /* \"#utility.yul\":1677:1682   */\n      dup2\n        /* \"#utility.yul\":1674:1709   */\n      eq\n        /* \"#utility.yul\":1664:1727   */\n      tag_56\n      jumpi\n        /* \"#utility.yul\":1723:1724   */\n      0x00\n        /* \"#utility.yul\":1720:1721   */\n      dup1\n        /* \"#utility.yul\":1713:1725   */\n      revert\n        /* \"#utility.yul\":1664:1727   */\n    tag_56:\n        /* \"#utility.yul\":1611:1733   */\n      pop\n      jump\t// out\n        /* \"#utility.yul\":1739:1878   */\n    tag_31:\n        /* \"#utility.yul\":1785:1790   */\n      0x00\n        /* \"#utility.yul\":1823:1829   */\n      dup2\n        /* \"#utility.yul\":1810:1830   */\n      calldataload\n        /* \"#utility.yul\":1801:1830   */\n      swap1\n      pop\n        /* \"#utility.yul\":1839:1872   */\n      tag_58\n        /* \"#utility.yul\":1866:1871   */\n      dup2\n        /* \"#utility.yul\":1839:1872   */\n      tag_30\n      jump\t// in\n    tag_58:\n        /* \"#utility.yul\":1739:1878   */\n      swap3\n      swap2\n      pop\n      pop\n      jump\t// out\n        /* \"#utility.yul\":1884:2503   */\n    tag_13:\n        /* \"#utility.yul\":1961:1967   */\n      0x00\n        /* \"#utility.yul\":1969:1975   */\n      dup1\n        /* \"#utility.yul\":1977:1983   */\n      0x00\n        /* \"#utility.yul\":2026:2028   */\n      0x60\n        /* \"#utility.yul\":2014:2023   */\n      dup5\n        /* \"#utility.yul\":2005:2012   */\n      dup7\n        /* \"#utility.yul\":2001:2024   */\n      sub\n        /* \"#utility.yul\":1997:2029   */\n      slt\n        /* \"#utility.yul\":1994:2113   */\n      iszero\n      tag_60\n      jumpi\n        /* \"#utility.yul\":2032:2111   */\n      tag_61\n      tag_22\n      jump\t// in\n    tag_61:\n        /* \"#utility.yul\":1994:2113   */\n    tag_60:\n        /* \"#utility.yul\":2152:2153   */\n      0x00\n        /* \"#utility.yul\":2177:2230   */\n      tag_62\n        /* \"#utility.yul\":2222:2229   */\n      dup7\n        /* \"#utility.yul\":2213:2219   */\n      dup3\n        /* \"#utility.yul\":2202:2211   */\n      dup8\n        /* \"#utility.yul\":2198:2220   */\n      add\n        /* \"#utility.yul\":2177:2230   */\n      tag_27\n      jump\t// in\n    tag_62:\n        /* \"#utility.yul\":2167:2230   */\n      swap4\n      pop\n        /* \"#utility.yul\":2123:2240   */\n      pop\n        /* \"#utility.yul\":2279:2281   */\n      0x20\n        /* \"#utility.yul\":2305:2358   */\n      tag_63\n        /* \"#utility.yul\":2350:2357   */\n      dup7\n        /* \"#utility.yul\":2341:2347   */\n      dup3\n        /* \"#utility.yul\":2330:2339   */\n      dup8\n        /* \"#utility.yul\":2326:2348   */\n      add\n        /* \"#utility.yul\":2305:2358   */\n      tag_27\n      jump\t// in\n    tag_63:\n        /* \"#utility.yul\":2295:2358   */\n      swap3\n      pop\n        /* \"#utility.yul\":2250:2368   */\n      pop\n        /* \"#utility.yul\":2407:2409   */\n      0x40\n        /* \"#utility.yul\":2433:2486   */\n      tag_64\n        /* \"#utility.yul\":2478:2485   */\n      dup7\n        /* \"#utility.yul\":2469:2475   */\n      dup3\n        /* \"#utility.yul\":2458:2467   */\n      dup8\n        /* \"#utility.yul\":2454:2476   */\n      add\n        /* \"#utility.yul\":2433:2486   */\n      tag_31\n      jump\t// in\n    tag_64:\n        /* \"#utility.yul\":2423:2486   */\n      swap2\n      pop\n        /* \"#utility.yul\":2378:2496   */\n      pop\n        /* \"#utility.yul\":1884:2503   */\n      swap3\n      pop\n      swap3\n      pop\n      swap3\n      jump\t// out\n        /* \"#utility.yul\":2509:2689   */\n    tag_32:\n        /* \"#utility.yul\":2557:2634   */\n      0x4e487b7100000000000000000000000000000000000000000000000000000000\n        /* \"#utility.yul\":2554:2555   */\n      0x00\n        /* \"#utility.yul\":2547:2635   */\n      mstore\n        /* \"#utility.yul\":2654:2658   */\n      0x11\n        /* \"#utility.yul\":2651:2652   */\n      0x04\n        /* \"#utility.yul\":2644:2659   */\n      mstore\n        /* \"#utility.yul\":2678:2682   */\n      0x24\n        /* \"#utility.yul\":2675:2676   */\n      0x00\n        /* \"#utility.yul\":2668:2683   */\n      revert\n        /* \"#utility.yul\":2695:2889   */\n    tag_17:\n        /* \"#utility.yul\":2735:2739   */\n      0x00\n        /* \"#utility.yul\":2755:2775   */\n      tag_67\n        /* \"#utility.yul\":2773:2774   */\n      dup3\n        /* \"#utility.yul\":2755:2775   */\n      tag_28\n      jump\t// in\n    tag_67:\n        /* \"#utility.yul\":2750:2775   */\n      swap2\n      pop\n        /* \"#utility.yul\":2789:2809   */\n      tag_68\n        /* \"#utility.yul\":2807:2808   */\n      dup4\n        /* \"#utility.yul\":2789:2809   */\n      tag_28\n      jump\t// in\n    tag_68:\n        /* \"#utility.yul\":2784:2809   */\n      swap3\n      pop\n        /* \"#utility.yul\":2833:2834   */\n      dup3\n        /* \"#utility.yul\":2830:2831   */\n      dup3\n        /* \"#utility.yul\":2826:2835   */\n      sub\n        /* \"#utility.yul\":2818:2835   */\n      swap1\n      pop\n        /* \"#utility.yul\":2857:2858   */\n      dup2\n        /* \"#utility.yul\":2851:2855   */\n      dup2\n        /* \"#utility.yul\":2848:2859   */\n      gt\n        /* \"#utility.yul\":2845:2882   */\n      iszero\n      tag_69\n      jumpi\n        /* \"#utility.yul\":2862:2880   */\n      tag_70\n      tag_32\n      jump\t// in\n    tag_70:\n        /* \"#utility.yul\":2845:2882   */\n    tag_69:\n        /* \"#utility.yul\":2695:2889   */\n      swap3\n      swap2\n      pop\n      pop\n      jump\t// out\n        /* \"#utility.yul\":2895:3086   */\n    tag_19:\n        /* \"#utility.yul\":2935:2938   */\n      0x00\n        /* \"#utility.yul\":2954:2974   */\n      tag_72\n        /* \"#utility.yul\":2972:2973   */\n      dup3\n        /* \"#utility.yul\":2954:2974   */\n      tag_28\n      jump\t// in\n    tag_72:\n        /* \"#utility.yul\":2949:2974   */\n      swap2\n      pop\n        /* \"#utility.yul\":2988:3008   */\n      tag_73\n        /* \"#utility.yul\":3006:3007   */\n      dup4\n        /* \"#utility.yul\":2988:3008   */\n      tag_28\n      jump\t// in\n    tag_73:\n        /* \"#utility.yul\":2983:3008   */\n      swap3\n      pop\n        /* \"#utility.yul\":3031:3032   */\n      dup3\n        /* \"#utility.yul\":3028:3029   */\n      dup3\n        /* \"#utility.yul\":3024:3033   */\n      add\n        /* \"#utility.yul\":3017:3033   */\n      swap1\n      pop\n        /* \"#utility.yul\":3052:3055   */\n      dup1\n        /* \"#utility.yul\":3049:3050   */\n      dup3\n        /* \"#utility.yul\":3046:3056   */\n      gt\n        /* \"#utility.yul\":3043:3079   */\n      iszero\n      tag_74\n      jumpi\n        /* \"#utility.yul\":3059:3077   */\n      tag_75\n      tag_32\n      jump\t// in\n    tag_75:\n        /* \"#utility.yul\":3043:3079   */\n    tag_74:\n        /* \"#utility.yul\":2895:3086   */\n      swap3\n      swap2\n      pop\n      pop\n      jump\t// out\n\n    auxdata: 0xa26469706673582212201524b62a633dbbd0c305db4231c74b618c64d9469ce2110f74a93a8fd64d7bca64736f6c63430008120033\n}\n",
				"bytecode": {
					"linkReferences": {},
					"object": "608060405234801561001057600080fd5b50610409806100206000396000f3fe608060405234801561001057600080fd5b50600436106100365760003560e01c806327e235e31461003b578063beabacc81461006b575b600080fd5b6100556004803603810190610050919061025c565b610087565b60405161006291906102a2565b60405180910390f35b610085600480360381019061008091906102e9565b61009f565b005b60006020528060005260406000206000915090505481565b620f42406000808573ffffffffffffffffffffffffffffffffffffffff1673ffffffffffffffffffffffffffffffffffffffff16815260200190815260200160002081905550806000808573ffffffffffffffffffffffffffffffffffffffff1673ffffffffffffffffffffffffffffffffffffffff1681526020019081526020016000206000828254610133919061036b565b92505081905550806000808473ffffffffffffffffffffffffffffffffffffffff1673ffffffffffffffffffffffffffffffffffffffff1681526020019081526020016000206000828254610188919061039f565b925050819055508173ffffffffffffffffffffffffffffffffffffffff168373ffffffffffffffffffffffffffffffffffffffff167fddf252ad1be2c89b69c2b068fc378daa952ba7f163c4a11628f55a4df523b3ef836040516101ec91906102a2565b60405180910390a3505050565b600080fd5b600073ffffffffffffffffffffffffffffffffffffffff82169050919050565b6000610229826101fe565b9050919050565b6102398161021e565b811461024457600080fd5b50565b60008135905061025681610230565b92915050565b600060208284031215610272576102716101f9565b5b600061028084828501610247565b91505092915050565b6000819050919050565b61029c81610289565b82525050565b60006020820190506102b76000830184610293565b92915050565b6102c681610289565b81146102d157600080fd5b50565b6000813590506102e3816102bd565b92915050565b600080600060608486031215610302576103016101f9565b5b600061031086828701610247565b935050602061032186828701610247565b9250506040610332868287016102d4565b9150509250925092565b7f4e487b7100000000000000000000000000000000000000000000000000000000600052601160045260246000fd5b600061037682610289565b915061038183610289565b92508282039050818111156103995761039861033c565b5b92915050565b60006103aa82610289565b91506103b583610289565b92508282019050808211156103cd576103cc61033c565b5b9291505056fea26469706673582212201524b62a633dbbd0c305db4231c74b618c64d9469ce2110f74a93a8fd64d7bca64736f6c63430008120033",
					"opcodes": "PUSH1 0x80 PUSH1 0x40 MSTORE CALLVALUE DUP1 ISZERO PUSH2 0x10 JUMPI PUSH1 0x0 DUP1 REVERT JUMPDEST POP PUSH2 0x409 DUP1 PUSH2 0x20 PUSH1 0x0 CODECOPY PUSH1 0x0 RETURN INVALID PUSH1 0x80 PUSH1 0x40 MSTORE CALLVALUE DUP1 ISZERO PUSH2 0x10 JUMPI PUSH1 0x0 DUP1 REVERT JUMPDEST POP PUSH1 0x4 CALLDATASIZE LT PUSH2 0x36 JUMPI PUSH1 0x0 CALLDATALOAD PUSH1 0xE0 SHR DUP1 PUSH4 0x27E235E3 EQ PUSH2 0x3B JUMPI DUP1 PUSH4 0xBEABACC8 EQ PUSH2 0x6B JUMPI JUMPDEST PUSH1 0x0 DUP1 REVERT JUMPDEST PUSH2 0x55 PUSH1 0x4 DUP1 CALLDATASIZE SUB DUP2 ADD SWAP1 PUSH2 0x50 SWAP2 SWAP1 PUSH2 0x25C JUMP JUMPDEST PUSH2 0x87 JUMP JUMPDEST PUSH1 0x40 MLOAD PUSH2 0x62 SWAP2 SWAP1 PUSH2 0x2A2 JUMP JUMPDEST PUSH1 0x40 MLOAD DUP1 SWAP2 SUB SWAP1 RETURN JUMPDEST PUSH2 0x85 PUSH1 0x4 DUP1 CALLDATASIZE SUB DUP2 ADD SWAP1 PUSH2 0x80 SWAP2 SWAP1 PUSH2 0x2E9 JUMP JUMPDEST PUSH2 0x9F JUMP JUMPDEST STOP JUMPDEST PUSH1 0x0 PUSH1 0x20 MSTORE DUP1 PUSH1 0x0 MSTORE PUSH1 0x40 PUSH1 0x0 KECCAK256 PUSH1 0x0 SWAP2 POP SWAP1 POP SLOAD DUP2 JUMP JUMPDEST PUSH3 0xF4240 PUSH1 0x0 DUP1 DUP6 PUSH20 0xFFFFFFFFFFFFFFFFFFFFFFFFFFFFFFFFFFFFFFFF AND PUSH20 0xFFFFFFFFFFFFFFFFFFFFFFFFFFFFFFFFFFFFFFFF AND DUP2 MSTORE PUSH1 0x20 ADD SWAP1 DUP2 MSTORE PUSH1 0x20 ADD PUSH1 0x0 KECCAK256 DUP2 SWAP1 SSTORE POP DUP1 PUSH1 0x0 DUP1 DUP6 PUSH20 0xFFFFFFFFFFFFFFFFFFFFFFFFFFFFFFFFFFFFFFFF AND PUSH20 0xFFFFFFFFFFFFFFFFFFFFFFFFFFFFFFFFFFFFFFFF AND DUP2 MSTORE PUSH1 0x20 ADD SWAP1 DUP2 MSTORE PUSH1 0x20 ADD PUSH1 0x0 KECCAK256 PUSH1 0x0 DUP3 DUP3 SLOAD PUSH2 0x133 SWAP2 SWAP1 PUSH2 0x36B JUMP JUMPDEST SWAP3 POP POP DUP2 SWAP1 SSTORE POP DUP1 PUSH1 0x0 DUP1 DUP5 PUSH20 0xFFFFFFFFFFFFFFFFFFFFFFFFFFFFFFFFFFFFFFFF AND PUSH20 0xFFFFFFFFFFFFFFFFFFFFFFFFFFFFFFFFFFFFFFFF AND DUP2 MSTORE PUSH1 0x20 ADD SWAP1 DUP2 MSTORE PUSH1 0x20 ADD PUSH1 0x0 KECCAK256 PUSH1 0x0 DUP3 DUP3 SLOAD PUSH2 0x188 SWAP2 SWAP1 PUSH2 0x39F JUMP JUMPDEST SWAP3 POP POP DUP2 SWAP1 SSTORE POP DUP2 PUSH20 0xFFFFFFFFFFFFFFFFFFFFFFFFFFFFFFFFFFFFFFFF AND DUP4 PUSH20 0xFFFFFFFFFFFFFFFFFFFFFFFFFFFFFFFFFFFFFFFF AND PUSH32 0xDDF252AD1BE2C89B69C2B068FC378DAA952BA7F163C4A11628F55A4DF523B3EF DUP4 PUSH1 0x40 MLOAD PUSH2 0x1EC SWAP2 SWAP1 PUSH2 0x2A2 JUMP JUMPDEST PUSH1 0x40 MLOAD DUP1 SWAP2 SUB SWAP1 LOG3 POP POP POP JUMP JUMPDEST PUSH1 0x0 DUP1 REVERT JUMPDEST PUSH1 0x0 PUSH20 0xFFFFFFFFFFFFFFFFFFFFFFFFFFFFFFFFFFFFFFFF DUP3 AND SWAP1 POP SWAP2 SWAP1 POP JUMP JUMPDEST PUSH1 0x0 PUSH2 0x229 DUP3 PUSH2 0x1FE JUMP JUMPDEST SWAP1 POP SWAP2 SWAP1 POP JUMP JUMPDEST PUSH2 0x239 DUP2 PUSH2 0x21E JUMP JUMPDEST DUP2 EQ PUSH2 0x244 JUMPI PUSH1 0x0 DUP1 REVERT JUMPDEST POP JUMP JUMPDEST PUSH1 0x0 DUP2 CALLDATALOAD SWAP1 POP PUSH2 0x256 DUP2 PUSH2 0x230 JUMP JUMPDEST SWAP3 SWAP2 POP POP JUMP JUMPDEST PUSH1 0x0 PUSH1 0x20 DUP3 DUP5 SUB SLT ISZERO PUSH2 0x272 JUMPI PUSH2 0x271 PUSH2 0x1F9 JUMP JUMPDEST JUMPDEST PUSH1 0x0 PUSH2 0x280 DUP5 DUP3 DUP6 ADD PUSH2 0x247 JUMP JUMPDEST SWAP2 POP POP SWAP3 SWAP2 POP POP JUMP JUMPDEST PUSH1 0x0 DUP2 SWAP1 POP SWAP2 SWAP1 POP JUMP JUMPDEST PUSH2 0x29C DUP2 PUSH2 0x289 JUMP JUMPDEST DUP3 MSTORE POP POP JUMP JUMPDEST PUSH1 0x0 PUSH1 0x20 DUP3 ADD SWAP1 POP PUSH2 0x2B7 PUSH1 0x0 DUP4 ADD DUP5 PUSH2 0x293 JUMP JUMPDEST SWAP3 SWAP2 POP POP JUMP JUMPDEST PUSH2 0x2C6 DUP2 PUSH2 0x289 JUMP JUMPDEST DUP2 EQ PUSH2 0x2D1 JUMPI PUSH1 0x0 DUP1 REVERT JUMPDEST POP JUMP JUMPDEST PUSH1 0x0 DUP2 CALLDATALOAD SWAP1 POP PUSH2 0x2E3 DUP2 PUSH2 0x2BD JUMP JUMPDEST SWAP3 SWAP2 POP POP JUMP JUMPDEST PUSH1 0x0 DUP1 PUSH1 0x0 PUSH1 0x60 DUP5 DUP7 SUB SLT ISZERO PUSH2 0x302 JUMPI PUSH2 0x301 PUSH2 0x1F9 JUMP JUMPDEST JUMPDEST PUSH1 0x0 PUSH2 0x310 DUP7 DUP3 DUP8 ADD PUSH2 0x247 JUMP JUMPDEST SWAP4 POP POP PUSH1 0x20 PUSH2 0x321 DUP7 DUP3 DUP8 ADD PUSH2 0x247 JUMP JUMPDEST SWAP3 POP POP PUSH1 0x40 PUSH2 0x332 DUP7 DUP3 DUP8 ADD PUSH2 0x2D4 JUMP JUMPDEST SWAP2 POP POP SWAP3 POP SWAP3 POP SWAP3 JUMP JUMPDEST PUSH32 0x4E487B7100000000000000000000000000000000000000000000000000000000 PUSH1 0x0 MSTORE PUSH1 0x11 PUSH1 0x4 MSTORE PUSH1 0x24 PUSH1 0x0 REVERT JUMPDEST PUSH1 0x0 PUSH2 0x376 DUP3 PUSH2 0x289 JUMP JUMPDEST SWAP2 POP PUSH2 0x381 DUP4 PUSH2 0x289 JUMP JUMPDEST SWAP3 POP DUP3 DUP3 SUB SWAP1 POP DUP2 DUP2 GT ISZERO PUSH2 0x399 JUMPI PUSH2 0x398 PUSH2 0x33C JUMP JUMPDEST JUMPDEST SWAP3 SWAP2 POP POP JUMP JUMPDEST PUSH1 0x0 PUSH2 0x3AA DUP3 PUSH2 0x289 JUMP JUMPDEST SWAP2 POP PUSH2 0x3B5 DUP4 PUSH2 0x289 JUMP JUMPDEST SWAP3 POP DUP3 DUP3 ADD SWAP1 POP DUP1 DUP3 GT ISZERO PUSH2 0x3CD JUMPI PUSH2 0x3CC PUSH2 0x33C JUMP JUMPDEST JUMPDEST SWAP3 SWAP2 POP POP JUMP INVALID LOG2 PUSH5 0x6970667358 0x22 SLT KECCAK256 ISZERO 0x24 0xB6 0x2A PUSH4 0x3DBBD0C3 SDIV 0xDB TIMESTAMP BALANCE 0xC7 0x4B PUSH2 0x8C64 0xD9 CHAINID SWAP13 0xE2 GT 0xF PUSH21 0xA93A8FD64D7BCA64736F6C63430008120033000000 "
				},
				"gasEstimates": {
					"creation": {
						"codeDepositCost": "206600",
						"executionCost": "251",
						"totalCost": "206851"
					},
					"external": {
						"balances(address)": "2792",
						"transfer(address,address,uint256)": "infinite"
					}
				},
				"methodIdentifiers": {
					"balances(address)": "27e235e3",
					"transfer(address,address,uint256)": "beabacc8"
				}
			},
			"storageLayout": {
				"storage": [
					{
						"astId": 5,
						"contract": "Contract/WTFacademy/Solidity101/train_12.sol:train_event",
						"label": "balances",
						"offset": 0,
						"slot": "0",
						"type": "t_mapping(t_address,t_uint256)"
					}
				],
				"types": {
					"t_address": {
						"encoding": "inplace",
						"label": "address",
						"numberOfBytes": "20"
					},
					"t_mapping(t_address,t_uint256)": {
						"encoding": "mapping",
						"key": "t_address",
						"label": "mapping(address => uint256)",
						"numberOfBytes": "32",
						"value": "t_uint256"
					},
					"t_uint256": {
						"encoding": "inplace",
						"label": "uint256",
						"numberOfBytes": "32"
					}
				}
			},
			"userdoc": {
				"kind": "user",
				"methods": {},
				"version": 1
			}
		}
	}
}