{
	"Contract/WTFacademy/Solidity101/train_3_2.sol": {
		"train_internal_exteranl": {
			"abi": [
				{
					"inputs": [],
					"name": "getMoney",
					"outputs": [
						{
							"internalType": "uint256",
							"name": "balance",
							"type": "uint256"
						}
					],
					"stateMutability": "payable",
					"type": "function"
				},
				{
					"inputs": [],
					"name": "minusCallInternal",
					"outputs": [],
					"stateMutability": "nonpayable",
					"type": "function"
				},
				{
					"inputs": [],
					"name": "minusExternal",
					"outputs": [],
					"stateMutability": "nonpayable",
					"type": "function"
				},
				{
					"inputs": [],
					"name": "number",
					"outputs": [
						{
							"internalType": "uint256",
							"name": "",
							"type": "uint256"
						}
					],
					"stateMutability": "view",
					"type": "function"
				}
			],
			"devdoc": {
				"kind": "dev",
				"methods": {},
				"version": 1
			},
			"evm": {
				"assembly": "    /* \"Contract/WTFacademy/Solidity101/train_3_2.sol\":60:766  contract train_internal_exteranl{... */\n  mstore(0x40, 0x80)\n    /* \"Contract/WTFacademy/Solidity101/train_3_2.sol\":123:124  5 */\n  0x05\n    /* \"Contract/WTFacademy/Solidity101/train_3_2.sol\":99:124  uint256 public number = 5 */\n  0x00\n  sstore\n    /* \"Contract/WTFacademy/Solidity101/train_3_2.sol\":60:766  contract train_internal_exteranl{... */\n  callvalue\n  dup1\n  iszero\n  tag_1\n  jumpi\n  0x00\n  dup1\n  revert\ntag_1:\n  pop\n  dataSize(sub_0)\n  dup1\n  dataOffset(sub_0)\n  0x00\n  codecopy\n  0x00\n  return\nstop\n\nsub_0: assembly {\n        /* \"Contract/WTFacademy/Solidity101/train_3_2.sol\":60:766  contract train_internal_exteranl{... */\n      mstore(0x40, 0x80)\n      jumpi(tag_1, lt(calldatasize, 0x04))\n      shr(0xe0, calldataload(0x00))\n      dup1\n      0x8381f58a\n      eq\n      tag_2\n      jumpi\n      dup1\n      0x8f888059\n      eq\n      tag_3\n      jumpi\n      dup1\n      0x9153e0f3\n      eq\n      tag_4\n      jumpi\n      dup1\n      0x98e1b410\n      eq\n      tag_5\n      jumpi\n    tag_1:\n      0x00\n      dup1\n      revert\n        /* \"Contract/WTFacademy/Solidity101/train_3_2.sol\":99:124  uint256 public number = 5 */\n    tag_2:\n      callvalue\n      dup1\n      iszero\n      tag_6\n      jumpi\n      0x00\n      dup1\n      revert\n    tag_6:\n      pop\n      tag_7\n      tag_8\n      jump\t// in\n    tag_7:\n      mload(0x40)\n      tag_9\n      swap2\n      swap1\n      tag_10\n      jump\t// in\n    tag_9:\n      mload(0x40)\n      dup1\n      swap2\n      sub\n      swap1\n      return\n        /* \"Contract/WTFacademy/Solidity101/train_3_2.sol\":509:581  function minusCallInternal() external {... */\n    tag_3:\n      callvalue\n      dup1\n      iszero\n      tag_11\n      jumpi\n      0x00\n      dup1\n      revert\n    tag_11:\n      pop\n      tag_12\n      tag_13\n      jump\t// in\n    tag_12:\n      stop\n        /* \"Contract/WTFacademy/Solidity101/train_3_2.sol\":179:252  function minusExternal() external {... */\n    tag_4:\n      callvalue\n      dup1\n      iszero\n      tag_14\n      jumpi\n      0x00\n      dup1\n      revert\n    tag_14:\n      pop\n      tag_15\n      tag_16\n      jump\t// in\n    tag_15:\n      stop\n        /* \"Contract/WTFacademy/Solidity101/train_3_2.sol\":652:763  function getMoney() external payable returns(uint256 balance){... */\n    tag_5:\n      tag_17\n      tag_18\n      jump\t// in\n    tag_17:\n      mload(0x40)\n      tag_19\n      swap2\n      swap1\n      tag_10\n      jump\t// in\n    tag_19:\n      mload(0x40)\n      dup1\n      swap2\n      sub\n      swap1\n      return\n        /* \"Contract/WTFacademy/Solidity101/train_3_2.sol\":99:124  uint256 public number = 5 */\n    tag_8:\n      sload(0x00)\n      dup2\n      jump\t// out\n        /* \"Contract/WTFacademy/Solidity101/train_3_2.sol\":509:581  function minusCallInternal() external {... */\n    tag_13:\n        /* \"Contract/WTFacademy/Solidity101/train_3_2.sol\":558:573  miunsInternal() */\n      tag_21\n        /* \"Contract/WTFacademy/Solidity101/train_3_2.sol\":558:571  miunsInternal */\n      tag_22\n        /* \"Contract/WTFacademy/Solidity101/train_3_2.sol\":558:573  miunsInternal() */\n      jump\t// in\n    tag_21:\n        /* \"Contract/WTFacademy/Solidity101/train_3_2.sol\":509:581  function minusCallInternal() external {... */\n      jump\t// out\n        /* \"Contract/WTFacademy/Solidity101/train_3_2.sol\":179:252  function minusExternal() external {... */\n    tag_16:\n        /* \"Contract/WTFacademy/Solidity101/train_3_2.sol\":242:243  1 */\n      0x01\n        /* \"Contract/WTFacademy/Solidity101/train_3_2.sol\":233:239  number */\n      sload(0x00)\n        /* \"Contract/WTFacademy/Solidity101/train_3_2.sol\":233:243  number - 1 */\n      tag_24\n      swap2\n      swap1\n      tag_25\n      jump\t// in\n    tag_24:\n        /* \"Contract/WTFacademy/Solidity101/train_3_2.sol\":224:230  number */\n      0x00\n        /* \"Contract/WTFacademy/Solidity101/train_3_2.sol\":224:243  number = number - 1 */\n      dup2\n      swap1\n      sstore\n      pop\n        /* \"Contract/WTFacademy/Solidity101/train_3_2.sol\":179:252  function minusExternal() external {... */\n      jump\t// out\n        /* \"Contract/WTFacademy/Solidity101/train_3_2.sol\":652:763  function getMoney() external payable returns(uint256 balance){... */\n    tag_18:\n        /* \"Contract/WTFacademy/Solidity101/train_3_2.sol\":697:712  uint256 balance */\n      0x00\n        /* \"Contract/WTFacademy/Solidity101/train_3_2.sol\":734:755  address(this).balance */\n      selfbalance\n        /* \"Contract/WTFacademy/Solidity101/train_3_2.sol\":724:755  balance = address(this).balance */\n      swap1\n      pop\n        /* \"Contract/WTFacademy/Solidity101/train_3_2.sol\":652:763  function getMoney() external payable returns(uint256 balance){... */\n      swap1\n      jump\t// out\n        /* \"Contract/WTFacademy/Solidity101/train_3_2.sol\":340:421  function miunsInternal() internal {... */\n    tag_22:\n        /* \"Contract/WTFacademy/Solidity101/train_3_2.sol\":403:404  1 */\n      0x01\n        /* \"Contract/WTFacademy/Solidity101/train_3_2.sol\":394:400  number */\n      sload(0x00)\n        /* \"Contract/WTFacademy/Solidity101/train_3_2.sol\":394:404  number - 1 */\n      tag_28\n      swap2\n      swap1\n      tag_25\n      jump\t// in\n    tag_28:\n        /* \"Contract/WTFacademy/Solidity101/train_3_2.sol\":385:391  number */\n      0x00\n        /* \"Contract/WTFacademy/Solidity101/train_3_2.sol\":385:404  number = number - 1 */\n      dup2\n      swap1\n      sstore\n      pop\n        /* \"Contract/WTFacademy/Solidity101/train_3_2.sol\":340:421  function miunsInternal() internal {... */\n      jump\t// out\n        /* \"#utility.yul\":7:84   */\n    tag_29:\n        /* \"#utility.yul\":44:51   */\n      0x00\n        /* \"#utility.yul\":73:78   */\n      dup2\n        /* \"#utility.yul\":62:78   */\n      swap1\n      pop\n        /* \"#utility.yul\":7:84   */\n      swap2\n      swap1\n      pop\n      jump\t// out\n        /* \"#utility.yul\":90:208   */\n    tag_30:\n        /* \"#utility.yul\":177:201   */\n      tag_35\n        /* \"#utility.yul\":195:200   */\n      dup2\n        /* \"#utility.yul\":177:201   */\n      tag_29\n      jump\t// in\n    tag_35:\n        /* \"#utility.yul\":172:175   */\n      dup3\n        /* \"#utility.yul\":165:202   */\n      mstore\n        /* \"#utility.yul\":90:208   */\n      pop\n      pop\n      jump\t// out\n        /* \"#utility.yul\":214:436   */\n    tag_10:\n        /* \"#utility.yul\":307:311   */\n      0x00\n        /* \"#utility.yul\":345:347   */\n      0x20\n        /* \"#utility.yul\":334:343   */\n      dup3\n        /* \"#utility.yul\":330:348   */\n      add\n        /* \"#utility.yul\":322:348   */\n      swap1\n      pop\n        /* \"#utility.yul\":358:429   */\n      tag_37\n        /* \"#utility.yul\":426:427   */\n      0x00\n        /* \"#utility.yul\":415:424   */\n      dup4\n        /* \"#utility.yul\":411:428   */\n      add\n        /* \"#utility.yul\":402:408   */\n      dup5\n        /* \"#utility.yul\":358:429   */\n      tag_30\n      jump\t// in\n    tag_37:\n        /* \"#utility.yul\":214:436   */\n      swap3\n      swap2\n      pop\n      pop\n      jump\t// out\n        /* \"#utility.yul\":442:622   */\n    tag_31:\n        /* \"#utility.yul\":490:567   */\n      0x4e487b7100000000000000000000000000000000000000000000000000000000\n        /* \"#utility.yul\":487:488   */\n      0x00\n        /* \"#utility.yul\":480:568   */\n      mstore\n        /* \"#utility.yul\":587:591   */\n      0x11\n        /* \"#utility.yul\":584:585   */\n      0x04\n        /* \"#utility.yul\":577:592   */\n      mstore\n        /* \"#utility.yul\":611:615   */\n      0x24\n        /* \"#utility.yul\":608:609   */\n      0x00\n        /* \"#utility.yul\":601:616   */\n      revert\n        /* \"#utility.yul\":628:822   */\n    tag_25:\n        /* \"#utility.yul\":668:672   */\n      0x00\n        /* \"#utility.yul\":688:708   */\n      tag_40\n        /* \"#utility.yul\":706:707   */\n      dup3\n        /* \"#utility.yul\":688:708   */\n      tag_29\n      jump\t// in\n    tag_40:\n        /* \"#utility.yul\":683:708   */\n      swap2\n      pop\n        /* \"#utility.yul\":722:742   */\n      tag_41\n        /* \"#utility.yul\":740:741   */\n      dup4\n        /* \"#utility.yul\":722:742   */\n      tag_29\n      jump\t// in\n    tag_41:\n        /* \"#utility.yul\":717:742   */\n      swap3\n      pop\n        /* \"#utility.yul\":766:767   */\n      dup3\n        /* \"#utility.yul\":763:764   */\n      dup3\n        /* \"#utility.yul\":759:768   */\n      sub\n        /* \"#utility.yul\":751:768   */\n      swap1\n      pop\n        /* \"#utility.yul\":790:791   */\n      dup2\n        /* \"#utility.yul\":784:788   */\n      dup2\n        /* \"#utility.yul\":781:792   */\n      gt\n        /* \"#utility.yul\":778:815   */\n      iszero\n      tag_42\n      jumpi\n        /* \"#utility.yul\":795:813   */\n      tag_43\n      tag_31\n      jump\t// in\n    tag_43:\n        /* \"#utility.yul\":778:815   */\n    tag_42:\n        /* \"#utility.yul\":628:822   */\n      swap3\n      swap2\n      pop\n      pop\n      jump\t// out\n\n    auxdata: 0xa2646970667358221220e67ce6edb273d40885c91c931f7de4c6a0f15daa8a0c697fad00d306cd176b5164736f6c63430008120033\n}\n",
				"bytecode": {
					"linkReferences": {},
					"object": "6080604052600560005534801561001557600080fd5b506101ce806100256000396000f3fe60806040526004361061003f5760003560e01c80638381f58a146100445780638f8880591461006f5780639153e0f31461008657806398e1b4101461009d575b600080fd5b34801561005057600080fd5b506100596100bb565b604051610066919061011a565b60405180910390f35b34801561007b57600080fd5b506100846100c1565b005b34801561009257600080fd5b5061009b6100cb565b005b6100a56100e2565b6040516100b2919061011a565b60405180910390f35b60005481565b6100c96100ea565b565b60016000546100da9190610164565b600081905550565b600047905090565b60016000546100f99190610164565b600081905550565b6000819050919050565b61011481610101565b82525050565b600060208201905061012f600083018461010b565b92915050565b7f4e487b7100000000000000000000000000000000000000000000000000000000600052601160045260246000fd5b600061016f82610101565b915061017a83610101565b925082820390508181111561019257610191610135565b5b9291505056fea2646970667358221220e67ce6edb273d40885c91c931f7de4c6a0f15daa8a0c697fad00d306cd176b5164736f6c63430008120033",
					"opcodes": "PUSH1 0x80 PUSH1 0x40 MSTORE PUSH1 0x5 PUSH1 0x0 SSTORE CALLVALUE DUP1 ISZERO PUSH2 0x15 JUMPI PUSH1 0x0 DUP1 REVERT JUMPDEST POP PUSH2 0x1CE DUP1 PUSH2 0x25 PUSH1 0x0 CODECOPY PUSH1 0x0 RETURN INVALID PUSH1 0x80 PUSH1 0x40 MSTORE PUSH1 0x4 CALLDATASIZE LT PUSH2 0x3F JUMPI PUSH1 0x0 CALLDATALOAD PUSH1 0xE0 SHR DUP1 PUSH4 0x8381F58A EQ PUSH2 0x44 JUMPI DUP1 PUSH4 0x8F888059 EQ PUSH2 0x6F JUMPI DUP1 PUSH4 0x9153E0F3 EQ PUSH2 0x86 JUMPI DUP1 PUSH4 0x98E1B410 EQ PUSH2 0x9D JUMPI JUMPDEST PUSH1 0x0 DUP1 REVERT JUMPDEST CALLVALUE DUP1 ISZERO PUSH2 0x50 JUMPI PUSH1 0x0 DUP1 REVERT JUMPDEST POP PUSH2 0x59 PUSH2 0xBB JUMP JUMPDEST PUSH1 0x40 MLOAD PUSH2 0x66 SWAP2 SWAP1 PUSH2 0x11A JUMP JUMPDEST PUSH1 0x40 MLOAD DUP1 SWAP2 SUB SWAP1 RETURN JUMPDEST CALLVALUE DUP1 ISZERO PUSH2 0x7B JUMPI PUSH1 0x0 DUP1 REVERT JUMPDEST POP PUSH2 0x84 PUSH2 0xC1 JUMP JUMPDEST STOP JUMPDEST CALLVALUE DUP1 ISZERO PUSH2 0x92 JUMPI PUSH1 0x0 DUP1 REVERT JUMPDEST POP PUSH2 0x9B PUSH2 0xCB JUMP JUMPDEST STOP JUMPDEST PUSH2 0xA5 PUSH2 0xE2 JUMP JUMPDEST PUSH1 0x40 MLOAD PUSH2 0xB2 SWAP2 SWAP1 PUSH2 0x11A JUMP JUMPDEST PUSH1 0x40 MLOAD DUP1 SWAP2 SUB SWAP1 RETURN JUMPDEST PUSH1 0x0 SLOAD DUP2 JUMP JUMPDEST PUSH2 0xC9 PUSH2 0xEA JUMP JUMPDEST JUMP JUMPDEST PUSH1 0x1 PUSH1 0x0 SLOAD PUSH2 0xDA SWAP2 SWAP1 PUSH2 0x164 JUMP JUMPDEST PUSH1 0x0 DUP2 SWAP1 SSTORE POP JUMP JUMPDEST PUSH1 0x0 SELFBALANCE SWAP1 POP SWAP1 JUMP JUMPDEST PUSH1 0x1 PUSH1 0x0 SLOAD PUSH2 0xF9 SWAP2 SWAP1 PUSH2 0x164 JUMP JUMPDEST PUSH1 0x0 DUP2 SWAP1 SSTORE POP JUMP JUMPDEST PUSH1 0x0 DUP2 SWAP1 POP SWAP2 SWAP1 POP JUMP JUMPDEST PUSH2 0x114 DUP2 PUSH2 0x101 JUMP JUMPDEST DUP3 MSTORE POP POP JUMP JUMPDEST PUSH1 0x0 PUSH1 0x20 DUP3 ADD SWAP1 POP PUSH2 0x12F PUSH1 0x0 DUP4 ADD DUP5 PUSH2 0x10B JUMP JUMPDEST SWAP3 SWAP2 POP POP JUMP JUMPDEST PUSH32 0x4E487B7100000000000000000000000000000000000000000000000000000000 PUSH1 0x0 MSTORE PUSH1 0x11 PUSH1 0x4 MSTORE PUSH1 0x24 PUSH1 0x0 REVERT JUMPDEST PUSH1 0x0 PUSH2 0x16F DUP3 PUSH2 0x101 JUMP JUMPDEST SWAP2 POP PUSH2 0x17A DUP4 PUSH2 0x101 JUMP JUMPDEST SWAP3 POP DUP3 DUP3 SUB SWAP1 POP DUP2 DUP2 GT ISZERO PUSH2 0x192 JUMPI PUSH2 0x191 PUSH2 0x135 JUMP JUMPDEST JUMPDEST SWAP3 SWAP2 POP POP JUMP INVALID LOG2 PUSH5 0x6970667358 0x22 SLT KECCAK256 0xE6 PUSH29 0xE6EDB273D40885C91C931F7DE4C6A0F15DAA8A0C697FAD00D306CD176B MLOAD PUSH5 0x736F6C6343 STOP ADDMOD SLT STOP CALLER "
				},
				"gasEstimates": {
					"creation": {
						"codeDepositCost": "92400",
						"executionCost": "22247",
						"totalCost": "114647"
					},
					"external": {
						"getMoney()": "359",
						"minusCallInternal()": "infinite",
						"minusExternal()": "infinite",
						"number()": "2407"
					},
					"internal": {
						"miunsInternal()": "infinite"
					}
				},
				"methodIdentifiers": {
					"getMoney()": "98e1b410",
					"minusCallInternal()": "8f888059",
					"minusExternal()": "9153e0f3",
					"number()": "8381f58a"
				}
			},
			"storageLayout": {
				"storage": [
					{
						"astId": 4,
						"contract": "Contract/WTFacademy/Solidity101/train_3_2.sol:train_internal_exteranl",
						"label": "number",
						"offset": 0,
						"slot": "0",
						"type": "t_uint256"
					}
				],
				"types": {
					"t_uint256": {
						"encoding": "inplace",
						"label": "uint256",
						"numberOfBytes": "32"
					}
				}
			},
			"userdoc": {
				"kind": "user",
				"methods": {},
				"version": 1
			}
		}
	}
}