{
	"Contract/WTFacademy/Solidity101/train_2.sol": {
		"train_2": {
			"abi": [
				{
					"inputs": [],
					"name": "_address",
					"outputs": [
						{
							"internalType": "address",
							"name": "",
							"type": "address"
						}
					],
					"stateMutability": "view",
					"type": "function"
				},
				{
					"inputs": [],
					"name": "_address1",
					"outputs": [
						{
							"internalType": "address payable",
							"name": "",
							"type": "address"
						}
					],
					"stateMutability": "view",
					"type": "function"
				},
				{
					"inputs": [],
					"name": "_byte1",
					"outputs": [
						{
							"internalType": "bytes1",
							"name": "",
							"type": "bytes1"
						}
					],
					"stateMutability": "view",
					"type": "function"
				},
				{
					"inputs": [],
					"name": "_byte32",
					"outputs": [
						{
							"internalType": "bytes32",
							"name": "",
							"type": "bytes32"
						}
					],
					"stateMutability": "view",
					"type": "function"
				},
				{
					"inputs": [],
					"name": "_int",
					"outputs": [
						{
							"internalType": "int256",
							"name": "",
							"type": "int256"
						}
					],
					"stateMutability": "view",
					"type": "function"
				},
				{
					"inputs": [],
					"name": "_int2",
					"outputs": [
						{
							"internalType": "uint256",
							"name": "",
							"type": "uint256"
						}
					],
					"stateMutability": "view",
					"type": "function"
				},
				{
					"inputs": [],
					"name": "_int3",
					"outputs": [
						{
							"internalType": "uint256",
							"name": "",
							"type": "uint256"
						}
					],
					"stateMutability": "view",
					"type": "function"
				},
				{
					"inputs": [],
					"name": "balance",
					"outputs": [
						{
							"internalType": "uint256",
							"name": "",
							"type": "uint256"
						}
					],
					"stateMutability": "view",
					"type": "function"
				},
				{
					"inputs": [],
					"name": "balance1",
					"outputs": [
						{
							"internalType": "uint256",
							"name": "",
							"type": "uint256"
						}
					],
					"stateMutability": "view",
					"type": "function"
				},
				{
					"inputs": [],
					"name": "carset",
					"outputs": [
						{
							"internalType": "enum train_2.CarSet",
							"name": "",
							"type": "uint8"
						}
					],
					"stateMutability": "view",
					"type": "function"
				},
				{
					"inputs": [],
					"name": "enumToUint",
					"outputs": [
						{
							"internalType": "uint256",
							"name": "",
							"type": "uint256"
						}
					],
					"stateMutability": "view",
					"type": "function"
				}
			],
			"devdoc": {
				"kind": "dev",
				"methods": {},
				"version": 1
			},
			"evm": {
				"assembly": "    /* \"Contract/WTFacademy/Solidity101/train_2.sol\":60:738  contract train_2{... */\n  mstore(0x40, 0x80)\n    /* \"Contract/WTFacademy/Solidity101/train_2.sol\":101:102  1 */\n  0x01\n    /* \"Contract/WTFacademy/Solidity101/train_2.sol\":83:102  int public _int = 1 */\n  0x00\n  sstore\n    /* \"Contract/WTFacademy/Solidity101/train_2.sol\":129:133  3**2 */\n  0x09\n    /* \"Contract/WTFacademy/Solidity101/train_2.sol\":109:133  uint public _int2 = 3**2 */\n  0x01\n  sstore\n    /* \"Contract/WTFacademy/Solidity101/train_2.sol\":160:165  7 % 2 */\n  0x01\n    /* \"Contract/WTFacademy/Solidity101/train_2.sol\":140:165  uint public _int3 = 7 % 2 */\n  0x02\n  sstore\n    /* \"Contract/WTFacademy/Solidity101/train_2.sol\":200:242  0x5B38Da6a701c568545dCfcB03FcB875f56beddC4 */\n  0x5b38da6a701c568545dcfcb03fcb875f56beddc4\n    /* \"Contract/WTFacademy/Solidity101/train_2.sol\":174:242  address public _address = 0x5B38Da6a701c568545dCfcB03FcB875f56beddC4 */\n  0x03\n  exp(0x0100, 0x00)\n  dup2\n  sload\n  dup2\n  0xffffffffffffffffffffffffffffffffffffffff\n  mul\n  not\n  and\n  swap1\n  dup4\n  0xffffffffffffffffffffffffffffffffffffffff\n  and\n  mul\n  or\n  swap1\n  sstore\n  pop\n    /* \"Contract/WTFacademy/Solidity101/train_2.sol\":292:300  _address */\n  0x03\n  0x00\n  swap1\n  sload\n  swap1\n  0x0100\n  exp\n  swap1\n  div\n  0xffffffffffffffffffffffffffffffffffffffff\n  and\n    /* \"Contract/WTFacademy/Solidity101/train_2.sol\":249:301  address payable public _address1 = payable(_address) */\n  0x04\n  exp(0x0100, 0x00)\n  dup2\n  sload\n  dup2\n  0xffffffffffffffffffffffffffffffffffffffff\n  mul\n  not\n  and\n  swap1\n  dup4\n  0xffffffffffffffffffffffffffffffffffffffff\n  and\n  mul\n  or\n  swap1\n  sstore\n  pop\n    /* \"Contract/WTFacademy/Solidity101/train_2.sol\":331:340  _address1 */\n  0x04\n  0x00\n  swap1\n  sload\n  swap1\n  0x0100\n  exp\n  swap1\n  div\n  0xffffffffffffffffffffffffffffffffffffffff\n  and\n    /* \"Contract/WTFacademy/Solidity101/train_2.sol\":331:348  _address1.balance */\n  0xffffffffffffffffffffffffffffffffffffffff\n  and\n  balance\n    /* \"Contract/WTFacademy/Solidity101/train_2.sol\":308:348  uint public balance1 = _address1.balance */\n  0x05\n  sstore\n    /* \"Contract/WTFacademy/Solidity101/train_2.sol\":377:385  _address */\n  0x03\n  0x00\n  swap1\n  sload\n  swap1\n  0x0100\n  exp\n  swap1\n  div\n  0xffffffffffffffffffffffffffffffffffffffff\n  and\n    /* \"Contract/WTFacademy/Solidity101/train_2.sol\":377:393  _address.balance */\n  0xffffffffffffffffffffffffffffffffffffffff\n  and\n  balance\n    /* \"Contract/WTFacademy/Solidity101/train_2.sol\":355:393  uint public balance = _address.balance */\n  0x06\n  sstore\n    /* \"Contract/WTFacademy/Solidity101/train_2.sol\":402:437  bytes32 public _byte32 = \"ILOVEYOU\" */\n  sstore(0x07, 0x494c4f5645594f55000000000000000000000000000000000000000000000000)\n    /* \"Contract/WTFacademy/Solidity101/train_2.sol\":467:474  _byte32 */\n  sload(0x07)\n    /* \"Contract/WTFacademy/Solidity101/train_2.sol\":475:476  0 */\n  0x00\n    /* \"Contract/WTFacademy/Solidity101/train_2.sol\":467:477  _byte32[0] */\n  0x20\n  dup2\n  lt\n  tag_1\n  jumpi\n  tag_2\n  tag_3\n  jump\t// in\ntag_2:\ntag_1:\n  byte\n  0xf8\n  shl\n    /* \"Contract/WTFacademy/Solidity101/train_2.sol\":444:477  bytes1 public _byte1 = _byte32[0] */\n  0x08\n  exp(0x0100, 0x00)\n  dup2\n  sload\n  dup2\n  0xff\n  mul\n  not\n  and\n  swap1\n  dup4\n  0xf8\n  shr\n  mul\n  or\n  swap1\n  sstore\n  pop\n    /* \"Contract/WTFacademy/Solidity101/train_2.sol\":549:560  CarSet.Benz */\n  0x01\n    /* \"Contract/WTFacademy/Solidity101/train_2.sol\":526:560  CarSet public carset = CarSet.Benz */\n  0x08\n  exp(0x0100, 0x01)\n  dup2\n  sload\n  dup2\n  0xff\n  mul\n  not\n  and\n  swap1\n  dup4\n  0x02\n  dup2\n  gt\n  iszero\n  tag_4\n  jumpi\n  tag_5\n  tag_6\n  jump\t// in\ntag_5:\ntag_4:\n  mul\n  or\n  swap1\n  sstore\n  pop\n    /* \"Contract/WTFacademy/Solidity101/train_2.sol\":60:738  contract train_2{... */\n  callvalue\n  dup1\n  iszero\n  tag_7\n  jumpi\n  0x00\n  dup1\n  revert\ntag_7:\n  pop\n  jump(tag_8)\n    /* \"#utility.yul\":7:187   */\ntag_3:\n    /* \"#utility.yul\":55:132   */\n  0x4e487b7100000000000000000000000000000000000000000000000000000000\n    /* \"#utility.yul\":52:53   */\n  0x00\n    /* \"#utility.yul\":45:133   */\n  mstore\n    /* \"#utility.yul\":152:156   */\n  0x32\n    /* \"#utility.yul\":149:150   */\n  0x04\n    /* \"#utility.yul\":142:157   */\n  mstore\n    /* \"#utility.yul\":176:180   */\n  0x24\n    /* \"#utility.yul\":173:174   */\n  0x00\n    /* \"#utility.yul\":166:181   */\n  revert\n    /* \"#utility.yul\":193:373   */\ntag_6:\n    /* \"#utility.yul\":241:318   */\n  0x4e487b7100000000000000000000000000000000000000000000000000000000\n    /* \"#utility.yul\":238:239   */\n  0x00\n    /* \"#utility.yul\":231:319   */\n  mstore\n    /* \"#utility.yul\":338:342   */\n  0x21\n    /* \"#utility.yul\":335:336   */\n  0x04\n    /* \"#utility.yul\":328:343   */\n  mstore\n    /* \"#utility.yul\":362:366   */\n  0x24\n    /* \"#utility.yul\":359:360   */\n  0x00\n    /* \"#utility.yul\":352:367   */\n  revert\n    /* \"Contract/WTFacademy/Solidity101/train_2.sol\":60:738  contract train_2{... */\ntag_8:\n  dataSize(sub_0)\n  dup1\n  dataOffset(sub_0)\n  0x00\n  codecopy\n  0x00\n  return\nstop\n\nsub_0: assembly {\n        /* \"Contract/WTFacademy/Solidity101/train_2.sol\":60:738  contract train_2{... */\n      mstore(0x40, 0x80)\n      callvalue\n      dup1\n      iszero\n      tag_1\n      jumpi\n      0x00\n      dup1\n      revert\n    tag_1:\n      pop\n      jumpi(tag_2, lt(calldatasize, 0x04))\n      shr(0xe0, calldataload(0x00))\n      dup1\n      0x53e95af9\n      gt\n      tag_14\n      jumpi\n      dup1\n      0x53e95af9\n      eq\n      tag_8\n      jumpi\n      dup1\n      0xac729403\n      eq\n      tag_9\n      jumpi\n      dup1\n      0xaf45869e\n      eq\n      tag_10\n      jumpi\n      dup1\n      0xb69ef8a8\n      eq\n      tag_11\n      jumpi\n      dup1\n      0xc45c4f58\n      eq\n      tag_12\n      jumpi\n      dup1\n      0xeac23280\n      eq\n      tag_13\n      jumpi\n      jump(tag_2)\n    tag_14:\n      dup1\n      0x01019958\n      eq\n      tag_3\n      jumpi\n      dup1\n      0x18bad217\n      eq\n      tag_4\n      jumpi\n      dup1\n      0x3c119e34\n      eq\n      tag_5\n      jumpi\n      dup1\n      0x3f346102\n      eq\n      tag_6\n      jumpi\n      dup1\n      0x42eaad1e\n      eq\n      tag_7\n      jumpi\n    tag_2:\n      0x00\n      dup1\n      revert\n        /* \"Contract/WTFacademy/Solidity101/train_2.sol\":639:727  function enumToUint() external view returns(uint){... */\n    tag_3:\n      tag_15\n      tag_16\n      jump\t// in\n    tag_15:\n      mload(0x40)\n      tag_17\n      swap2\n      swap1\n      tag_18\n      jump\t// in\n    tag_17:\n      mload(0x40)\n      dup1\n      swap2\n      sub\n      swap1\n      return\n        /* \"Contract/WTFacademy/Solidity101/train_2.sol\":174:242  address public _address = 0x5B38Da6a701c568545dCfcB03FcB875f56beddC4 */\n    tag_4:\n      tag_19\n      tag_20\n      jump\t// in\n    tag_19:\n      mload(0x40)\n      tag_21\n      swap2\n      swap1\n      tag_22\n      jump\t// in\n    tag_21:\n      mload(0x40)\n      dup1\n      swap2\n      sub\n      swap1\n      return\n        /* \"Contract/WTFacademy/Solidity101/train_2.sol\":140:165  uint public _int3 = 7 % 2 */\n    tag_5:\n      tag_23\n      tag_24\n      jump\t// in\n    tag_23:\n      mload(0x40)\n      tag_25\n      swap2\n      swap1\n      tag_18\n      jump\t// in\n    tag_25:\n      mload(0x40)\n      dup1\n      swap2\n      sub\n      swap1\n      return\n        /* \"Contract/WTFacademy/Solidity101/train_2.sol\":402:437  bytes32 public _byte32 = \"ILOVEYOU\" */\n    tag_6:\n      tag_26\n      tag_27\n      jump\t// in\n    tag_26:\n      mload(0x40)\n      tag_28\n      swap2\n      swap1\n      tag_29\n      jump\t// in\n    tag_28:\n      mload(0x40)\n      dup1\n      swap2\n      sub\n      swap1\n      return\n        /* \"Contract/WTFacademy/Solidity101/train_2.sol\":526:560  CarSet public carset = CarSet.Benz */\n    tag_7:\n      tag_30\n      tag_31\n      jump\t// in\n    tag_30:\n      mload(0x40)\n      tag_32\n      swap2\n      swap1\n      tag_33\n      jump\t// in\n    tag_32:\n      mload(0x40)\n      dup1\n      swap2\n      sub\n      swap1\n      return\n        /* \"Contract/WTFacademy/Solidity101/train_2.sol\":109:133  uint public _int2 = 3**2 */\n    tag_8:\n      tag_34\n      tag_35\n      jump\t// in\n    tag_34:\n      mload(0x40)\n      tag_36\n      swap2\n      swap1\n      tag_18\n      jump\t// in\n    tag_36:\n      mload(0x40)\n      dup1\n      swap2\n      sub\n      swap1\n      return\n        /* \"Contract/WTFacademy/Solidity101/train_2.sol\":249:301  address payable public _address1 = payable(_address) */\n    tag_9:\n      tag_37\n      tag_38\n      jump\t// in\n    tag_37:\n      mload(0x40)\n      tag_39\n      swap2\n      swap1\n      tag_40\n      jump\t// in\n    tag_39:\n      mload(0x40)\n      dup1\n      swap2\n      sub\n      swap1\n      return\n        /* \"Contract/WTFacademy/Solidity101/train_2.sol\":83:102  int public _int = 1 */\n    tag_10:\n      tag_41\n      tag_42\n      jump\t// in\n    tag_41:\n      mload(0x40)\n      tag_43\n      swap2\n      swap1\n      tag_44\n      jump\t// in\n    tag_43:\n      mload(0x40)\n      dup1\n      swap2\n      sub\n      swap1\n      return\n        /* \"Contract/WTFacademy/Solidity101/train_2.sol\":355:393  uint public balance = _address.balance */\n    tag_11:\n      tag_45\n      tag_46\n      jump\t// in\n    tag_45:\n      mload(0x40)\n      tag_47\n      swap2\n      swap1\n      tag_18\n      jump\t// in\n    tag_47:\n      mload(0x40)\n      dup1\n      swap2\n      sub\n      swap1\n      return\n        /* \"Contract/WTFacademy/Solidity101/train_2.sol\":308:348  uint public balance1 = _address1.balance */\n    tag_12:\n      tag_48\n      tag_49\n      jump\t// in\n    tag_48:\n      mload(0x40)\n      tag_50\n      swap2\n      swap1\n      tag_18\n      jump\t// in\n    tag_50:\n      mload(0x40)\n      dup1\n      swap2\n      sub\n      swap1\n      return\n        /* \"Contract/WTFacademy/Solidity101/train_2.sol\":444:477  bytes1 public _byte1 = _byte32[0] */\n    tag_13:\n      tag_51\n      tag_52\n      jump\t// in\n    tag_51:\n      mload(0x40)\n      tag_53\n      swap2\n      swap1\n      tag_54\n      jump\t// in\n    tag_53:\n      mload(0x40)\n      dup1\n      swap2\n      sub\n      swap1\n      return\n        /* \"Contract/WTFacademy/Solidity101/train_2.sol\":639:727  function enumToUint() external view returns(uint){... */\n    tag_16:\n        /* \"Contract/WTFacademy/Solidity101/train_2.sol\":683:687  uint */\n      0x00\n        /* \"Contract/WTFacademy/Solidity101/train_2.sol\":711:717  carset */\n      0x08\n      0x01\n      swap1\n      sload\n      swap1\n      0x0100\n      exp\n      swap1\n      div\n      0xff\n      and\n        /* \"Contract/WTFacademy/Solidity101/train_2.sol\":706:718  uint(carset) */\n      0x02\n      dup2\n      gt\n      iszero\n      tag_56\n      jumpi\n      tag_57\n      tag_58\n      jump\t// in\n    tag_57:\n    tag_56:\n        /* \"Contract/WTFacademy/Solidity101/train_2.sol\":699:718  return uint(carset) */\n      swap1\n      pop\n        /* \"Contract/WTFacademy/Solidity101/train_2.sol\":639:727  function enumToUint() external view returns(uint){... */\n      swap1\n      jump\t// out\n        /* \"Contract/WTFacademy/Solidity101/train_2.sol\":174:242  address public _address = 0x5B38Da6a701c568545dCfcB03FcB875f56beddC4 */\n    tag_20:\n      0x03\n      0x00\n      swap1\n      sload\n      swap1\n      0x0100\n      exp\n      swap1\n      div\n      0xffffffffffffffffffffffffffffffffffffffff\n      and\n      dup2\n      jump\t// out\n        /* \"Contract/WTFacademy/Solidity101/train_2.sol\":140:165  uint public _int3 = 7 % 2 */\n    tag_24:\n      sload(0x02)\n      dup2\n      jump\t// out\n        /* \"Contract/WTFacademy/Solidity101/train_2.sol\":402:437  bytes32 public _byte32 = \"ILOVEYOU\" */\n    tag_27:\n      sload(0x07)\n      dup2\n      jump\t// out\n        /* \"Contract/WTFacademy/Solidity101/train_2.sol\":526:560  CarSet public carset = CarSet.Benz */\n    tag_31:\n      0x08\n      0x01\n      swap1\n      sload\n      swap1\n      0x0100\n      exp\n      swap1\n      div\n      0xff\n      and\n      dup2\n      jump\t// out\n        /* \"Contract/WTFacademy/Solidity101/train_2.sol\":109:133  uint public _int2 = 3**2 */\n    tag_35:\n      sload(0x01)\n      dup2\n      jump\t// out\n        /* \"Contract/WTFacademy/Solidity101/train_2.sol\":249:301  address payable public _address1 = payable(_address) */\n    tag_38:\n      0x04\n      0x00\n      swap1\n      sload\n      swap1\n      0x0100\n      exp\n      swap1\n      div\n      0xffffffffffffffffffffffffffffffffffffffff\n      and\n      dup2\n      jump\t// out\n        /* \"Contract/WTFacademy/Solidity101/train_2.sol\":83:102  int public _int = 1 */\n    tag_42:\n      sload(0x00)\n      dup2\n      jump\t// out\n        /* \"Contract/WTFacademy/Solidity101/train_2.sol\":355:393  uint public balance = _address.balance */\n    tag_46:\n      sload(0x06)\n      dup2\n      jump\t// out\n        /* \"Contract/WTFacademy/Solidity101/train_2.sol\":308:348  uint public balance1 = _address1.balance */\n    tag_49:\n      sload(0x05)\n      dup2\n      jump\t// out\n        /* \"Contract/WTFacademy/Solidity101/train_2.sol\":444:477  bytes1 public _byte1 = _byte32[0] */\n    tag_52:\n      0x08\n      0x00\n      swap1\n      sload\n      swap1\n      0x0100\n      exp\n      swap1\n      div\n      0xf8\n      shl\n      dup2\n      jump\t// out\n        /* \"#utility.yul\":7:84   */\n    tag_59:\n        /* \"#utility.yul\":44:51   */\n      0x00\n        /* \"#utility.yul\":73:78   */\n      dup2\n        /* \"#utility.yul\":62:78   */\n      swap1\n      pop\n        /* \"#utility.yul\":7:84   */\n      swap2\n      swap1\n      pop\n      jump\t// out\n        /* \"#utility.yul\":90:208   */\n    tag_60:\n        /* \"#utility.yul\":177:201   */\n      tag_79\n        /* \"#utility.yul\":195:200   */\n      dup2\n        /* \"#utility.yul\":177:201   */\n      tag_59\n      jump\t// in\n    tag_79:\n        /* \"#utility.yul\":172:175   */\n      dup3\n        /* \"#utility.yul\":165:202   */\n      mstore\n        /* \"#utility.yul\":90:208   */\n      pop\n      pop\n      jump\t// out\n        /* \"#utility.yul\":214:436   */\n    tag_18:\n        /* \"#utility.yul\":307:311   */\n      0x00\n        /* \"#utility.yul\":345:347   */\n      0x20\n        /* \"#utility.yul\":334:343   */\n      dup3\n        /* \"#utility.yul\":330:348   */\n      add\n        /* \"#utility.yul\":322:348   */\n      swap1\n      pop\n        /* \"#utility.yul\":358:429   */\n      tag_81\n        /* \"#utility.yul\":426:427   */\n      0x00\n        /* \"#utility.yul\":415:424   */\n      dup4\n        /* \"#utility.yul\":411:428   */\n      add\n        /* \"#utility.yul\":402:408   */\n      dup5\n        /* \"#utility.yul\":358:429   */\n      tag_60\n      jump\t// in\n    tag_81:\n        /* \"#utility.yul\":214:436   */\n      swap3\n      swap2\n      pop\n      pop\n      jump\t// out\n        /* \"#utility.yul\":442:568   */\n    tag_61:\n        /* \"#utility.yul\":479:486   */\n      0x00\n        /* \"#utility.yul\":519:561   */\n      0xffffffffffffffffffffffffffffffffffffffff\n        /* \"#utility.yul\":512:517   */\n      dup3\n        /* \"#utility.yul\":508:562   */\n      and\n        /* \"#utility.yul\":497:562   */\n      swap1\n      pop\n        /* \"#utility.yul\":442:568   */\n      swap2\n      swap1\n      pop\n      jump\t// out\n        /* \"#utility.yul\":574:670   */\n    tag_62:\n        /* \"#utility.yul\":611:618   */\n      0x00\n        /* \"#utility.yul\":640:664   */\n      tag_84\n        /* \"#utility.yul\":658:663   */\n      dup3\n        /* \"#utility.yul\":640:664   */\n      tag_61\n      jump\t// in\n    tag_84:\n        /* \"#utility.yul\":629:664   */\n      swap1\n      pop\n        /* \"#utility.yul\":574:670   */\n      swap2\n      swap1\n      pop\n      jump\t// out\n        /* \"#utility.yul\":676:794   */\n    tag_63:\n        /* \"#utility.yul\":763:787   */\n      tag_86\n        /* \"#utility.yul\":781:786   */\n      dup2\n        /* \"#utility.yul\":763:787   */\n      tag_62\n      jump\t// in\n    tag_86:\n        /* \"#utility.yul\":758:761   */\n      dup3\n        /* \"#utility.yul\":751:788   */\n      mstore\n        /* \"#utility.yul\":676:794   */\n      pop\n      pop\n      jump\t// out\n        /* \"#utility.yul\":800:1022   */\n    tag_22:\n        /* \"#utility.yul\":893:897   */\n      0x00\n        /* \"#utility.yul\":931:933   */\n      0x20\n        /* \"#utility.yul\":920:929   */\n      dup3\n        /* \"#utility.yul\":916:934   */\n      add\n        /* \"#utility.yul\":908:934   */\n      swap1\n      pop\n        /* \"#utility.yul\":944:1015   */\n      tag_88\n        /* \"#utility.yul\":1012:1013   */\n      0x00\n        /* \"#utility.yul\":1001:1010   */\n      dup4\n        /* \"#utility.yul\":997:1014   */\n      add\n        /* \"#utility.yul\":988:994   */\n      dup5\n        /* \"#utility.yul\":944:1015   */\n      tag_63\n      jump\t// in\n    tag_88:\n        /* \"#utility.yul\":800:1022   */\n      swap3\n      swap2\n      pop\n      pop\n      jump\t// out\n        /* \"#utility.yul\":1028:1105   */\n    tag_64:\n        /* \"#utility.yul\":1065:1072   */\n      0x00\n        /* \"#utility.yul\":1094:1099   */\n      dup2\n        /* \"#utility.yul\":1083:1099   */\n      swap1\n      pop\n        /* \"#utility.yul\":1028:1105   */\n      swap2\n      swap1\n      pop\n      jump\t// out\n        /* \"#utility.yul\":1111:1229   */\n    tag_65:\n        /* \"#utility.yul\":1198:1222   */\n      tag_91\n        /* \"#utility.yul\":1216:1221   */\n      dup2\n        /* \"#utility.yul\":1198:1222   */\n      tag_64\n      jump\t// in\n    tag_91:\n        /* \"#utility.yul\":1193:1196   */\n      dup3\n        /* \"#utility.yul\":1186:1223   */\n      mstore\n        /* \"#utility.yul\":1111:1229   */\n      pop\n      pop\n      jump\t// out\n        /* \"#utility.yul\":1235:1457   */\n    tag_29:\n        /* \"#utility.yul\":1328:1332   */\n      0x00\n        /* \"#utility.yul\":1366:1368   */\n      0x20\n        /* \"#utility.yul\":1355:1364   */\n      dup3\n        /* \"#utility.yul\":1351:1369   */\n      add\n        /* \"#utility.yul\":1343:1369   */\n      swap1\n      pop\n        /* \"#utility.yul\":1379:1450   */\n      tag_93\n        /* \"#utility.yul\":1447:1448   */\n      0x00\n        /* \"#utility.yul\":1436:1445   */\n      dup4\n        /* \"#utility.yul\":1432:1449   */\n      add\n        /* \"#utility.yul\":1423:1429   */\n      dup5\n        /* \"#utility.yul\":1379:1450   */\n      tag_65\n      jump\t// in\n    tag_93:\n        /* \"#utility.yul\":1235:1457   */\n      swap3\n      swap2\n      pop\n      pop\n      jump\t// out\n        /* \"#utility.yul\":1463:1643   */\n    tag_58:\n        /* \"#utility.yul\":1511:1588   */\n      0x4e487b7100000000000000000000000000000000000000000000000000000000\n        /* \"#utility.yul\":1508:1509   */\n      0x00\n        /* \"#utility.yul\":1501:1589   */\n      mstore\n        /* \"#utility.yul\":1608:1612   */\n      0x21\n        /* \"#utility.yul\":1605:1606   */\n      0x04\n        /* \"#utility.yul\":1598:1613   */\n      mstore\n        /* \"#utility.yul\":1632:1636   */\n      0x24\n        /* \"#utility.yul\":1629:1630   */\n      0x00\n        /* \"#utility.yul\":1622:1637   */\n      revert\n        /* \"#utility.yul\":1649:1763   */\n    tag_66:\n        /* \"#utility.yul\":1731:1732   */\n      0x03\n        /* \"#utility.yul\":1724:1729   */\n      dup2\n        /* \"#utility.yul\":1721:1733   */\n      lt\n        /* \"#utility.yul\":1711:1757   */\n      tag_96\n      jumpi\n        /* \"#utility.yul\":1737:1755   */\n      tag_97\n      tag_58\n      jump\t// in\n    tag_97:\n        /* \"#utility.yul\":1711:1757   */\n    tag_96:\n        /* \"#utility.yul\":1649:1763   */\n      pop\n      jump\t// out\n        /* \"#utility.yul\":1769:1898   */\n    tag_67:\n        /* \"#utility.yul\":1815:1822   */\n      0x00\n        /* \"#utility.yul\":1844:1849   */\n      dup2\n        /* \"#utility.yul\":1833:1849   */\n      swap1\n      pop\n        /* \"#utility.yul\":1850:1892   */\n      tag_99\n        /* \"#utility.yul\":1886:1891   */\n      dup3\n        /* \"#utility.yul\":1850:1892   */\n      tag_66\n      jump\t// in\n    tag_99:\n        /* \"#utility.yul\":1769:1898   */\n      swap2\n      swap1\n      pop\n      jump\t// out\n        /* \"#utility.yul\":1904:2033   */\n    tag_68:\n        /* \"#utility.yul\":1961:1970   */\n      0x00\n        /* \"#utility.yul\":1994:2027   */\n      tag_101\n        /* \"#utility.yul\":2021:2026   */\n      dup3\n        /* \"#utility.yul\":1994:2027   */\n      tag_67\n      jump\t// in\n    tag_101:\n        /* \"#utility.yul\":1981:2027   */\n      swap1\n      pop\n        /* \"#utility.yul\":1904:2033   */\n      swap2\n      swap1\n      pop\n      jump\t// out\n        /* \"#utility.yul\":2039:2184   */\n    tag_69:\n        /* \"#utility.yul\":2133:2177   */\n      tag_103\n        /* \"#utility.yul\":2171:2176   */\n      dup2\n        /* \"#utility.yul\":2133:2177   */\n      tag_68\n      jump\t// in\n    tag_103:\n        /* \"#utility.yul\":2128:2131   */\n      dup3\n        /* \"#utility.yul\":2121:2178   */\n      mstore\n        /* \"#utility.yul\":2039:2184   */\n      pop\n      pop\n      jump\t// out\n        /* \"#utility.yul\":2190:2426   */\n    tag_33:\n        /* \"#utility.yul\":2290:2294   */\n      0x00\n        /* \"#utility.yul\":2328:2330   */\n      0x20\n        /* \"#utility.yul\":2317:2326   */\n      dup3\n        /* \"#utility.yul\":2313:2331   */\n      add\n        /* \"#utility.yul\":2305:2331   */\n      swap1\n      pop\n        /* \"#utility.yul\":2341:2419   */\n      tag_105\n        /* \"#utility.yul\":2416:2417   */\n      0x00\n        /* \"#utility.yul\":2405:2414   */\n      dup4\n        /* \"#utility.yul\":2401:2418   */\n      add\n        /* \"#utility.yul\":2392:2398   */\n      dup5\n        /* \"#utility.yul\":2341:2419   */\n      tag_69\n      jump\t// in\n    tag_105:\n        /* \"#utility.yul\":2190:2426   */\n      swap3\n      swap2\n      pop\n      pop\n      jump\t// out\n        /* \"#utility.yul\":2432:2536   */\n    tag_70:\n        /* \"#utility.yul\":2477:2484   */\n      0x00\n        /* \"#utility.yul\":2506:2530   */\n      tag_107\n        /* \"#utility.yul\":2524:2529   */\n      dup3\n        /* \"#utility.yul\":2506:2530   */\n      tag_61\n      jump\t// in\n    tag_107:\n        /* \"#utility.yul\":2495:2530   */\n      swap1\n      pop\n        /* \"#utility.yul\":2432:2536   */\n      swap2\n      swap1\n      pop\n      jump\t// out\n        /* \"#utility.yul\":2542:2684   */\n    tag_71:\n        /* \"#utility.yul\":2645:2677   */\n      tag_109\n        /* \"#utility.yul\":2671:2676   */\n      dup2\n        /* \"#utility.yul\":2645:2677   */\n      tag_70\n      jump\t// in\n    tag_109:\n        /* \"#utility.yul\":2640:2643   */\n      dup3\n        /* \"#utility.yul\":2633:2678   */\n      mstore\n        /* \"#utility.yul\":2542:2684   */\n      pop\n      pop\n      jump\t// out\n        /* \"#utility.yul\":2690:2944   */\n    tag_40:\n        /* \"#utility.yul\":2799:2803   */\n      0x00\n        /* \"#utility.yul\":2837:2839   */\n      0x20\n        /* \"#utility.yul\":2826:2835   */\n      dup3\n        /* \"#utility.yul\":2822:2840   */\n      add\n        /* \"#utility.yul\":2814:2840   */\n      swap1\n      pop\n        /* \"#utility.yul\":2850:2937   */\n      tag_111\n        /* \"#utility.yul\":2934:2935   */\n      0x00\n        /* \"#utility.yul\":2923:2932   */\n      dup4\n        /* \"#utility.yul\":2919:2936   */\n      add\n        /* \"#utility.yul\":2910:2916   */\n      dup5\n        /* \"#utility.yul\":2850:2937   */\n      tag_71\n      jump\t// in\n    tag_111:\n        /* \"#utility.yul\":2690:2944   */\n      swap3\n      swap2\n      pop\n      pop\n      jump\t// out\n        /* \"#utility.yul\":2950:3026   */\n    tag_72:\n        /* \"#utility.yul\":2986:2993   */\n      0x00\n        /* \"#utility.yul\":3015:3020   */\n      dup2\n        /* \"#utility.yul\":3004:3020   */\n      swap1\n      pop\n        /* \"#utility.yul\":2950:3026   */\n      swap2\n      swap1\n      pop\n      jump\t// out\n        /* \"#utility.yul\":3032:3147   */\n    tag_73:\n        /* \"#utility.yul\":3117:3140   */\n      tag_114\n        /* \"#utility.yul\":3134:3139   */\n      dup2\n        /* \"#utility.yul\":3117:3140   */\n      tag_72\n      jump\t// in\n    tag_114:\n        /* \"#utility.yul\":3112:3115   */\n      dup3\n        /* \"#utility.yul\":3105:3141   */\n      mstore\n        /* \"#utility.yul\":3032:3147   */\n      pop\n      pop\n      jump\t// out\n        /* \"#utility.yul\":3153:3371   */\n    tag_44:\n        /* \"#utility.yul\":3244:3248   */\n      0x00\n        /* \"#utility.yul\":3282:3284   */\n      0x20\n        /* \"#utility.yul\":3271:3280   */\n      dup3\n        /* \"#utility.yul\":3267:3285   */\n      add\n        /* \"#utility.yul\":3259:3285   */\n      swap1\n      pop\n        /* \"#utility.yul\":3295:3364   */\n      tag_116\n        /* \"#utility.yul\":3361:3362   */\n      0x00\n        /* \"#utility.yul\":3350:3359   */\n      dup4\n        /* \"#utility.yul\":3346:3363   */\n      add\n        /* \"#utility.yul\":3337:3343   */\n      dup5\n        /* \"#utility.yul\":3295:3364   */\n      tag_73\n      jump\t// in\n    tag_116:\n        /* \"#utility.yul\":3153:3371   */\n      swap3\n      swap2\n      pop\n      pop\n      jump\t// out\n        /* \"#utility.yul\":3377:3526   */\n    tag_74:\n        /* \"#utility.yul\":3413:3420   */\n      0x00\n        /* \"#utility.yul\":3453:3519   */\n      0xff00000000000000000000000000000000000000000000000000000000000000\n        /* \"#utility.yul\":3446:3451   */\n      dup3\n        /* \"#utility.yul\":3442:3520   */\n      and\n        /* \"#utility.yul\":3431:3520   */\n      swap1\n      pop\n        /* \"#utility.yul\":3377:3526   */\n      swap2\n      swap1\n      pop\n      jump\t// out\n        /* \"#utility.yul\":3532:3647   */\n    tag_75:\n        /* \"#utility.yul\":3617:3640   */\n      tag_119\n        /* \"#utility.yul\":3634:3639   */\n      dup2\n        /* \"#utility.yul\":3617:3640   */\n      tag_74\n      jump\t// in\n    tag_119:\n        /* \"#utility.yul\":3612:3615   */\n      dup3\n        /* \"#utility.yul\":3605:3641   */\n      mstore\n        /* \"#utility.yul\":3532:3647   */\n      pop\n      pop\n      jump\t// out\n        /* \"#utility.yul\":3653:3871   */\n    tag_54:\n        /* \"#utility.yul\":3744:3748   */\n      0x00\n        /* \"#utility.yul\":3782:3784   */\n      0x20\n        /* \"#utility.yul\":3771:3780   */\n      dup3\n        /* \"#utility.yul\":3767:3785   */\n      add\n        /* \"#utility.yul\":3759:3785   */\n      swap1\n      pop\n        /* \"#utility.yul\":3795:3864   */\n      tag_121\n        /* \"#utility.yul\":3861:3862   */\n      0x00\n        /* \"#utility.yul\":3850:3859   */\n      dup4\n        /* \"#utility.yul\":3846:3863   */\n      add\n        /* \"#utility.yul\":3837:3843   */\n      dup5\n        /* \"#utility.yul\":3795:3864   */\n      tag_75\n      jump\t// in\n    tag_121:\n        /* \"#utility.yul\":3653:3871   */\n      swap3\n      swap2\n      pop\n      pop\n      jump\t// out\n\n    auxdata: 0xa2646970667358221220fe92394d63161e7413909545ee5437712104196b001ed5ad71bea3cc2d6c140164736f6c63430008120033\n}\n",
				"bytecode": {
					"linkReferences": {},
					"object": "6080604052600160005560096001556001600255735b38da6a701c568545dcfcb03fcb875f56beddc4600360006101000a81548173ffffffffffffffffffffffffffffffffffffffff021916908373ffffffffffffffffffffffffffffffffffffffff160217905550600360009054906101000a900473ffffffffffffffffffffffffffffffffffffffff16600460006101000a81548173ffffffffffffffffffffffffffffffffffffffff021916908373ffffffffffffffffffffffffffffffffffffffff160217905550600460009054906101000a900473ffffffffffffffffffffffffffffffffffffffff1673ffffffffffffffffffffffffffffffffffffffff1631600555600360009054906101000a900473ffffffffffffffffffffffffffffffffffffffff1673ffffffffffffffffffffffffffffffffffffffff16316006557f494c4f5645594f5500000000000000000000000000000000000000000000000060075560075460006020811061017f5761017e6101da565b5b1a60f81b600860006101000a81548160ff021916908360f81c02179055506001600860016101000a81548160ff021916908360028111156101c3576101c2610209565b5b02179055503480156101d457600080fd5b50610238565b7f4e487b7100000000000000000000000000000000000000000000000000000000600052603260045260246000fd5b7f4e487b7100000000000000000000000000000000000000000000000000000000600052602160045260246000fd5b610509806102476000396000f3fe608060405234801561001057600080fd5b50600436106100a95760003560e01c806353e95af91161007157806353e95af914610144578063ac72940314610162578063af45869e14610180578063b69ef8a81461019e578063c45c4f58146101bc578063eac23280146101da576100a9565b806301019958146100ae57806318bad217146100cc5780633c119e34146100ea5780633f3461021461010857806342eaad1e14610126575b600080fd5b6100b66101f8565b6040516100c391906102d0565b60405180910390f35b6100d4610221565b6040516100e1919061032c565b60405180910390f35b6100f2610247565b6040516100ff91906102d0565b60405180910390f35b61011061024d565b60405161011d9190610360565b60405180910390f35b61012e610253565b60405161013b91906103f2565b60405180910390f35b61014c610266565b60405161015991906102d0565b60405180910390f35b61016a61026c565b604051610177919061042e565b60405180910390f35b610188610292565b6040516101959190610462565b60405180910390f35b6101a6610298565b6040516101b391906102d0565b60405180910390f35b6101c461029e565b6040516101d191906102d0565b60405180910390f35b6101e26102a4565b6040516101ef91906104b8565b60405180910390f35b6000600860019054906101000a900460ff16600281111561021c5761021b61037b565b5b905090565b600360009054906101000a900473ffffffffffffffffffffffffffffffffffffffff1681565b60025481565b60075481565b600860019054906101000a900460ff1681565b60015481565b600460009054906101000a900473ffffffffffffffffffffffffffffffffffffffff1681565b60005481565b60065481565b60055481565b600860009054906101000a900460f81b81565b6000819050919050565b6102ca816102b7565b82525050565b60006020820190506102e560008301846102c1565b92915050565b600073ffffffffffffffffffffffffffffffffffffffff82169050919050565b6000610316826102eb565b9050919050565b6103268161030b565b82525050565b6000602082019050610341600083018461031d565b92915050565b6000819050919050565b61035a81610347565b82525050565b60006020820190506103756000830184610351565b92915050565b7f4e487b7100000000000000000000000000000000000000000000000000000000600052602160045260246000fd5b600381106103bb576103ba61037b565b5b50565b60008190506103cc826103aa565b919050565b60006103dc826103be565b9050919050565b6103ec816103d1565b82525050565b600060208201905061040760008301846103e3565b92915050565b6000610418826102eb565b9050919050565b6104288161040d565b82525050565b6000602082019050610443600083018461041f565b92915050565b6000819050919050565b61045c81610449565b82525050565b60006020820190506104776000830184610453565b92915050565b60007fff0000000000000000000000000000000000000000000000000000000000000082169050919050565b6104b28161047d565b82525050565b60006020820190506104cd60008301846104a9565b9291505056fea2646970667358221220fe92394d63161e7413909545ee5437712104196b001ed5ad71bea3cc2d6c140164736f6c63430008120033",
					"opcodes": "PUSH1 0x80 PUSH1 0x40 MSTORE PUSH1 0x1 PUSH1 0x0 SSTORE PUSH1 0x9 PUSH1 0x1 SSTORE PUSH1 0x1 PUSH1 0x2 SSTORE PUSH20 0x5B38DA6A701C568545DCFCB03FCB875F56BEDDC4 PUSH1 0x3 PUSH1 0x0 PUSH2 0x100 EXP DUP2 SLOAD DUP2 PUSH20 0xFFFFFFFFFFFFFFFFFFFFFFFFFFFFFFFFFFFFFFFF MUL NOT AND SWAP1 DUP4 PUSH20 0xFFFFFFFFFFFFFFFFFFFFFFFFFFFFFFFFFFFFFFFF AND MUL OR SWAP1 SSTORE POP PUSH1 0x3 PUSH1 0x0 SWAP1 SLOAD SWAP1 PUSH2 0x100 EXP SWAP1 DIV PUSH20 0xFFFFFFFFFFFFFFFFFFFFFFFFFFFFFFFFFFFFFFFF AND PUSH1 0x4 PUSH1 0x0 PUSH2 0x100 EXP DUP2 SLOAD DUP2 PUSH20 0xFFFFFFFFFFFFFFFFFFFFFFFFFFFFFFFFFFFFFFFF MUL NOT AND SWAP1 DUP4 PUSH20 0xFFFFFFFFFFFFFFFFFFFFFFFFFFFFFFFFFFFFFFFF AND MUL OR SWAP1 SSTORE POP PUSH1 0x4 PUSH1 0x0 SWAP1 SLOAD SWAP1 PUSH2 0x100 EXP SWAP1 DIV PUSH20 0xFFFFFFFFFFFFFFFFFFFFFFFFFFFFFFFFFFFFFFFF AND PUSH20 0xFFFFFFFFFFFFFFFFFFFFFFFFFFFFFFFFFFFFFFFF AND BALANCE PUSH1 0x5 SSTORE PUSH1 0x3 PUSH1 0x0 SWAP1 SLOAD SWAP1 PUSH2 0x100 EXP SWAP1 DIV PUSH20 0xFFFFFFFFFFFFFFFFFFFFFFFFFFFFFFFFFFFFFFFF AND PUSH20 0xFFFFFFFFFFFFFFFFFFFFFFFFFFFFFFFFFFFFFFFF AND BALANCE PUSH1 0x6 SSTORE PUSH32 0x494C4F5645594F55000000000000000000000000000000000000000000000000 PUSH1 0x7 SSTORE PUSH1 0x7 SLOAD PUSH1 0x0 PUSH1 0x20 DUP2 LT PUSH2 0x17F JUMPI PUSH2 0x17E PUSH2 0x1DA JUMP JUMPDEST JUMPDEST BYTE PUSH1 0xF8 SHL PUSH1 0x8 PUSH1 0x0 PUSH2 0x100 EXP DUP2 SLOAD DUP2 PUSH1 0xFF MUL NOT AND SWAP1 DUP4 PUSH1 0xF8 SHR MUL OR SWAP1 SSTORE POP PUSH1 0x1 PUSH1 0x8 PUSH1 0x1 PUSH2 0x100 EXP DUP2 SLOAD DUP2 PUSH1 0xFF MUL NOT AND SWAP1 DUP4 PUSH1 0x2 DUP2 GT ISZERO PUSH2 0x1C3 JUMPI PUSH2 0x1C2 PUSH2 0x209 JUMP JUMPDEST JUMPDEST MUL OR SWAP1 SSTORE POP CALLVALUE DUP1 ISZERO PUSH2 0x1D4 JUMPI PUSH1 0x0 DUP1 REVERT JUMPDEST POP PUSH2 0x238 JUMP JUMPDEST PUSH32 0x4E487B7100000000000000000000000000000000000000000000000000000000 PUSH1 0x0 MSTORE PUSH1 0x32 PUSH1 0x4 MSTORE PUSH1 0x24 PUSH1 0x0 REVERT JUMPDEST PUSH32 0x4E487B7100000000000000000000000000000000000000000000000000000000 PUSH1 0x0 MSTORE PUSH1 0x21 PUSH1 0x4 MSTORE PUSH1 0x24 PUSH1 0x0 REVERT JUMPDEST PUSH2 0x509 DUP1 PUSH2 0x247 PUSH1 0x0 CODECOPY PUSH1 0x0 RETURN INVALID PUSH1 0x80 PUSH1 0x40 MSTORE CALLVALUE DUP1 ISZERO PUSH2 0x10 JUMPI PUSH1 0x0 DUP1 REVERT JUMPDEST POP PUSH1 0x4 CALLDATASIZE LT PUSH2 0xA9 JUMPI PUSH1 0x0 CALLDATALOAD PUSH1 0xE0 SHR DUP1 PUSH4 0x53E95AF9 GT PUSH2 0x71 JUMPI DUP1 PUSH4 0x53E95AF9 EQ PUSH2 0x144 JUMPI DUP1 PUSH4 0xAC729403 EQ PUSH2 0x162 JUMPI DUP1 PUSH4 0xAF45869E EQ PUSH2 0x180 JUMPI DUP1 PUSH4 0xB69EF8A8 EQ PUSH2 0x19E JUMPI DUP1 PUSH4 0xC45C4F58 EQ PUSH2 0x1BC JUMPI DUP1 PUSH4 0xEAC23280 EQ PUSH2 0x1DA JUMPI PUSH2 0xA9 JUMP JUMPDEST DUP1 PUSH4 0x1019958 EQ PUSH2 0xAE JUMPI DUP1 PUSH4 0x18BAD217 EQ PUSH2 0xCC JUMPI DUP1 PUSH4 0x3C119E34 EQ PUSH2 0xEA JUMPI DUP1 PUSH4 0x3F346102 EQ PUSH2 0x108 JUMPI DUP1 PUSH4 0x42EAAD1E EQ PUSH2 0x126 JUMPI JUMPDEST PUSH1 0x0 DUP1 REVERT JUMPDEST PUSH2 0xB6 PUSH2 0x1F8 JUMP JUMPDEST PUSH1 0x40 MLOAD PUSH2 0xC3 SWAP2 SWAP1 PUSH2 0x2D0 JUMP JUMPDEST PUSH1 0x40 MLOAD DUP1 SWAP2 SUB SWAP1 RETURN JUMPDEST PUSH2 0xD4 PUSH2 0x221 JUMP JUMPDEST PUSH1 0x40 MLOAD PUSH2 0xE1 SWAP2 SWAP1 PUSH2 0x32C JUMP JUMPDEST PUSH1 0x40 MLOAD DUP1 SWAP2 SUB SWAP1 RETURN JUMPDEST PUSH2 0xF2 PUSH2 0x247 JUMP JUMPDEST PUSH1 0x40 MLOAD PUSH2 0xFF SWAP2 SWAP1 PUSH2 0x2D0 JUMP JUMPDEST PUSH1 0x40 MLOAD DUP1 SWAP2 SUB SWAP1 RETURN JUMPDEST PUSH2 0x110 PUSH2 0x24D JUMP JUMPDEST PUSH1 0x40 MLOAD PUSH2 0x11D SWAP2 SWAP1 PUSH2 0x360 JUMP JUMPDEST PUSH1 0x40 MLOAD DUP1 SWAP2 SUB SWAP1 RETURN JUMPDEST PUSH2 0x12E PUSH2 0x253 JUMP JUMPDEST PUSH1 0x40 MLOAD PUSH2 0x13B SWAP2 SWAP1 PUSH2 0x3F2 JUMP JUMPDEST PUSH1 0x40 MLOAD DUP1 SWAP2 SUB SWAP1 RETURN JUMPDEST PUSH2 0x14C PUSH2 0x266 JUMP JUMPDEST PUSH1 0x40 MLOAD PUSH2 0x159 SWAP2 SWAP1 PUSH2 0x2D0 JUMP JUMPDEST PUSH1 0x40 MLOAD DUP1 SWAP2 SUB SWAP1 RETURN JUMPDEST PUSH2 0x16A PUSH2 0x26C JUMP JUMPDEST PUSH1 0x40 MLOAD PUSH2 0x177 SWAP2 SWAP1 PUSH2 0x42E JUMP JUMPDEST PUSH1 0x40 MLOAD DUP1 SWAP2 SUB SWAP1 RETURN JUMPDEST PUSH2 0x188 PUSH2 0x292 JUMP JUMPDEST PUSH1 0x40 MLOAD PUSH2 0x195 SWAP2 SWAP1 PUSH2 0x462 JUMP JUMPDEST PUSH1 0x40 MLOAD DUP1 SWAP2 SUB SWAP1 RETURN JUMPDEST PUSH2 0x1A6 PUSH2 0x298 JUMP JUMPDEST PUSH1 0x40 MLOAD PUSH2 0x1B3 SWAP2 SWAP1 PUSH2 0x2D0 JUMP JUMPDEST PUSH1 0x40 MLOAD DUP1 SWAP2 SUB SWAP1 RETURN JUMPDEST PUSH2 0x1C4 PUSH2 0x29E JUMP JUMPDEST PUSH1 0x40 MLOAD PUSH2 0x1D1 SWAP2 SWAP1 PUSH2 0x2D0 JUMP JUMPDEST PUSH1 0x40 MLOAD DUP1 SWAP2 SUB SWAP1 RETURN JUMPDEST PUSH2 0x1E2 PUSH2 0x2A4 JUMP JUMPDEST PUSH1 0x40 MLOAD PUSH2 0x1EF SWAP2 SWAP1 PUSH2 0x4B8 JUMP JUMPDEST PUSH1 0x40 MLOAD DUP1 SWAP2 SUB SWAP1 RETURN JUMPDEST PUSH1 0x0 PUSH1 0x8 PUSH1 0x1 SWAP1 SLOAD SWAP1 PUSH2 0x100 EXP SWAP1 DIV PUSH1 0xFF AND PUSH1 0x2 DUP2 GT ISZERO PUSH2 0x21C JUMPI PUSH2 0x21B PUSH2 0x37B JUMP JUMPDEST JUMPDEST SWAP1 POP SWAP1 JUMP JUMPDEST PUSH1 0x3 PUSH1 0x0 SWAP1 SLOAD SWAP1 PUSH2 0x100 EXP SWAP1 DIV PUSH20 0xFFFFFFFFFFFFFFFFFFFFFFFFFFFFFFFFFFFFFFFF AND DUP2 JUMP JUMPDEST PUSH1 0x2 SLOAD DUP2 JUMP JUMPDEST PUSH1 0x7 SLOAD DUP2 JUMP JUMPDEST PUSH1 0x8 PUSH1 0x1 SWAP1 SLOAD SWAP1 PUSH2 0x100 EXP SWAP1 DIV PUSH1 0xFF AND DUP2 JUMP JUMPDEST PUSH1 0x1 SLOAD DUP2 JUMP JUMPDEST PUSH1 0x4 PUSH1 0x0 SWAP1 SLOAD SWAP1 PUSH2 0x100 EXP SWAP1 DIV PUSH20 0xFFFFFFFFFFFFFFFFFFFFFFFFFFFFFFFFFFFFFFFF AND DUP2 JUMP JUMPDEST PUSH1 0x0 SLOAD DUP2 JUMP JUMPDEST PUSH1 0x6 SLOAD DUP2 JUMP JUMPDEST PUSH1 0x5 SLOAD DUP2 JUMP JUMPDEST PUSH1 0x8 PUSH1 0x0 SWAP1 SLOAD SWAP1 PUSH2 0x100 EXP SWAP1 DIV PUSH1 0xF8 SHL DUP2 JUMP JUMPDEST PUSH1 0x0 DUP2 SWAP1 POP SWAP2 SWAP1 POP JUMP JUMPDEST PUSH2 0x2CA DUP2 PUSH2 0x2B7 JUMP JUMPDEST DUP3 MSTORE POP POP JUMP JUMPDEST PUSH1 0x0 PUSH1 0x20 DUP3 ADD SWAP1 POP PUSH2 0x2E5 PUSH1 0x0 DUP4 ADD DUP5 PUSH2 0x2C1 JUMP JUMPDEST SWAP3 SWAP2 POP POP JUMP JUMPDEST PUSH1 0x0 PUSH20 0xFFFFFFFFFFFFFFFFFFFFFFFFFFFFFFFFFFFFFFFF DUP3 AND SWAP1 POP SWAP2 SWAP1 POP JUMP JUMPDEST PUSH1 0x0 PUSH2 0x316 DUP3 PUSH2 0x2EB JUMP JUMPDEST SWAP1 POP SWAP2 SWAP1 POP JUMP JUMPDEST PUSH2 0x326 DUP2 PUSH2 0x30B JUMP JUMPDEST DUP3 MSTORE POP POP JUMP JUMPDEST PUSH1 0x0 PUSH1 0x20 DUP3 ADD SWAP1 POP PUSH2 0x341 PUSH1 0x0 DUP4 ADD DUP5 PUSH2 0x31D JUMP JUMPDEST SWAP3 SWAP2 POP POP JUMP JUMPDEST PUSH1 0x0 DUP2 SWAP1 POP SWAP2 SWAP1 POP JUMP JUMPDEST PUSH2 0x35A DUP2 PUSH2 0x347 JUMP JUMPDEST DUP3 MSTORE POP POP JUMP JUMPDEST PUSH1 0x0 PUSH1 0x20 DUP3 ADD SWAP1 POP PUSH2 0x375 PUSH1 0x0 DUP4 ADD DUP5 PUSH2 0x351 JUMP JUMPDEST SWAP3 SWAP2 POP POP JUMP JUMPDEST PUSH32 0x4E487B7100000000000000000000000000000000000000000000000000000000 PUSH1 0x0 MSTORE PUSH1 0x21 PUSH1 0x4 MSTORE PUSH1 0x24 PUSH1 0x0 REVERT JUMPDEST PUSH1 0x3 DUP2 LT PUSH2 0x3BB JUMPI PUSH2 0x3BA PUSH2 0x37B JUMP JUMPDEST JUMPDEST POP JUMP JUMPDEST PUSH1 0x0 DUP2 SWAP1 POP PUSH2 0x3CC DUP3 PUSH2 0x3AA JUMP JUMPDEST SWAP2 SWAP1 POP JUMP JUMPDEST PUSH1 0x0 PUSH2 0x3DC DUP3 PUSH2 0x3BE JUMP JUMPDEST SWAP1 POP SWAP2 SWAP1 POP JUMP JUMPDEST PUSH2 0x3EC DUP2 PUSH2 0x3D1 JUMP JUMPDEST DUP3 MSTORE POP POP JUMP JUMPDEST PUSH1 0x0 PUSH1 0x20 DUP3 ADD SWAP1 POP PUSH2 0x407 PUSH1 0x0 DUP4 ADD DUP5 PUSH2 0x3E3 JUMP JUMPDEST SWAP3 SWAP2 POP POP JUMP JUMPDEST PUSH1 0x0 PUSH2 0x418 DUP3 PUSH2 0x2EB JUMP JUMPDEST SWAP1 POP SWAP2 SWAP1 POP JUMP JUMPDEST PUSH2 0x428 DUP2 PUSH2 0x40D JUMP JUMPDEST DUP3 MSTORE POP POP JUMP JUMPDEST PUSH1 0x0 PUSH1 0x20 DUP3 ADD SWAP1 POP PUSH2 0x443 PUSH1 0x0 DUP4 ADD DUP5 PUSH2 0x41F JUMP JUMPDEST SWAP3 SWAP2 POP POP JUMP JUMPDEST PUSH1 0x0 DUP2 SWAP1 POP SWAP2 SWAP1 POP JUMP JUMPDEST PUSH2 0x45C DUP2 PUSH2 0x449 JUMP JUMPDEST DUP3 MSTORE POP POP JUMP JUMPDEST PUSH1 0x0 PUSH1 0x20 DUP3 ADD SWAP1 POP PUSH2 0x477 PUSH1 0x0 DUP4 ADD DUP5 PUSH2 0x453 JUMP JUMPDEST SWAP3 SWAP2 POP POP JUMP JUMPDEST PUSH1 0x0 PUSH32 0xFF00000000000000000000000000000000000000000000000000000000000000 DUP3 AND SWAP1 POP SWAP2 SWAP1 POP JUMP JUMPDEST PUSH2 0x4B2 DUP2 PUSH2 0x47D JUMP JUMPDEST DUP3 MSTORE POP POP JUMP JUMPDEST PUSH1 0x0 PUSH1 0x20 DUP3 ADD SWAP1 POP PUSH2 0x4CD PUSH1 0x0 DUP4 ADD DUP5 PUSH2 0x4A9 JUMP JUMPDEST SWAP3 SWAP2 POP POP JUMP INVALID LOG2 PUSH5 0x6970667358 0x22 SLT KECCAK256 INVALID SWAP3 CODECOPY 0x4D PUSH4 0x161E7413 SWAP1 SWAP6 GASLIMIT 0xEE SLOAD CALLDATACOPY PUSH18 0x2104196B001ED5AD71BEA3CC2D6C14016473 PUSH16 0x6C634300081200330000000000000000 "
				},
				"gasEstimates": {
					"creation": {
						"codeDepositCost": "257800",
						"executionCost": "243841",
						"totalCost": "501641"
					},
					"external": {
						"_address()": "2537",
						"_address1()": "2536",
						"_byte1()": "2581",
						"_byte32()": "2496",
						"_int()": "2473",
						"_int2()": "2429",
						"_int3()": "2474",
						"balance()": "2495",
						"balance1()": "2517",
						"carset()": "2699",
						"enumToUint()": "2550"
					}
				},
				"methodIdentifiers": {
					"_address()": "18bad217",
					"_address1()": "ac729403",
					"_byte1()": "eac23280",
					"_byte32()": "3f346102",
					"_int()": "af45869e",
					"_int2()": "53e95af9",
					"_int3()": "3c119e34",
					"balance()": "b69ef8a8",
					"balance1()": "c45c4f58",
					"carset()": "42eaad1e",
					"enumToUint()": "01019958"
				}
			},
			"storageLayout": {
				"storage": [
					{
						"astId": 4,
						"contract": "Contract/WTFacademy/Solidity101/train_2.sol:train_2",
						"label": "_int",
						"offset": 0,
						"slot": "0",
						"type": "t_int256"
					},
					{
						"astId": 9,
						"contract": "Contract/WTFacademy/Solidity101/train_2.sol:train_2",
						"label": "_int2",
						"offset": 0,
						"slot": "1",
						"type": "t_uint256"
					},
					{
						"astId": 14,
						"contract": "Contract/WTFacademy/Solidity101/train_2.sol:train_2",
						"label": "_int3",
						"offset": 0,
						"slot": "2",
						"type": "t_uint256"
					},
					{
						"astId": 17,
						"contract": "Contract/WTFacademy/Solidity101/train_2.sol:train_2",
						"label": "_address",
						"offset": 0,
						"slot": "3",
						"type": "t_address"
					},
					{
						"astId": 23,
						"contract": "Contract/WTFacademy/Solidity101/train_2.sol:train_2",
						"label": "_address1",
						"offset": 0,
						"slot": "4",
						"type": "t_address_payable"
					},
					{
						"astId": 27,
						"contract": "Contract/WTFacademy/Solidity101/train_2.sol:train_2",
						"label": "balance1",
						"offset": 0,
						"slot": "5",
						"type": "t_uint256"
					},
					{
						"astId": 31,
						"contract": "Contract/WTFacademy/Solidity101/train_2.sol:train_2",
						"label": "balance",
						"offset": 0,
						"slot": "6",
						"type": "t_uint256"
					},
					{
						"astId": 34,
						"contract": "Contract/WTFacademy/Solidity101/train_2.sol:train_2",
						"label": "_byte32",
						"offset": 0,
						"slot": "7",
						"type": "t_bytes32"
					},
					{
						"astId": 39,
						"contract": "Contract/WTFacademy/Solidity101/train_2.sol:train_2",
						"label": "_byte1",
						"offset": 0,
						"slot": "8",
						"type": "t_bytes1"
					},
					{
						"astId": 48,
						"contract": "Contract/WTFacademy/Solidity101/train_2.sol:train_2",
						"label": "carset",
						"offset": 1,
						"slot": "8",
						"type": "t_enum(CarSet)43"
					}
				],
				"types": {
					"t_address": {
						"encoding": "inplace",
						"label": "address",
						"numberOfBytes": "20"
					},
					"t_address_payable": {
						"encoding": "inplace",
						"label": "address payable",
						"numberOfBytes": "20"
					},
					"t_bytes1": {
						"encoding": "inplace",
						"label": "bytes1",
						"numberOfBytes": "1"
					},
					"t_bytes32": {
						"encoding": "inplace",
						"label": "bytes32",
						"numberOfBytes": "32"
					},
					"t_enum(CarSet)43": {
						"encoding": "inplace",
						"label": "enum train_2.CarSet",
						"numberOfBytes": "1"
					},
					"t_int256": {
						"encoding": "inplace",
						"label": "int256",
						"numberOfBytes": "32"
					},
					"t_uint256": {
						"encoding": "inplace",
						"label": "uint256",
						"numberOfBytes": "32"
					}
				}
			},
			"userdoc": {
				"kind": "user",
				"methods": {},
				"version": 1
			}
		}
	}
}