{
	"Contract/WTFacademy/Solidity102/17_stringLibrary.sol": {
		"Strings": {
			"abi": [
				{
					"inputs": [
						{
							"internalType": "uint256",
							"name": "value",
							"type": "uint256"
						},
						{
							"internalType": "uint256",
							"name": "length",
							"type": "uint256"
						}
					],
					"name": "toHexString",
					"outputs": [
						{
							"internalType": "string",
							"name": "",
							"type": "string"
						}
					],
					"stateMutability": "pure",
					"type": "function"
				},
				{
					"inputs": [
						{
							"internalType": "uint256",
							"name": "value",
							"type": "uint256"
						}
					],
					"name": "toHexString",
					"outputs": [
						{
							"internalType": "string",
							"name": "",
							"type": "string"
						}
					],
					"stateMutability": "pure",
					"type": "function"
				},
				{
					"inputs": [
						{
							"internalType": "uint256",
							"name": "value",
							"type": "uint256"
						}
					],
					"name": "toString",
					"outputs": [
						{
							"internalType": "string",
							"name": "",
							"type": "string"
						}
					],
					"stateMutability": "pure",
					"type": "function"
				}
			],
			"devdoc": {
				"kind": "dev",
				"methods": {
					"toHexString(uint256)": {
						"details": "Converts a `uint256` to its ASCII `string` hexadecimal representation."
					},
					"toHexString(uint256,uint256)": {
						"details": "Converts a `uint256` to its ASCII `string` hexadecimal representation with fixed length."
					},
					"toString(uint256)": {
						"details": "Converts a `uint256` to its ASCII `string` decimal representation."
					}
				},
				"version": 1
			},
			"evm": {
				"assembly": "    /* \"Contract/WTFacademy/Solidity102/17_stringLibrary.sol\":59:1996  library Strings {... */\n  dataSize(sub_0)\n  dataOffset(sub_0)\n  0x0b\n  dup3\n  dup3\n  dup3\n  codecopy\n  dup1\n  mload\n  0x00\n  byte\n  0x73\n  eq\n  tag_1\n  jumpi\n  mstore(0x00, 0x4e487b7100000000000000000000000000000000000000000000000000000000)\n  mstore(0x04, 0x00)\n  revert(0x00, 0x24)\ntag_1:\n  mstore(0x00, address)\n  0x73\n  dup2\n  mstore8\n  dup3\n  dup2\n  return\nstop\n\nsub_0: assembly {\n        /* \"Contract/WTFacademy/Solidity102/17_stringLibrary.sol\":59:1996  library Strings {... */\n      eq(address, deployTimeAddress())\n      mstore(0x40, 0x80)\n      jumpi(tag_1, lt(calldatasize, 0x04))\n      shr(0xe0, calldataload(0x00))\n      dup1\n      0x63e1cbea\n      eq\n      tag_2\n      jumpi\n      dup1\n      0x6900a3ae\n      eq\n      tag_3\n      jumpi\n      dup1\n      0x8fba8d5c\n      eq\n      tag_4\n      jumpi\n    tag_1:\n      0x00\n      dup1\n      revert\n        /* \"Contract/WTFacademy/Solidity102/17_stringLibrary.sol\":1544:1993  function toHexString(uint256 value, uint256 length) public pure returns (string memory) {... */\n    tag_2:\n      tag_5\n      0x04\n      dup1\n      calldatasize\n      sub\n      dup2\n      add\n      swap1\n      tag_6\n      swap2\n      swap1\n      tag_7\n      jump\t// in\n    tag_6:\n      tag_8\n      jump\t// in\n    tag_5:\n      mload(0x40)\n      tag_9\n      swap2\n      swap1\n      tag_10\n      jump\t// in\n    tag_9:\n      mload(0x40)\n      dup1\n      swap2\n      sub\n      swap1\n      return\n        /* \"Contract/WTFacademy/Solidity102/17_stringLibrary.sol\":247:968  function toString(uint256 value) public pure returns (string memory) {... */\n    tag_3:\n      tag_11\n      0x04\n      dup1\n      calldatasize\n      sub\n      dup2\n      add\n      swap1\n      tag_12\n      swap2\n      swap1\n      tag_13\n      jump\t// in\n    tag_12:\n      tag_14\n      jump\t// in\n    tag_11:\n      mload(0x40)\n      tag_15\n      swap2\n      swap1\n      tag_10\n      jump\t// in\n    tag_15:\n      mload(0x40)\n      dup1\n      swap2\n      sub\n      swap1\n      return\n        /* \"Contract/WTFacademy/Solidity102/17_stringLibrary.sol\":1078:1416  function toHexString(uint256 value) public pure returns (string memory) {... */\n    tag_4:\n      tag_16\n      0x04\n      dup1\n      calldatasize\n      sub\n      dup2\n      add\n      swap1\n      tag_17\n      swap2\n      swap1\n      tag_13\n      jump\t// in\n    tag_17:\n      tag_18\n      jump\t// in\n    tag_16:\n      mload(0x40)\n      tag_19\n      swap2\n      swap1\n      tag_10\n      jump\t// in\n    tag_19:\n      mload(0x40)\n      dup1\n      swap2\n      sub\n      swap1\n      return\n        /* \"Contract/WTFacademy/Solidity102/17_stringLibrary.sol\":1544:1993  function toHexString(uint256 value, uint256 length) public pure returns (string memory) {... */\n    tag_8:\n        /* \"Contract/WTFacademy/Solidity102/17_stringLibrary.sol\":1617:1630  string memory */\n      0x60\n        /* \"Contract/WTFacademy/Solidity102/17_stringLibrary.sol\":1643:1662  bytes memory buffer */\n      0x00\n        /* \"Contract/WTFacademy/Solidity102/17_stringLibrary.sol\":1688:1689  2 */\n      0x02\n        /* \"Contract/WTFacademy/Solidity102/17_stringLibrary.sol\":1679:1685  length */\n      dup4\n        /* \"Contract/WTFacademy/Solidity102/17_stringLibrary.sol\":1675:1676  2 */\n      0x02\n        /* \"Contract/WTFacademy/Solidity102/17_stringLibrary.sol\":1675:1685  2 * length */\n      tag_21\n      swap2\n      swap1\n      tag_22\n      jump\t// in\n    tag_21:\n        /* \"Contract/WTFacademy/Solidity102/17_stringLibrary.sol\":1675:1689  2 * length + 2 */\n      tag_23\n      swap2\n      swap1\n      tag_24\n      jump\t// in\n    tag_23:\n        /* \"Contract/WTFacademy/Solidity102/17_stringLibrary.sol\":1665:1690  new bytes(2 * length + 2) */\n      0xffffffffffffffff\n      dup2\n      gt\n      iszero\n      tag_25\n      jumpi\n      tag_26\n      tag_27\n      jump\t// in\n    tag_26:\n    tag_25:\n      mload(0x40)\n      swap1\n      dup1\n      dup3\n      mstore\n      dup1\n      0x1f\n      add\n      not(0x1f)\n      and\n      0x20\n      add\n      dup3\n      add\n      0x40\n      mstore\n      dup1\n      iszero\n      tag_28\n      jumpi\n      dup2\n      0x20\n      add\n      0x01\n      dup3\n      mul\n      dup1\n      calldatasize\n      dup4\n      calldatacopy\n      dup1\n      dup3\n      add\n      swap2\n      pop\n      pop\n      swap1\n      pop\n    tag_28:\n      pop\n        /* \"Contract/WTFacademy/Solidity102/17_stringLibrary.sol\":1643:1690  bytes memory buffer = new bytes(2 * length + 2) */\n      swap1\n      pop\n        /* \"Contract/WTFacademy/Solidity102/17_stringLibrary.sol\":1701:1716  buffer[0] = \"0\" */\n      0x3000000000000000000000000000000000000000000000000000000000000000\n        /* \"Contract/WTFacademy/Solidity102/17_stringLibrary.sol\":1701:1707  buffer */\n      dup2\n        /* \"Contract/WTFacademy/Solidity102/17_stringLibrary.sol\":1708:1709  0 */\n      0x00\n        /* \"Contract/WTFacademy/Solidity102/17_stringLibrary.sol\":1701:1710  buffer[0] */\n      dup2\n      mload\n      dup2\n      lt\n      tag_29\n      jumpi\n      tag_30\n      tag_31\n      jump\t// in\n    tag_30:\n    tag_29:\n      0x20\n      add\n      add\n        /* \"Contract/WTFacademy/Solidity102/17_stringLibrary.sol\":1701:1716  buffer[0] = \"0\" */\n      swap1\n      not(0xffffffffffffffffffffffffffffffffffffffffffffffffffffffffffffff)\n      and\n      swap1\n      dup2\n      0x00\n      byte\n      swap1\n      mstore8\n      pop\n        /* \"Contract/WTFacademy/Solidity102/17_stringLibrary.sol\":1727:1742  buffer[1] = \"x\" */\n      0x7800000000000000000000000000000000000000000000000000000000000000\n        /* \"Contract/WTFacademy/Solidity102/17_stringLibrary.sol\":1727:1733  buffer */\n      dup2\n        /* \"Contract/WTFacademy/Solidity102/17_stringLibrary.sol\":1734:1735  1 */\n      0x01\n        /* \"Contract/WTFacademy/Solidity102/17_stringLibrary.sol\":1727:1736  buffer[1] */\n      dup2\n      mload\n      dup2\n      lt\n      tag_32\n      jumpi\n      tag_33\n      tag_31\n      jump\t// in\n    tag_33:\n    tag_32:\n      0x20\n      add\n      add\n        /* \"Contract/WTFacademy/Solidity102/17_stringLibrary.sol\":1727:1742  buffer[1] = \"x\" */\n      swap1\n      not(0xffffffffffffffffffffffffffffffffffffffffffffffffffffffffffffff)\n      and\n      swap1\n      dup2\n      0x00\n      byte\n      swap1\n      mstore8\n      pop\n        /* \"Contract/WTFacademy/Solidity102/17_stringLibrary.sol\":1758:1767  uint256 i */\n      0x00\n        /* \"Contract/WTFacademy/Solidity102/17_stringLibrary.sol\":1783:1784  1 */\n      0x01\n        /* \"Contract/WTFacademy/Solidity102/17_stringLibrary.sol\":1774:1780  length */\n      dup5\n        /* \"Contract/WTFacademy/Solidity102/17_stringLibrary.sol\":1770:1771  2 */\n      0x02\n        /* \"Contract/WTFacademy/Solidity102/17_stringLibrary.sol\":1770:1780  2 * length */\n      tag_37\n      swap2\n      swap1\n      tag_22\n      jump\t// in\n    tag_37:\n        /* \"Contract/WTFacademy/Solidity102/17_stringLibrary.sol\":1770:1784  2 * length + 1 */\n      tag_38\n      swap2\n      swap1\n      tag_24\n      jump\t// in\n    tag_38:\n        /* \"Contract/WTFacademy/Solidity102/17_stringLibrary.sol\":1758:1784  uint256 i = 2 * length + 1 */\n      swap1\n      pop\n        /* \"Contract/WTFacademy/Solidity102/17_stringLibrary.sol\":1753:1888  for (uint256 i = 2 * length + 1; i > 1; --i) {... */\n    tag_34:\n        /* \"Contract/WTFacademy/Solidity102/17_stringLibrary.sol\":1790:1791  1 */\n      0x01\n        /* \"Contract/WTFacademy/Solidity102/17_stringLibrary.sol\":1786:1787  i */\n      dup2\n        /* \"Contract/WTFacademy/Solidity102/17_stringLibrary.sol\":1786:1791  i > 1 */\n      gt\n        /* \"Contract/WTFacademy/Solidity102/17_stringLibrary.sol\":1753:1888  for (uint256 i = 2 * length + 1; i > 1; --i) {... */\n      iszero\n      tag_35\n      jumpi\n        /* \"Contract/WTFacademy/Solidity102/17_stringLibrary.sol\":1825:1837  _HEX_SYMBOLS */\n      0x3031323334353637383961626364656600000000000000000000000000000000\n        /* \"Contract/WTFacademy/Solidity102/17_stringLibrary.sol\":1846:1849  0xf */\n      0x0f\n        /* \"Contract/WTFacademy/Solidity102/17_stringLibrary.sol\":1838:1843  value */\n      dup7\n        /* \"Contract/WTFacademy/Solidity102/17_stringLibrary.sol\":1838:1849  value & 0xf */\n      and\n        /* \"Contract/WTFacademy/Solidity102/17_stringLibrary.sol\":1825:1850  _HEX_SYMBOLS[value & 0xf] */\n      0x10\n      dup2\n      lt\n      tag_39\n      jumpi\n      tag_40\n      tag_31\n      jump\t// in\n    tag_40:\n    tag_39:\n      byte\n      0xf8\n      shl\n        /* \"Contract/WTFacademy/Solidity102/17_stringLibrary.sol\":1813:1819  buffer */\n      dup3\n        /* \"Contract/WTFacademy/Solidity102/17_stringLibrary.sol\":1820:1821  i */\n      dup3\n        /* \"Contract/WTFacademy/Solidity102/17_stringLibrary.sol\":1813:1822  buffer[i] */\n      dup2\n      mload\n      dup2\n      lt\n      tag_41\n      jumpi\n      tag_42\n      tag_31\n      jump\t// in\n    tag_42:\n    tag_41:\n      0x20\n      add\n      add\n        /* \"Contract/WTFacademy/Solidity102/17_stringLibrary.sol\":1813:1850  buffer[i] = _HEX_SYMBOLS[value & 0xf] */\n      swap1\n      not(0xffffffffffffffffffffffffffffffffffffffffffffffffffffffffffffff)\n      and\n      swap1\n      dup2\n      0x00\n      byte\n      swap1\n      mstore8\n      pop\n        /* \"Contract/WTFacademy/Solidity102/17_stringLibrary.sol\":1875:1876  4 */\n      0x04\n        /* \"Contract/WTFacademy/Solidity102/17_stringLibrary.sol\":1865:1876  value >>= 4 */\n      dup6\n      swap1\n      shr\n      swap5\n      pop\n        /* \"Contract/WTFacademy/Solidity102/17_stringLibrary.sol\":1793:1796  --i */\n      dup1\n      tag_43\n      swap1\n      tag_44\n      jump\t// in\n    tag_43:\n      swap1\n      pop\n        /* \"Contract/WTFacademy/Solidity102/17_stringLibrary.sol\":1753:1888  for (uint256 i = 2 * length + 1; i > 1; --i) {... */\n      jump(tag_34)\n    tag_35:\n      pop\n        /* \"Contract/WTFacademy/Solidity102/17_stringLibrary.sol\":1915:1916  0 */\n      0x00\n        /* \"Contract/WTFacademy/Solidity102/17_stringLibrary.sol\":1906:1911  value */\n      dup5\n        /* \"Contract/WTFacademy/Solidity102/17_stringLibrary.sol\":1906:1916  value == 0 */\n      eq\n        /* \"Contract/WTFacademy/Solidity102/17_stringLibrary.sol\":1898:1953  require(value == 0, \"Strings: hex length insufficient\") */\n      tag_45\n      jumpi\n      mload(0x40)\n      0x08c379a000000000000000000000000000000000000000000000000000000000\n      dup2\n      mstore\n      0x04\n      add\n      tag_46\n      swap1\n      tag_47\n      jump\t// in\n    tag_46:\n      mload(0x40)\n      dup1\n      swap2\n      sub\n      swap1\n      revert\n    tag_45:\n        /* \"Contract/WTFacademy/Solidity102/17_stringLibrary.sol\":1978:1984  buffer */\n      dup1\n        /* \"Contract/WTFacademy/Solidity102/17_stringLibrary.sol\":1964:1985  return string(buffer) */\n      swap2\n      pop\n      pop\n        /* \"Contract/WTFacademy/Solidity102/17_stringLibrary.sol\":1544:1993  function toHexString(uint256 value, uint256 length) public pure returns (string memory) {... */\n      swap3\n      swap2\n      pop\n      pop\n      jump\t// out\n        /* \"Contract/WTFacademy/Solidity102/17_stringLibrary.sol\":247:968  function toString(uint256 value) public pure returns (string memory) {... */\n    tag_14:\n        /* \"Contract/WTFacademy/Solidity102/17_stringLibrary.sol\":301:314  string memory */\n      0x60\n        /* \"Contract/WTFacademy/Solidity102/17_stringLibrary.sol\":531:532  0 */\n      0x00\n        /* \"Contract/WTFacademy/Solidity102/17_stringLibrary.sol\":522:527  value */\n      dup3\n        /* \"Contract/WTFacademy/Solidity102/17_stringLibrary.sol\":522:532  value == 0 */\n      sub\n        /* \"Contract/WTFacademy/Solidity102/17_stringLibrary.sol\":518:571  if (value == 0) {... */\n      tag_49\n      jumpi\n        /* \"Contract/WTFacademy/Solidity102/17_stringLibrary.sol\":549:559  return \"0\" */\n      mload(0x40)\n      dup1\n      0x40\n      add\n      0x40\n      mstore\n      dup1\n      0x01\n      dup2\n      mstore\n      0x20\n      add\n      0x3000000000000000000000000000000000000000000000000000000000000000\n      dup2\n      mstore\n      pop\n      swap1\n      pop\n      jump(tag_48)\n        /* \"Contract/WTFacademy/Solidity102/17_stringLibrary.sol\":518:571  if (value == 0) {... */\n    tag_49:\n        /* \"Contract/WTFacademy/Solidity102/17_stringLibrary.sol\":581:593  uint256 temp */\n      0x00\n        /* \"Contract/WTFacademy/Solidity102/17_stringLibrary.sol\":596:601  value */\n      dup3\n        /* \"Contract/WTFacademy/Solidity102/17_stringLibrary.sol\":581:601  uint256 temp = value */\n      swap1\n      pop\n        /* \"Contract/WTFacademy/Solidity102/17_stringLibrary.sol\":612:626  uint256 digits */\n      0x00\n        /* \"Contract/WTFacademy/Solidity102/17_stringLibrary.sol\":637:715  while (temp != 0) {... */\n    tag_50:\n        /* \"Contract/WTFacademy/Solidity102/17_stringLibrary.sol\":652:653  0 */\n      0x00\n        /* \"Contract/WTFacademy/Solidity102/17_stringLibrary.sol\":644:648  temp */\n      dup3\n        /* \"Contract/WTFacademy/Solidity102/17_stringLibrary.sol\":644:653  temp != 0 */\n      eq\n        /* \"Contract/WTFacademy/Solidity102/17_stringLibrary.sol\":637:715  while (temp != 0) {... */\n      tag_51\n      jumpi\n        /* \"Contract/WTFacademy/Solidity102/17_stringLibrary.sol\":670:678  digits++ */\n      dup1\n      dup1\n      tag_52\n      swap1\n      tag_53\n      jump\t// in\n    tag_52:\n      swap2\n      pop\n      pop\n        /* \"Contract/WTFacademy/Solidity102/17_stringLibrary.sol\":701:703  10 */\n      0x0a\n        /* \"Contract/WTFacademy/Solidity102/17_stringLibrary.sol\":693:703  temp /= 10 */\n      dup3\n      tag_54\n      swap2\n      swap1\n      tag_55\n      jump\t// in\n    tag_54:\n      swap2\n      pop\n        /* \"Contract/WTFacademy/Solidity102/17_stringLibrary.sol\":637:715  while (temp != 0) {... */\n      jump(tag_50)\n    tag_51:\n        /* \"Contract/WTFacademy/Solidity102/17_stringLibrary.sol\":725:744  bytes memory buffer */\n      0x00\n        /* \"Contract/WTFacademy/Solidity102/17_stringLibrary.sol\":757:763  digits */\n      dup2\n        /* \"Contract/WTFacademy/Solidity102/17_stringLibrary.sol\":747:764  new bytes(digits) */\n      0xffffffffffffffff\n      dup2\n      gt\n      iszero\n      tag_56\n      jumpi\n      tag_57\n      tag_27\n      jump\t// in\n    tag_57:\n    tag_56:\n      mload(0x40)\n      swap1\n      dup1\n      dup3\n      mstore\n      dup1\n      0x1f\n      add\n      not(0x1f)\n      and\n      0x20\n      add\n      dup3\n      add\n      0x40\n      mstore\n      dup1\n      iszero\n      tag_58\n      jumpi\n      dup2\n      0x20\n      add\n      0x01\n      dup3\n      mul\n      dup1\n      calldatasize\n      dup4\n      calldatacopy\n      dup1\n      dup3\n      add\n      swap2\n      pop\n      pop\n      swap1\n      pop\n    tag_58:\n      pop\n        /* \"Contract/WTFacademy/Solidity102/17_stringLibrary.sol\":725:764  bytes memory buffer = new bytes(digits) */\n      swap1\n      pop\n        /* \"Contract/WTFacademy/Solidity102/17_stringLibrary.sol\":775:929  while (value != 0) {... */\n    tag_59:\n        /* \"Contract/WTFacademy/Solidity102/17_stringLibrary.sol\":791:792  0 */\n      0x00\n        /* \"Contract/WTFacademy/Solidity102/17_stringLibrary.sol\":782:787  value */\n      dup6\n        /* \"Contract/WTFacademy/Solidity102/17_stringLibrary.sol\":782:792  value != 0 */\n      eq\n        /* \"Contract/WTFacademy/Solidity102/17_stringLibrary.sol\":775:929  while (value != 0) {... */\n      tag_60\n      jumpi\n        /* \"Contract/WTFacademy/Solidity102/17_stringLibrary.sol\":819:820  1 */\n      0x01\n        /* \"Contract/WTFacademy/Solidity102/17_stringLibrary.sol\":809:820  digits -= 1 */\n      dup3\n      tag_61\n      swap2\n      swap1\n      tag_62\n      jump\t// in\n    tag_61:\n      swap2\n      pop\n        /* \"Contract/WTFacademy/Solidity102/17_stringLibrary.sol\":886:888  10 */\n      0x0a\n        /* \"Contract/WTFacademy/Solidity102/17_stringLibrary.sol\":878:883  value */\n      dup6\n        /* \"Contract/WTFacademy/Solidity102/17_stringLibrary.sol\":878:888  value % 10 */\n      tag_63\n      swap2\n      swap1\n      tag_64\n      jump\t// in\n    tag_63:\n        /* \"Contract/WTFacademy/Solidity102/17_stringLibrary.sol\":865:867  48 */\n      0x30\n        /* \"Contract/WTFacademy/Solidity102/17_stringLibrary.sol\":865:889  48 + uint256(value % 10) */\n      tag_65\n      swap2\n      swap1\n      tag_24\n      jump\t// in\n    tag_65:\n        /* \"Contract/WTFacademy/Solidity102/17_stringLibrary.sol\":852:891  bytes1(uint8(48 + uint256(value % 10))) */\n      0xf8\n      shl\n        /* \"Contract/WTFacademy/Solidity102/17_stringLibrary.sol\":835:841  buffer */\n      dup2\n        /* \"Contract/WTFacademy/Solidity102/17_stringLibrary.sol\":842:848  digits */\n      dup4\n        /* \"Contract/WTFacademy/Solidity102/17_stringLibrary.sol\":835:849  buffer[digits] */\n      dup2\n      mload\n      dup2\n      lt\n      tag_66\n      jumpi\n      tag_67\n      tag_31\n      jump\t// in\n    tag_67:\n    tag_66:\n      0x20\n      add\n      add\n        /* \"Contract/WTFacademy/Solidity102/17_stringLibrary.sol\":835:891  buffer[digits] = bytes1(uint8(48 + uint256(value % 10))) */\n      swap1\n      not(0xffffffffffffffffffffffffffffffffffffffffffffffffffffffffffffff)\n      and\n      swap1\n      dup2\n      0x00\n      byte\n      swap1\n      mstore8\n      pop\n        /* \"Contract/WTFacademy/Solidity102/17_stringLibrary.sol\":915:917  10 */\n      0x0a\n        /* \"Contract/WTFacademy/Solidity102/17_stringLibrary.sol\":906:917  value /= 10 */\n      dup6\n      tag_68\n      swap2\n      swap1\n      tag_55\n      jump\t// in\n    tag_68:\n      swap5\n      pop\n        /* \"Contract/WTFacademy/Solidity102/17_stringLibrary.sol\":775:929  while (value != 0) {... */\n      jump(tag_59)\n    tag_60:\n        /* \"Contract/WTFacademy/Solidity102/17_stringLibrary.sol\":953:959  buffer */\n      dup1\n        /* \"Contract/WTFacademy/Solidity102/17_stringLibrary.sol\":939:960  return string(buffer) */\n      swap4\n      pop\n      pop\n      pop\n      pop\n        /* \"Contract/WTFacademy/Solidity102/17_stringLibrary.sol\":247:968  function toString(uint256 value) public pure returns (string memory) {... */\n    tag_48:\n      swap2\n      swap1\n      pop\n      jump\t// out\n        /* \"Contract/WTFacademy/Solidity102/17_stringLibrary.sol\":1078:1416  function toHexString(uint256 value) public pure returns (string memory) {... */\n    tag_18:\n        /* \"Contract/WTFacademy/Solidity102/17_stringLibrary.sol\":1135:1148  string memory */\n      0x60\n        /* \"Contract/WTFacademy/Solidity102/17_stringLibrary.sol\":1174:1175  0 */\n      0x00\n        /* \"Contract/WTFacademy/Solidity102/17_stringLibrary.sol\":1165:1170  value */\n      dup3\n        /* \"Contract/WTFacademy/Solidity102/17_stringLibrary.sol\":1165:1175  value == 0 */\n      sub\n        /* \"Contract/WTFacademy/Solidity102/17_stringLibrary.sol\":1161:1217  if (value == 0) {... */\n      tag_70\n      jumpi\n        /* \"Contract/WTFacademy/Solidity102/17_stringLibrary.sol\":1192:1205  return \"0x00\" */\n      mload(0x40)\n      dup1\n      0x40\n      add\n      0x40\n      mstore\n      dup1\n      0x04\n      dup2\n      mstore\n      0x20\n      add\n      0x3078303000000000000000000000000000000000000000000000000000000000\n      dup2\n      mstore\n      pop\n      swap1\n      pop\n      jump(tag_69)\n        /* \"Contract/WTFacademy/Solidity102/17_stringLibrary.sol\":1161:1217  if (value == 0) {... */\n    tag_70:\n        /* \"Contract/WTFacademy/Solidity102/17_stringLibrary.sol\":1227:1239  uint256 temp */\n      0x00\n        /* \"Contract/WTFacademy/Solidity102/17_stringLibrary.sol\":1242:1247  value */\n      dup3\n        /* \"Contract/WTFacademy/Solidity102/17_stringLibrary.sol\":1227:1247  uint256 temp = value */\n      swap1\n      pop\n        /* \"Contract/WTFacademy/Solidity102/17_stringLibrary.sol\":1258:1272  uint256 length */\n      0x00\n        /* \"Contract/WTFacademy/Solidity102/17_stringLibrary.sol\":1287:1365  while (temp != 0) {... */\n    tag_71:\n        /* \"Contract/WTFacademy/Solidity102/17_stringLibrary.sol\":1302:1303  0 */\n      0x00\n        /* \"Contract/WTFacademy/Solidity102/17_stringLibrary.sol\":1294:1298  temp */\n      dup3\n        /* \"Contract/WTFacademy/Solidity102/17_stringLibrary.sol\":1294:1303  temp != 0 */\n      eq\n        /* \"Contract/WTFacademy/Solidity102/17_stringLibrary.sol\":1287:1365  while (temp != 0) {... */\n      tag_72\n      jumpi\n        /* \"Contract/WTFacademy/Solidity102/17_stringLibrary.sol\":1320:1328  length++ */\n      dup1\n      dup1\n      tag_73\n      swap1\n      tag_53\n      jump\t// in\n    tag_73:\n      swap2\n      pop\n      pop\n        /* \"Contract/WTFacademy/Solidity102/17_stringLibrary.sol\":1352:1353  8 */\n      0x08\n        /* \"Contract/WTFacademy/Solidity102/17_stringLibrary.sol\":1343:1353  temp >>= 8 */\n      dup3\n      swap1\n      shr\n      swap2\n      pop\n        /* \"Contract/WTFacademy/Solidity102/17_stringLibrary.sol\":1287:1365  while (temp != 0) {... */\n      jump(tag_71)\n    tag_72:\n        /* \"Contract/WTFacademy/Solidity102/17_stringLibrary.sol\":1382:1408  toHexString(value, length) */\n      tag_74\n        /* \"Contract/WTFacademy/Solidity102/17_stringLibrary.sol\":1394:1399  value */\n      dup5\n        /* \"Contract/WTFacademy/Solidity102/17_stringLibrary.sol\":1401:1407  length */\n      dup3\n        /* \"Contract/WTFacademy/Solidity102/17_stringLibrary.sol\":1382:1393  toHexString */\n      tag_8\n        /* \"Contract/WTFacademy/Solidity102/17_stringLibrary.sol\":1382:1408  toHexString(value, length) */\n      jump\t// in\n    tag_74:\n        /* \"Contract/WTFacademy/Solidity102/17_stringLibrary.sol\":1375:1408  return toHexString(value, length) */\n      swap3\n      pop\n      pop\n      pop\n        /* \"Contract/WTFacademy/Solidity102/17_stringLibrary.sol\":1078:1416  function toHexString(uint256 value) public pure returns (string memory) {... */\n    tag_69:\n      swap2\n      swap1\n      pop\n      jump\t// out\n        /* \"#utility.yul\":88:205   */\n    tag_76:\n        /* \"#utility.yul\":197:198   */\n      0x00\n        /* \"#utility.yul\":194:195   */\n      dup1\n        /* \"#utility.yul\":187:199   */\n      revert\n        /* \"#utility.yul\":334:411   */\n    tag_78:\n        /* \"#utility.yul\":371:378   */\n      0x00\n        /* \"#utility.yul\":400:405   */\n      dup2\n        /* \"#utility.yul\":389:405   */\n      swap1\n      pop\n        /* \"#utility.yul\":334:411   */\n      swap2\n      swap1\n      pop\n      jump\t// out\n        /* \"#utility.yul\":417:539   */\n    tag_79:\n        /* \"#utility.yul\":490:514   */\n      tag_97\n        /* \"#utility.yul\":508:513   */\n      dup2\n        /* \"#utility.yul\":490:514   */\n      tag_78\n      jump\t// in\n    tag_97:\n        /* \"#utility.yul\":483:488   */\n      dup2\n        /* \"#utility.yul\":480:515   */\n      eq\n        /* \"#utility.yul\":470:533   */\n      tag_98\n      jumpi\n        /* \"#utility.yul\":529:530   */\n      0x00\n        /* \"#utility.yul\":526:527   */\n      dup1\n        /* \"#utility.yul\":519:531   */\n      revert\n        /* \"#utility.yul\":470:533   */\n    tag_98:\n        /* \"#utility.yul\":417:539   */\n      pop\n      jump\t// out\n        /* \"#utility.yul\":545:684   */\n    tag_80:\n        /* \"#utility.yul\":591:596   */\n      0x00\n        /* \"#utility.yul\":629:635   */\n      dup2\n        /* \"#utility.yul\":616:636   */\n      calldataload\n        /* \"#utility.yul\":607:636   */\n      swap1\n      pop\n        /* \"#utility.yul\":645:678   */\n      tag_100\n        /* \"#utility.yul\":672:677   */\n      dup2\n        /* \"#utility.yul\":645:678   */\n      tag_79\n      jump\t// in\n    tag_100:\n        /* \"#utility.yul\":545:684   */\n      swap3\n      swap2\n      pop\n      pop\n      jump\t// out\n        /* \"#utility.yul\":690:1164   */\n    tag_7:\n        /* \"#utility.yul\":758:764   */\n      0x00\n        /* \"#utility.yul\":766:772   */\n      dup1\n        /* \"#utility.yul\":815:817   */\n      0x40\n        /* \"#utility.yul\":803:812   */\n      dup4\n        /* \"#utility.yul\":794:801   */\n      dup6\n        /* \"#utility.yul\":790:813   */\n      sub\n        /* \"#utility.yul\":786:818   */\n      slt\n        /* \"#utility.yul\":783:902   */\n      iszero\n      tag_102\n      jumpi\n        /* \"#utility.yul\":821:900   */\n      tag_103\n      tag_76\n      jump\t// in\n    tag_103:\n        /* \"#utility.yul\":783:902   */\n    tag_102:\n        /* \"#utility.yul\":941:942   */\n      0x00\n        /* \"#utility.yul\":966:1019   */\n      tag_104\n        /* \"#utility.yul\":1011:1018   */\n      dup6\n        /* \"#utility.yul\":1002:1008   */\n      dup3\n        /* \"#utility.yul\":991:1000   */\n      dup7\n        /* \"#utility.yul\":987:1009   */\n      add\n        /* \"#utility.yul\":966:1019   */\n      tag_80\n      jump\t// in\n    tag_104:\n        /* \"#utility.yul\":956:1019   */\n      swap3\n      pop\n        /* \"#utility.yul\":912:1029   */\n      pop\n        /* \"#utility.yul\":1068:1070   */\n      0x20\n        /* \"#utility.yul\":1094:1147   */\n      tag_105\n        /* \"#utility.yul\":1139:1146   */\n      dup6\n        /* \"#utility.yul\":1130:1136   */\n      dup3\n        /* \"#utility.yul\":1119:1128   */\n      dup7\n        /* \"#utility.yul\":1115:1137   */\n      add\n        /* \"#utility.yul\":1094:1147   */\n      tag_80\n      jump\t// in\n    tag_105:\n        /* \"#utility.yul\":1084:1147   */\n      swap2\n      pop\n        /* \"#utility.yul\":1039:1157   */\n      pop\n        /* \"#utility.yul\":690:1164   */\n      swap3\n      pop\n      swap3\n      swap1\n      pop\n      jump\t// out\n        /* \"#utility.yul\":1170:1269   */\n    tag_81:\n        /* \"#utility.yul\":1222:1228   */\n      0x00\n        /* \"#utility.yul\":1256:1261   */\n      dup2\n        /* \"#utility.yul\":1250:1262   */\n      mload\n        /* \"#utility.yul\":1240:1262   */\n      swap1\n      pop\n        /* \"#utility.yul\":1170:1269   */\n      swap2\n      swap1\n      pop\n      jump\t// out\n        /* \"#utility.yul\":1275:1452   */\n    tag_82:\n        /* \"#utility.yul\":1367:1378   */\n      0x00\n        /* \"#utility.yul\":1401:1407   */\n      dup3\n        /* \"#utility.yul\":1396:1399   */\n      dup3\n        /* \"#utility.yul\":1389:1408   */\n      mstore\n        /* \"#utility.yul\":1441:1445   */\n      0x20\n        /* \"#utility.yul\":1436:1439   */\n      dup3\n        /* \"#utility.yul\":1432:1446   */\n      add\n        /* \"#utility.yul\":1417:1446   */\n      swap1\n      pop\n        /* \"#utility.yul\":1275:1452   */\n      swap3\n      swap2\n      pop\n      pop\n      jump\t// out\n        /* \"#utility.yul\":1458:1704   */\n    tag_83:\n        /* \"#utility.yul\":1539:1540   */\n      0x00\n        /* \"#utility.yul\":1549:1662   */\n    tag_109:\n        /* \"#utility.yul\":1563:1569   */\n      dup4\n        /* \"#utility.yul\":1560:1561   */\n      dup2\n        /* \"#utility.yul\":1557:1570   */\n      lt\n        /* \"#utility.yul\":1549:1662   */\n      iszero\n      tag_111\n      jumpi\n        /* \"#utility.yul\":1648:1649   */\n      dup1\n        /* \"#utility.yul\":1643:1646   */\n      dup3\n        /* \"#utility.yul\":1639:1650   */\n      add\n        /* \"#utility.yul\":1633:1651   */\n      mload\n        /* \"#utility.yul\":1629:1630   */\n      dup2\n        /* \"#utility.yul\":1624:1627   */\n      dup5\n        /* \"#utility.yul\":1620:1631   */\n      add\n        /* \"#utility.yul\":1613:1652   */\n      mstore\n        /* \"#utility.yul\":1585:1587   */\n      0x20\n        /* \"#utility.yul\":1582:1583   */\n      dup2\n        /* \"#utility.yul\":1578:1588   */\n      add\n        /* \"#utility.yul\":1573:1588   */\n      swap1\n      pop\n        /* \"#utility.yul\":1549:1662   */\n      jump(tag_109)\n    tag_111:\n        /* \"#utility.yul\":1696:1697   */\n      0x00\n        /* \"#utility.yul\":1687:1693   */\n      dup5\n        /* \"#utility.yul\":1682:1685   */\n      dup5\n        /* \"#utility.yul\":1678:1694   */\n      add\n        /* \"#utility.yul\":1671:1698   */\n      mstore\n        /* \"#utility.yul\":1520:1704   */\n      pop\n        /* \"#utility.yul\":1458:1704   */\n      pop\n      pop\n      pop\n      jump\t// out\n        /* \"#utility.yul\":1710:1812   */\n    tag_84:\n        /* \"#utility.yul\":1751:1757   */\n      0x00\n        /* \"#utility.yul\":1802:1804   */\n      0x1f\n        /* \"#utility.yul\":1798:1805   */\n      not\n        /* \"#utility.yul\":1793:1795   */\n      0x1f\n        /* \"#utility.yul\":1786:1791   */\n      dup4\n        /* \"#utility.yul\":1782:1796   */\n      add\n        /* \"#utility.yul\":1778:1806   */\n      and\n        /* \"#utility.yul\":1768:1806   */\n      swap1\n      pop\n        /* \"#utility.yul\":1710:1812   */\n      swap2\n      swap1\n      pop\n      jump\t// out\n        /* \"#utility.yul\":1818:2211   */\n    tag_85:\n        /* \"#utility.yul\":1914:1917   */\n      0x00\n        /* \"#utility.yul\":1942:1981   */\n      tag_114\n        /* \"#utility.yul\":1975:1980   */\n      dup3\n        /* \"#utility.yul\":1942:1981   */\n      tag_81\n      jump\t// in\n    tag_114:\n        /* \"#utility.yul\":1997:2076   */\n      tag_115\n        /* \"#utility.yul\":2069:2075   */\n      dup2\n        /* \"#utility.yul\":2064:2067   */\n      dup6\n        /* \"#utility.yul\":1997:2076   */\n      tag_82\n      jump\t// in\n    tag_115:\n        /* \"#utility.yul\":1990:2076   */\n      swap4\n      pop\n        /* \"#utility.yul\":2085:2150   */\n      tag_116\n        /* \"#utility.yul\":2143:2149   */\n      dup2\n        /* \"#utility.yul\":2138:2141   */\n      dup6\n        /* \"#utility.yul\":2131:2135   */\n      0x20\n        /* \"#utility.yul\":2124:2129   */\n      dup7\n        /* \"#utility.yul\":2120:2136   */\n      add\n        /* \"#utility.yul\":2085:2150   */\n      tag_83\n      jump\t// in\n    tag_116:\n        /* \"#utility.yul\":2175:2204   */\n      tag_117\n        /* \"#utility.yul\":2197:2203   */\n      dup2\n        /* \"#utility.yul\":2175:2204   */\n      tag_84\n      jump\t// in\n    tag_117:\n        /* \"#utility.yul\":2170:2173   */\n      dup5\n        /* \"#utility.yul\":2166:2205   */\n      add\n        /* \"#utility.yul\":2159:2205   */\n      swap2\n      pop\n        /* \"#utility.yul\":1918:2211   */\n      pop\n        /* \"#utility.yul\":1818:2211   */\n      swap3\n      swap2\n      pop\n      pop\n      jump\t// out\n        /* \"#utility.yul\":2217:2546   */\n    tag_10:\n        /* \"#utility.yul\":2338:2342   */\n      0x00\n        /* \"#utility.yul\":2376:2378   */\n      0x20\n        /* \"#utility.yul\":2365:2374   */\n      dup3\n        /* \"#utility.yul\":2361:2379   */\n      add\n        /* \"#utility.yul\":2353:2379   */\n      swap1\n      pop\n        /* \"#utility.yul\":2425:2434   */\n      dup2\n        /* \"#utility.yul\":2419:2423   */\n      dup2\n        /* \"#utility.yul\":2415:2435   */\n      sub\n        /* \"#utility.yul\":2411:2412   */\n      0x00\n        /* \"#utility.yul\":2400:2409   */\n      dup4\n        /* \"#utility.yul\":2396:2413   */\n      add\n        /* \"#utility.yul\":2389:2436   */\n      mstore\n        /* \"#utility.yul\":2453:2539   */\n      tag_119\n        /* \"#utility.yul\":2534:2538   */\n      dup2\n        /* \"#utility.yul\":2525:2531   */\n      dup5\n        /* \"#utility.yul\":2453:2539   */\n      tag_85\n      jump\t// in\n    tag_119:\n        /* \"#utility.yul\":2445:2539   */\n      swap1\n      pop\n        /* \"#utility.yul\":2217:2546   */\n      swap3\n      swap2\n      pop\n      pop\n      jump\t// out\n        /* \"#utility.yul\":2552:2881   */\n    tag_13:\n        /* \"#utility.yul\":2611:2617   */\n      0x00\n        /* \"#utility.yul\":2660:2662   */\n      0x20\n        /* \"#utility.yul\":2648:2657   */\n      dup3\n        /* \"#utility.yul\":2639:2646   */\n      dup5\n        /* \"#utility.yul\":2635:2658   */\n      sub\n        /* \"#utility.yul\":2631:2663   */\n      slt\n        /* \"#utility.yul\":2628:2747   */\n      iszero\n      tag_121\n      jumpi\n        /* \"#utility.yul\":2666:2745   */\n      tag_122\n      tag_76\n      jump\t// in\n    tag_122:\n        /* \"#utility.yul\":2628:2747   */\n    tag_121:\n        /* \"#utility.yul\":2786:2787   */\n      0x00\n        /* \"#utility.yul\":2811:2864   */\n      tag_123\n        /* \"#utility.yul\":2856:2863   */\n      dup5\n        /* \"#utility.yul\":2847:2853   */\n      dup3\n        /* \"#utility.yul\":2836:2845   */\n      dup6\n        /* \"#utility.yul\":2832:2854   */\n      add\n        /* \"#utility.yul\":2811:2864   */\n      tag_80\n      jump\t// in\n    tag_123:\n        /* \"#utility.yul\":2801:2864   */\n      swap2\n      pop\n        /* \"#utility.yul\":2757:2874   */\n      pop\n        /* \"#utility.yul\":2552:2881   */\n      swap3\n      swap2\n      pop\n      pop\n      jump\t// out\n        /* \"#utility.yul\":2887:3067   */\n    tag_86:\n        /* \"#utility.yul\":2935:3012   */\n      0x4e487b7100000000000000000000000000000000000000000000000000000000\n        /* \"#utility.yul\":2932:2933   */\n      0x00\n        /* \"#utility.yul\":2925:3013   */\n      mstore\n        /* \"#utility.yul\":3032:3036   */\n      0x11\n        /* \"#utility.yul\":3029:3030   */\n      0x04\n        /* \"#utility.yul\":3022:3037   */\n      mstore\n        /* \"#utility.yul\":3056:3060   */\n      0x24\n        /* \"#utility.yul\":3053:3054   */\n      0x00\n        /* \"#utility.yul\":3046:3061   */\n      revert\n        /* \"#utility.yul\":3073:3483   */\n    tag_22:\n        /* \"#utility.yul\":3113:3120   */\n      0x00\n        /* \"#utility.yul\":3136:3156   */\n      tag_126\n        /* \"#utility.yul\":3154:3155   */\n      dup3\n        /* \"#utility.yul\":3136:3156   */\n      tag_78\n      jump\t// in\n    tag_126:\n        /* \"#utility.yul\":3131:3156   */\n      swap2\n      pop\n        /* \"#utility.yul\":3170:3190   */\n      tag_127\n        /* \"#utility.yul\":3188:3189   */\n      dup4\n        /* \"#utility.yul\":3170:3190   */\n      tag_78\n      jump\t// in\n    tag_127:\n        /* \"#utility.yul\":3165:3190   */\n      swap3\n      pop\n        /* \"#utility.yul\":3225:3226   */\n      dup3\n        /* \"#utility.yul\":3222:3223   */\n      dup3\n        /* \"#utility.yul\":3218:3227   */\n      mul\n        /* \"#utility.yul\":3247:3277   */\n      tag_128\n        /* \"#utility.yul\":3265:3276   */\n      dup2\n        /* \"#utility.yul\":3247:3277   */\n      tag_78\n      jump\t// in\n    tag_128:\n        /* \"#utility.yul\":3236:3277   */\n      swap2\n      pop\n        /* \"#utility.yul\":3426:3427   */\n      dup3\n        /* \"#utility.yul\":3417:3424   */\n      dup3\n        /* \"#utility.yul\":3413:3428   */\n      div\n        /* \"#utility.yul\":3410:3411   */\n      dup5\n        /* \"#utility.yul\":3407:3429   */\n      eq\n        /* \"#utility.yul\":3387:3388   */\n      dup4\n        /* \"#utility.yul\":3380:3389   */\n      iszero\n        /* \"#utility.yul\":3360:3443   */\n      or\n        /* \"#utility.yul\":3337:3476   */\n      tag_129\n      jumpi\n        /* \"#utility.yul\":3456:3474   */\n      tag_130\n      tag_86\n      jump\t// in\n    tag_130:\n        /* \"#utility.yul\":3337:3476   */\n    tag_129:\n        /* \"#utility.yul\":3121:3483   */\n      pop\n        /* \"#utility.yul\":3073:3483   */\n      swap3\n      swap2\n      pop\n      pop\n      jump\t// out\n        /* \"#utility.yul\":3489:3680   */\n    tag_24:\n        /* \"#utility.yul\":3529:3532   */\n      0x00\n        /* \"#utility.yul\":3548:3568   */\n      tag_132\n        /* \"#utility.yul\":3566:3567   */\n      dup3\n        /* \"#utility.yul\":3548:3568   */\n      tag_78\n      jump\t// in\n    tag_132:\n        /* \"#utility.yul\":3543:3568   */\n      swap2\n      pop\n        /* \"#utility.yul\":3582:3602   */\n      tag_133\n        /* \"#utility.yul\":3600:3601   */\n      dup4\n        /* \"#utility.yul\":3582:3602   */\n      tag_78\n      jump\t// in\n    tag_133:\n        /* \"#utility.yul\":3577:3602   */\n      swap3\n      pop\n        /* \"#utility.yul\":3625:3626   */\n      dup3\n        /* \"#utility.yul\":3622:3623   */\n      dup3\n        /* \"#utility.yul\":3618:3627   */\n      add\n        /* \"#utility.yul\":3611:3627   */\n      swap1\n      pop\n        /* \"#utility.yul\":3646:3649   */\n      dup1\n        /* \"#utility.yul\":3643:3644   */\n      dup3\n        /* \"#utility.yul\":3640:3650   */\n      gt\n        /* \"#utility.yul\":3637:3673   */\n      iszero\n      tag_134\n      jumpi\n        /* \"#utility.yul\":3653:3671   */\n      tag_135\n      tag_86\n      jump\t// in\n    tag_135:\n        /* \"#utility.yul\":3637:3673   */\n    tag_134:\n        /* \"#utility.yul\":3489:3680   */\n      swap3\n      swap2\n      pop\n      pop\n      jump\t// out\n        /* \"#utility.yul\":3686:3866   */\n    tag_27:\n        /* \"#utility.yul\":3734:3811   */\n      0x4e487b7100000000000000000000000000000000000000000000000000000000\n        /* \"#utility.yul\":3731:3732   */\n      0x00\n        /* \"#utility.yul\":3724:3812   */\n      mstore\n        /* \"#utility.yul\":3831:3835   */\n      0x41\n        /* \"#utility.yul\":3828:3829   */\n      0x04\n        /* \"#utility.yul\":3821:3836   */\n      mstore\n        /* \"#utility.yul\":3855:3859   */\n      0x24\n        /* \"#utility.yul\":3852:3853   */\n      0x00\n        /* \"#utility.yul\":3845:3860   */\n      revert\n        /* \"#utility.yul\":3872:4052   */\n    tag_31:\n        /* \"#utility.yul\":3920:3997   */\n      0x4e487b7100000000000000000000000000000000000000000000000000000000\n        /* \"#utility.yul\":3917:3918   */\n      0x00\n        /* \"#utility.yul\":3910:3998   */\n      mstore\n        /* \"#utility.yul\":4017:4021   */\n      0x32\n        /* \"#utility.yul\":4014:4015   */\n      0x04\n        /* \"#utility.yul\":4007:4022   */\n      mstore\n        /* \"#utility.yul\":4041:4045   */\n      0x24\n        /* \"#utility.yul\":4038:4039   */\n      0x00\n        /* \"#utility.yul\":4031:4046   */\n      revert\n        /* \"#utility.yul\":4058:4229   */\n    tag_44:\n        /* \"#utility.yul\":4097:4100   */\n      0x00\n        /* \"#utility.yul\":4120:4144   */\n      tag_139\n        /* \"#utility.yul\":4138:4143   */\n      dup3\n        /* \"#utility.yul\":4120:4144   */\n      tag_78\n      jump\t// in\n    tag_139:\n        /* \"#utility.yul\":4111:4144   */\n      swap2\n      pop\n        /* \"#utility.yul\":4166:4170   */\n      0x00\n        /* \"#utility.yul\":4159:4164   */\n      dup3\n        /* \"#utility.yul\":4156:4171   */\n      sub\n        /* \"#utility.yul\":4153:4194   */\n      tag_140\n      jumpi\n        /* \"#utility.yul\":4174:4192   */\n      tag_141\n      tag_86\n      jump\t// in\n    tag_141:\n        /* \"#utility.yul\":4153:4194   */\n    tag_140:\n        /* \"#utility.yul\":4221:4222   */\n      0x01\n        /* \"#utility.yul\":4214:4219   */\n      dup3\n        /* \"#utility.yul\":4210:4223   */\n      sub\n        /* \"#utility.yul\":4203:4223   */\n      swap1\n      pop\n        /* \"#utility.yul\":4058:4229   */\n      swap2\n      swap1\n      pop\n      jump\t// out\n        /* \"#utility.yul\":4235:4404   */\n    tag_87:\n        /* \"#utility.yul\":4319:4330   */\n      0x00\n        /* \"#utility.yul\":4353:4359   */\n      dup3\n        /* \"#utility.yul\":4348:4351   */\n      dup3\n        /* \"#utility.yul\":4341:4360   */\n      mstore\n        /* \"#utility.yul\":4393:4397   */\n      0x20\n        /* \"#utility.yul\":4388:4391   */\n      dup3\n        /* \"#utility.yul\":4384:4398   */\n      add\n        /* \"#utility.yul\":4369:4398   */\n      swap1\n      pop\n        /* \"#utility.yul\":4235:4404   */\n      swap3\n      swap2\n      pop\n      pop\n      jump\t// out\n        /* \"#utility.yul\":4410:4592   */\n    tag_88:\n        /* \"#utility.yul\":4550:4584   */\n      0x537472696e67733a20686578206c656e67746820696e73756666696369656e74\n        /* \"#utility.yul\":4546:4547   */\n      0x00\n        /* \"#utility.yul\":4538:4544   */\n      dup3\n        /* \"#utility.yul\":4534:4548   */\n      add\n        /* \"#utility.yul\":4527:4585   */\n      mstore\n        /* \"#utility.yul\":4410:4592   */\n      pop\n      jump\t// out\n        /* \"#utility.yul\":4598:4964   */\n    tag_89:\n        /* \"#utility.yul\":4740:4743   */\n      0x00\n        /* \"#utility.yul\":4761:4828   */\n      tag_145\n        /* \"#utility.yul\":4825:4827   */\n      0x20\n        /* \"#utility.yul\":4820:4823   */\n      dup4\n        /* \"#utility.yul\":4761:4828   */\n      tag_87\n      jump\t// in\n    tag_145:\n        /* \"#utility.yul\":4754:4828   */\n      swap2\n      pop\n        /* \"#utility.yul\":4837:4930   */\n      tag_146\n        /* \"#utility.yul\":4926:4929   */\n      dup3\n        /* \"#utility.yul\":4837:4930   */\n      tag_88\n      jump\t// in\n    tag_146:\n        /* \"#utility.yul\":4955:4957   */\n      0x20\n        /* \"#utility.yul\":4950:4953   */\n      dup3\n        /* \"#utility.yul\":4946:4958   */\n      add\n        /* \"#utility.yul\":4939:4958   */\n      swap1\n      pop\n        /* \"#utility.yul\":4598:4964   */\n      swap2\n      swap1\n      pop\n      jump\t// out\n        /* \"#utility.yul\":4970:5389   */\n    tag_47:\n        /* \"#utility.yul\":5136:5140   */\n      0x00\n        /* \"#utility.yul\":5174:5176   */\n      0x20\n        /* \"#utility.yul\":5163:5172   */\n      dup3\n        /* \"#utility.yul\":5159:5177   */\n      add\n        /* \"#utility.yul\":5151:5177   */\n      swap1\n      pop\n        /* \"#utility.yul\":5223:5232   */\n      dup2\n        /* \"#utility.yul\":5217:5221   */\n      dup2\n        /* \"#utility.yul\":5213:5233   */\n      sub\n        /* \"#utility.yul\":5209:5210   */\n      0x00\n        /* \"#utility.yul\":5198:5207   */\n      dup4\n        /* \"#utility.yul\":5194:5211   */\n      add\n        /* \"#utility.yul\":5187:5234   */\n      mstore\n        /* \"#utility.yul\":5251:5382   */\n      tag_148\n        /* \"#utility.yul\":5377:5381   */\n      dup2\n        /* \"#utility.yul\":5251:5382   */\n      tag_89\n      jump\t// in\n    tag_148:\n        /* \"#utility.yul\":5243:5382   */\n      swap1\n      pop\n        /* \"#utility.yul\":4970:5389   */\n      swap2\n      swap1\n      pop\n      jump\t// out\n        /* \"#utility.yul\":5395:5628   */\n    tag_53:\n        /* \"#utility.yul\":5434:5437   */\n      0x00\n        /* \"#utility.yul\":5457:5481   */\n      tag_150\n        /* \"#utility.yul\":5475:5480   */\n      dup3\n        /* \"#utility.yul\":5457:5481   */\n      tag_78\n      jump\t// in\n    tag_150:\n        /* \"#utility.yul\":5448:5481   */\n      swap2\n      pop\n        /* \"#utility.yul\":5503:5569   */\n      0xffffffffffffffffffffffffffffffffffffffffffffffffffffffffffffffff\n        /* \"#utility.yul\":5496:5501   */\n      dup3\n        /* \"#utility.yul\":5493:5570   */\n      sub\n        /* \"#utility.yul\":5490:5593   */\n      tag_151\n      jumpi\n        /* \"#utility.yul\":5573:5591   */\n      tag_152\n      tag_86\n      jump\t// in\n    tag_152:\n        /* \"#utility.yul\":5490:5593   */\n    tag_151:\n        /* \"#utility.yul\":5620:5621   */\n      0x01\n        /* \"#utility.yul\":5613:5618   */\n      dup3\n        /* \"#utility.yul\":5609:5622   */\n      add\n        /* \"#utility.yul\":5602:5622   */\n      swap1\n      pop\n        /* \"#utility.yul\":5395:5628   */\n      swap2\n      swap1\n      pop\n      jump\t// out\n        /* \"#utility.yul\":5634:5814   */\n    tag_90:\n        /* \"#utility.yul\":5682:5759   */\n      0x4e487b7100000000000000000000000000000000000000000000000000000000\n        /* \"#utility.yul\":5679:5680   */\n      0x00\n        /* \"#utility.yul\":5672:5760   */\n      mstore\n        /* \"#utility.yul\":5779:5783   */\n      0x12\n        /* \"#utility.yul\":5776:5777   */\n      0x04\n        /* \"#utility.yul\":5769:5784   */\n      mstore\n        /* \"#utility.yul\":5803:5807   */\n      0x24\n        /* \"#utility.yul\":5800:5801   */\n      0x00\n        /* \"#utility.yul\":5793:5808   */\n      revert\n        /* \"#utility.yul\":5820:6005   */\n    tag_55:\n        /* \"#utility.yul\":5860:5861   */\n      0x00\n        /* \"#utility.yul\":5877:5897   */\n      tag_155\n        /* \"#utility.yul\":5895:5896   */\n      dup3\n        /* \"#utility.yul\":5877:5897   */\n      tag_78\n      jump\t// in\n    tag_155:\n        /* \"#utility.yul\":5872:5897   */\n      swap2\n      pop\n        /* \"#utility.yul\":5911:5931   */\n      tag_156\n        /* \"#utility.yul\":5929:5930   */\n      dup4\n        /* \"#utility.yul\":5911:5931   */\n      tag_78\n      jump\t// in\n    tag_156:\n        /* \"#utility.yul\":5906:5931   */\n      swap3\n      pop\n        /* \"#utility.yul\":5950:5951   */\n      dup3\n        /* \"#utility.yul\":5940:5975   */\n      tag_157\n      jumpi\n        /* \"#utility.yul\":5955:5973   */\n      tag_158\n      tag_90\n      jump\t// in\n    tag_158:\n        /* \"#utility.yul\":5940:5975   */\n    tag_157:\n        /* \"#utility.yul\":5997:5998   */\n      dup3\n        /* \"#utility.yul\":5994:5995   */\n      dup3\n        /* \"#utility.yul\":5990:5999   */\n      div\n        /* \"#utility.yul\":5985:5999   */\n      swap1\n      pop\n        /* \"#utility.yul\":5820:6005   */\n      swap3\n      swap2\n      pop\n      pop\n      jump\t// out\n        /* \"#utility.yul\":6011:6205   */\n    tag_62:\n        /* \"#utility.yul\":6051:6055   */\n      0x00\n        /* \"#utility.yul\":6071:6091   */\n      tag_160\n        /* \"#utility.yul\":6089:6090   */\n      dup3\n        /* \"#utility.yul\":6071:6091   */\n      tag_78\n      jump\t// in\n    tag_160:\n        /* \"#utility.yul\":6066:6091   */\n      swap2\n      pop\n        /* \"#utility.yul\":6105:6125   */\n      tag_161\n        /* \"#utility.yul\":6123:6124   */\n      dup4\n        /* \"#utility.yul\":6105:6125   */\n      tag_78\n      jump\t// in\n    tag_161:\n        /* \"#utility.yul\":6100:6125   */\n      swap3\n      pop\n        /* \"#utility.yul\":6149:6150   */\n      dup3\n        /* \"#utility.yul\":6146:6147   */\n      dup3\n        /* \"#utility.yul\":6142:6151   */\n      sub\n        /* \"#utility.yul\":6134:6151   */\n      swap1\n      pop\n        /* \"#utility.yul\":6173:6174   */\n      dup2\n        /* \"#utility.yul\":6167:6171   */\n      dup2\n        /* \"#utility.yul\":6164:6175   */\n      gt\n        /* \"#utility.yul\":6161:6198   */\n      iszero\n      tag_162\n      jumpi\n        /* \"#utility.yul\":6178:6196   */\n      tag_163\n      tag_86\n      jump\t// in\n    tag_163:\n        /* \"#utility.yul\":6161:6198   */\n    tag_162:\n        /* \"#utility.yul\":6011:6205   */\n      swap3\n      swap2\n      pop\n      pop\n      jump\t// out\n        /* \"#utility.yul\":6211:6387   */\n    tag_64:\n        /* \"#utility.yul\":6243:6244   */\n      0x00\n        /* \"#utility.yul\":6260:6280   */\n      tag_165\n        /* \"#utility.yul\":6278:6279   */\n      dup3\n        /* \"#utility.yul\":6260:6280   */\n      tag_78\n      jump\t// in\n    tag_165:\n        /* \"#utility.yul\":6255:6280   */\n      swap2\n      pop\n        /* \"#utility.yul\":6294:6314   */\n      tag_166\n        /* \"#utility.yul\":6312:6313   */\n      dup4\n        /* \"#utility.yul\":6294:6314   */\n      tag_78\n      jump\t// in\n    tag_166:\n        /* \"#utility.yul\":6289:6314   */\n      swap3\n      pop\n        /* \"#utility.yul\":6333:6334   */\n      dup3\n        /* \"#utility.yul\":6323:6358   */\n      tag_167\n      jumpi\n        /* \"#utility.yul\":6338:6356   */\n      tag_168\n      tag_90\n      jump\t// in\n    tag_168:\n        /* \"#utility.yul\":6323:6358   */\n    tag_167:\n        /* \"#utility.yul\":6379:6380   */\n      dup3\n        /* \"#utility.yul\":6376:6377   */\n      dup3\n        /* \"#utility.yul\":6372:6381   */\n      mod\n        /* \"#utility.yul\":6367:6381   */\n      swap1\n      pop\n        /* \"#utility.yul\":6211:6387   */\n      swap3\n      swap2\n      pop\n      pop\n      jump\t// out\n\n    auxdata: 0xa264697066735822122094a85e43e394d17fe6fa10916964516c4df0046932ba0a4b31d4c0aa82e49b5664736f6c63430008120033\n}\n",
				"bytecode": {
					"linkReferences": {},
					"object": "610947610053600b82828239805160001a607314610046577f4e487b7100000000000000000000000000000000000000000000000000000000600052600060045260246000fd5b30600052607381538281f3fe730000000000000000000000000000000000000000301460806040526004361061004b5760003560e01c806363e1cbea146100505780636900a3ae146100805780638fba8d5c146100b0575b600080fd5b61006a6004803603810190610065919061053c565b6100e0565b604051610077919061060c565b60405180910390f35b61009a6004803603810190610095919061062e565b61031c565b6040516100a7919061060c565b60405180910390f35b6100ca60048036038101906100c5919061062e565b61047c565b6040516100d7919061060c565b60405180910390f35b6060600060028360026100f3919061068a565b6100fd91906106cc565b67ffffffffffffffff81111561011657610115610700565b5b6040519080825280601f01601f1916602001820160405280156101485781602001600182028036833780820191505090505b5090507f3000000000000000000000000000000000000000000000000000000000000000816000815181106101805761017f61072f565b5b60200101907effffffffffffffffffffffffffffffffffffffffffffffffffffffffffffff1916908160001a9053507f7800000000000000000000000000000000000000000000000000000000000000816001815181106101e4576101e361072f565b5b60200101907effffffffffffffffffffffffffffffffffffffffffffffffffffffffffffff1916908160001a90535060006001846002610224919061068a565b61022e91906106cc565b90505b60018111156102ce577f3031323334353637383961626364656600000000000000000000000000000000600f8616601081106102705761026f61072f565b5b1a60f81b8282815181106102875761028661072f565b5b60200101907effffffffffffffffffffffffffffffffffffffffffffffffffffffffffffff1916908160001a905350600485901c9450806102c79061075e565b9050610231565b5060008414610312576040517f08c379a0000000000000000000000000000000000000000000000000000000008152600401610309906107e4565b60405180910390fd5b8091505092915050565b606060008203610363576040518060400160405280600181526020017f30000000000000000000000000000000000000000000000000000000000000008152509050610477565b600082905060005b6000821461039557808061037e90610804565b915050600a8261038e919061087b565b915061036b565b60008167ffffffffffffffff8111156103b1576103b0610700565b5b6040519080825280601f01601f1916602001820160405280156103e35781602001600182028036833780820191505090505b5090505b60008514610470576001826103fc91906108ac565b9150600a8561040b91906108e0565b603061041791906106cc565b60f81b81838151811061042d5761042c61072f565b5b60200101907effffffffffffffffffffffffffffffffffffffffffffffffffffffffffffff1916908160001a905350600a85610469919061087b565b94506103e7565b8093505050505b919050565b6060600082036104c3576040518060400160405280600481526020017f307830300000000000000000000000000000000000000000000000000000000081525090506104fc565b600082905060005b600082146104ed5780806104de90610804565b915050600882901c91506104cb565b6104f784826100e0565b925050505b919050565b600080fd5b6000819050919050565b61051981610506565b811461052457600080fd5b50565b60008135905061053681610510565b92915050565b6000806040838503121561055357610552610501565b5b600061056185828601610527565b925050602061057285828601610527565b9150509250929050565b600081519050919050565b600082825260208201905092915050565b60005b838110156105b657808201518184015260208101905061059b565b60008484015250505050565b6000601f19601f8301169050919050565b60006105de8261057c565b6105e88185610587565b93506105f8818560208601610598565b610601816105c2565b840191505092915050565b6000602082019050818103600083015261062681846105d3565b905092915050565b60006020828403121561064457610643610501565b5b600061065284828501610527565b91505092915050565b7f4e487b7100000000000000000000000000000000000000000000000000000000600052601160045260246000fd5b600061069582610506565b91506106a083610506565b92508282026106ae81610506565b915082820484148315176106c5576106c461065b565b5b5092915050565b60006106d782610506565b91506106e283610506565b92508282019050808211156106fa576106f961065b565b5b92915050565b7f4e487b7100000000000000000000000000000000000000000000000000000000600052604160045260246000fd5b7f4e487b7100000000000000000000000000000000000000000000000000000000600052603260045260246000fd5b600061076982610506565b91506000820361077c5761077b61065b565b5b600182039050919050565b600082825260208201905092915050565b7f537472696e67733a20686578206c656e67746820696e73756666696369656e74600082015250565b60006107ce602083610787565b91506107d982610798565b602082019050919050565b600060208201905081810360008301526107fd816107c1565b9050919050565b600061080f82610506565b91507fffffffffffffffffffffffffffffffffffffffffffffffffffffffffffffffff82036108415761084061065b565b5b600182019050919050565b7f4e487b7100000000000000000000000000000000000000000000000000000000600052601260045260246000fd5b600061088682610506565b915061089183610506565b9250826108a1576108a061084c565b5b828204905092915050565b60006108b782610506565b91506108c283610506565b92508282039050818111156108da576108d961065b565b5b92915050565b60006108eb82610506565b91506108f683610506565b9250826109065761090561084c565b5b82820690509291505056fea264697066735822122094a85e43e394d17fe6fa10916964516c4df0046932ba0a4b31d4c0aa82e49b5664736f6c63430008120033",
					"opcodes": "PUSH2 0x947 PUSH2 0x53 PUSH1 0xB DUP3 DUP3 DUP3 CODECOPY DUP1 MLOAD PUSH1 0x0 BYTE PUSH1 0x73 EQ PUSH2 0x46 JUMPI PUSH32 0x4E487B7100000000000000000000000000000000000000000000000000000000 PUSH1 0x0 MSTORE PUSH1 0x0 PUSH1 0x4 MSTORE PUSH1 0x24 PUSH1 0x0 REVERT JUMPDEST ADDRESS PUSH1 0x0 MSTORE PUSH1 0x73 DUP2 MSTORE8 DUP3 DUP2 RETURN INVALID PUSH20 0x0 ADDRESS EQ PUSH1 0x80 PUSH1 0x40 MSTORE PUSH1 0x4 CALLDATASIZE LT PUSH2 0x4B JUMPI PUSH1 0x0 CALLDATALOAD PUSH1 0xE0 SHR DUP1 PUSH4 0x63E1CBEA EQ PUSH2 0x50 JUMPI DUP1 PUSH4 0x6900A3AE EQ PUSH2 0x80 JUMPI DUP1 PUSH4 0x8FBA8D5C EQ PUSH2 0xB0 JUMPI JUMPDEST PUSH1 0x0 DUP1 REVERT JUMPDEST PUSH2 0x6A PUSH1 0x4 DUP1 CALLDATASIZE SUB DUP2 ADD SWAP1 PUSH2 0x65 SWAP2 SWAP1 PUSH2 0x53C JUMP JUMPDEST PUSH2 0xE0 JUMP JUMPDEST PUSH1 0x40 MLOAD PUSH2 0x77 SWAP2 SWAP1 PUSH2 0x60C JUMP JUMPDEST PUSH1 0x40 MLOAD DUP1 SWAP2 SUB SWAP1 RETURN JUMPDEST PUSH2 0x9A PUSH1 0x4 DUP1 CALLDATASIZE SUB DUP2 ADD SWAP1 PUSH2 0x95 SWAP2 SWAP1 PUSH2 0x62E JUMP JUMPDEST PUSH2 0x31C JUMP JUMPDEST PUSH1 0x40 MLOAD PUSH2 0xA7 SWAP2 SWAP1 PUSH2 0x60C JUMP JUMPDEST PUSH1 0x40 MLOAD DUP1 SWAP2 SUB SWAP1 RETURN JUMPDEST PUSH2 0xCA PUSH1 0x4 DUP1 CALLDATASIZE SUB DUP2 ADD SWAP1 PUSH2 0xC5 SWAP2 SWAP1 PUSH2 0x62E JUMP JUMPDEST PUSH2 0x47C JUMP JUMPDEST PUSH1 0x40 MLOAD PUSH2 0xD7 SWAP2 SWAP1 PUSH2 0x60C JUMP JUMPDEST PUSH1 0x40 MLOAD DUP1 SWAP2 SUB SWAP1 RETURN JUMPDEST PUSH1 0x60 PUSH1 0x0 PUSH1 0x2 DUP4 PUSH1 0x2 PUSH2 0xF3 SWAP2 SWAP1 PUSH2 0x68A JUMP JUMPDEST PUSH2 0xFD SWAP2 SWAP1 PUSH2 0x6CC JUMP JUMPDEST PUSH8 0xFFFFFFFFFFFFFFFF DUP2 GT ISZERO PUSH2 0x116 JUMPI PUSH2 0x115 PUSH2 0x700 JUMP JUMPDEST JUMPDEST PUSH1 0x40 MLOAD SWAP1 DUP1 DUP3 MSTORE DUP1 PUSH1 0x1F ADD PUSH1 0x1F NOT AND PUSH1 0x20 ADD DUP3 ADD PUSH1 0x40 MSTORE DUP1 ISZERO PUSH2 0x148 JUMPI DUP2 PUSH1 0x20 ADD PUSH1 0x1 DUP3 MUL DUP1 CALLDATASIZE DUP4 CALLDATACOPY DUP1 DUP3 ADD SWAP2 POP POP SWAP1 POP JUMPDEST POP SWAP1 POP PUSH32 0x3000000000000000000000000000000000000000000000000000000000000000 DUP2 PUSH1 0x0 DUP2 MLOAD DUP2 LT PUSH2 0x180 JUMPI PUSH2 0x17F PUSH2 0x72F JUMP JUMPDEST JUMPDEST PUSH1 0x20 ADD ADD SWAP1 PUSH31 0xFFFFFFFFFFFFFFFFFFFFFFFFFFFFFFFFFFFFFFFFFFFFFFFFFFFFFFFFFFFFFF NOT AND SWAP1 DUP2 PUSH1 0x0 BYTE SWAP1 MSTORE8 POP PUSH32 0x7800000000000000000000000000000000000000000000000000000000000000 DUP2 PUSH1 0x1 DUP2 MLOAD DUP2 LT PUSH2 0x1E4 JUMPI PUSH2 0x1E3 PUSH2 0x72F JUMP JUMPDEST JUMPDEST PUSH1 0x20 ADD ADD SWAP1 PUSH31 0xFFFFFFFFFFFFFFFFFFFFFFFFFFFFFFFFFFFFFFFFFFFFFFFFFFFFFFFFFFFFFF NOT AND SWAP1 DUP2 PUSH1 0x0 BYTE SWAP1 MSTORE8 POP PUSH1 0x0 PUSH1 0x1 DUP5 PUSH1 0x2 PUSH2 0x224 SWAP2 SWAP1 PUSH2 0x68A JUMP JUMPDEST PUSH2 0x22E SWAP2 SWAP1 PUSH2 0x6CC JUMP JUMPDEST SWAP1 POP JUMPDEST PUSH1 0x1 DUP2 GT ISZERO PUSH2 0x2CE JUMPI PUSH32 0x3031323334353637383961626364656600000000000000000000000000000000 PUSH1 0xF DUP7 AND PUSH1 0x10 DUP2 LT PUSH2 0x270 JUMPI PUSH2 0x26F PUSH2 0x72F JUMP JUMPDEST JUMPDEST BYTE PUSH1 0xF8 SHL DUP3 DUP3 DUP2 MLOAD DUP2 LT PUSH2 0x287 JUMPI PUSH2 0x286 PUSH2 0x72F JUMP JUMPDEST JUMPDEST PUSH1 0x20 ADD ADD SWAP1 PUSH31 0xFFFFFFFFFFFFFFFFFFFFFFFFFFFFFFFFFFFFFFFFFFFFFFFFFFFFFFFFFFFFFF NOT AND SWAP1 DUP2 PUSH1 0x0 BYTE SWAP1 MSTORE8 POP PUSH1 0x4 DUP6 SWAP1 SHR SWAP5 POP DUP1 PUSH2 0x2C7 SWAP1 PUSH2 0x75E JUMP JUMPDEST SWAP1 POP PUSH2 0x231 JUMP JUMPDEST POP PUSH1 0x0 DUP5 EQ PUSH2 0x312 JUMPI PUSH1 0x40 MLOAD PUSH32 0x8C379A000000000000000000000000000000000000000000000000000000000 DUP2 MSTORE PUSH1 0x4 ADD PUSH2 0x309 SWAP1 PUSH2 0x7E4 JUMP JUMPDEST PUSH1 0x40 MLOAD DUP1 SWAP2 SUB SWAP1 REVERT JUMPDEST DUP1 SWAP2 POP POP SWAP3 SWAP2 POP POP JUMP JUMPDEST PUSH1 0x60 PUSH1 0x0 DUP3 SUB PUSH2 0x363 JUMPI PUSH1 0x40 MLOAD DUP1 PUSH1 0x40 ADD PUSH1 0x40 MSTORE DUP1 PUSH1 0x1 DUP2 MSTORE PUSH1 0x20 ADD PUSH32 0x3000000000000000000000000000000000000000000000000000000000000000 DUP2 MSTORE POP SWAP1 POP PUSH2 0x477 JUMP JUMPDEST PUSH1 0x0 DUP3 SWAP1 POP PUSH1 0x0 JUMPDEST PUSH1 0x0 DUP3 EQ PUSH2 0x395 JUMPI DUP1 DUP1 PUSH2 0x37E SWAP1 PUSH2 0x804 JUMP JUMPDEST SWAP2 POP POP PUSH1 0xA DUP3 PUSH2 0x38E SWAP2 SWAP1 PUSH2 0x87B JUMP JUMPDEST SWAP2 POP PUSH2 0x36B JUMP JUMPDEST PUSH1 0x0 DUP2 PUSH8 0xFFFFFFFFFFFFFFFF DUP2 GT ISZERO PUSH2 0x3B1 JUMPI PUSH2 0x3B0 PUSH2 0x700 JUMP JUMPDEST JUMPDEST PUSH1 0x40 MLOAD SWAP1 DUP1 DUP3 MSTORE DUP1 PUSH1 0x1F ADD PUSH1 0x1F NOT AND PUSH1 0x20 ADD DUP3 ADD PUSH1 0x40 MSTORE DUP1 ISZERO PUSH2 0x3E3 JUMPI DUP2 PUSH1 0x20 ADD PUSH1 0x1 DUP3 MUL DUP1 CALLDATASIZE DUP4 CALLDATACOPY DUP1 DUP3 ADD SWAP2 POP POP SWAP1 POP JUMPDEST POP SWAP1 POP JUMPDEST PUSH1 0x0 DUP6 EQ PUSH2 0x470 JUMPI PUSH1 0x1 DUP3 PUSH2 0x3FC SWAP2 SWAP1 PUSH2 0x8AC JUMP JUMPDEST SWAP2 POP PUSH1 0xA DUP6 PUSH2 0x40B SWAP2 SWAP1 PUSH2 0x8E0 JUMP JUMPDEST PUSH1 0x30 PUSH2 0x417 SWAP2 SWAP1 PUSH2 0x6CC JUMP JUMPDEST PUSH1 0xF8 SHL DUP2 DUP4 DUP2 MLOAD DUP2 LT PUSH2 0x42D JUMPI PUSH2 0x42C PUSH2 0x72F JUMP JUMPDEST JUMPDEST PUSH1 0x20 ADD ADD SWAP1 PUSH31 0xFFFFFFFFFFFFFFFFFFFFFFFFFFFFFFFFFFFFFFFFFFFFFFFFFFFFFFFFFFFFFF NOT AND SWAP1 DUP2 PUSH1 0x0 BYTE SWAP1 MSTORE8 POP PUSH1 0xA DUP6 PUSH2 0x469 SWAP2 SWAP1 PUSH2 0x87B JUMP JUMPDEST SWAP5 POP PUSH2 0x3E7 JUMP JUMPDEST DUP1 SWAP4 POP POP POP POP JUMPDEST SWAP2 SWAP1 POP JUMP JUMPDEST PUSH1 0x60 PUSH1 0x0 DUP3 SUB PUSH2 0x4C3 JUMPI PUSH1 0x40 MLOAD DUP1 PUSH1 0x40 ADD PUSH1 0x40 MSTORE DUP1 PUSH1 0x4 DUP2 MSTORE PUSH1 0x20 ADD PUSH32 0x3078303000000000000000000000000000000000000000000000000000000000 DUP2 MSTORE POP SWAP1 POP PUSH2 0x4FC JUMP JUMPDEST PUSH1 0x0 DUP3 SWAP1 POP PUSH1 0x0 JUMPDEST PUSH1 0x0 DUP3 EQ PUSH2 0x4ED JUMPI DUP1 DUP1 PUSH2 0x4DE SWAP1 PUSH2 0x804 JUMP JUMPDEST SWAP2 POP POP PUSH1 0x8 DUP3 SWAP1 SHR SWAP2 POP PUSH2 0x4CB JUMP JUMPDEST PUSH2 0x4F7 DUP5 DUP3 PUSH2 0xE0 JUMP JUMPDEST SWAP3 POP POP POP JUMPDEST SWAP2 SWAP1 POP JUMP JUMPDEST PUSH1 0x0 DUP1 REVERT JUMPDEST PUSH1 0x0 DUP2 SWAP1 POP SWAP2 SWAP1 POP JUMP JUMPDEST PUSH2 0x519 DUP2 PUSH2 0x506 JUMP JUMPDEST DUP2 EQ PUSH2 0x524 JUMPI PUSH1 0x0 DUP1 REVERT JUMPDEST POP JUMP JUMPDEST PUSH1 0x0 DUP2 CALLDATALOAD SWAP1 POP PUSH2 0x536 DUP2 PUSH2 0x510 JUMP JUMPDEST SWAP3 SWAP2 POP POP JUMP JUMPDEST PUSH1 0x0 DUP1 PUSH1 0x40 DUP4 DUP6 SUB SLT ISZERO PUSH2 0x553 JUMPI PUSH2 0x552 PUSH2 0x501 JUMP JUMPDEST JUMPDEST PUSH1 0x0 PUSH2 0x561 DUP6 DUP3 DUP7 ADD PUSH2 0x527 JUMP JUMPDEST SWAP3 POP POP PUSH1 0x20 PUSH2 0x572 DUP6 DUP3 DUP7 ADD PUSH2 0x527 JUMP JUMPDEST SWAP2 POP POP SWAP3 POP SWAP3 SWAP1 POP JUMP JUMPDEST PUSH1 0x0 DUP2 MLOAD SWAP1 POP SWAP2 SWAP1 POP JUMP JUMPDEST PUSH1 0x0 DUP3 DUP3 MSTORE PUSH1 0x20 DUP3 ADD SWAP1 POP SWAP3 SWAP2 POP POP JUMP JUMPDEST PUSH1 0x0 JUMPDEST DUP4 DUP2 LT ISZERO PUSH2 0x5B6 JUMPI DUP1 DUP3 ADD MLOAD DUP2 DUP5 ADD MSTORE PUSH1 0x20 DUP2 ADD SWAP1 POP PUSH2 0x59B JUMP JUMPDEST PUSH1 0x0 DUP5 DUP5 ADD MSTORE POP POP POP POP JUMP JUMPDEST PUSH1 0x0 PUSH1 0x1F NOT PUSH1 0x1F DUP4 ADD AND SWAP1 POP SWAP2 SWAP1 POP JUMP JUMPDEST PUSH1 0x0 PUSH2 0x5DE DUP3 PUSH2 0x57C JUMP JUMPDEST PUSH2 0x5E8 DUP2 DUP6 PUSH2 0x587 JUMP JUMPDEST SWAP4 POP PUSH2 0x5F8 DUP2 DUP6 PUSH1 0x20 DUP7 ADD PUSH2 0x598 JUMP JUMPDEST PUSH2 0x601 DUP2 PUSH2 0x5C2 JUMP JUMPDEST DUP5 ADD SWAP2 POP POP SWAP3 SWAP2 POP POP JUMP JUMPDEST PUSH1 0x0 PUSH1 0x20 DUP3 ADD SWAP1 POP DUP2 DUP2 SUB PUSH1 0x0 DUP4 ADD MSTORE PUSH2 0x626 DUP2 DUP5 PUSH2 0x5D3 JUMP JUMPDEST SWAP1 POP SWAP3 SWAP2 POP POP JUMP JUMPDEST PUSH1 0x0 PUSH1 0x20 DUP3 DUP5 SUB SLT ISZERO PUSH2 0x644 JUMPI PUSH2 0x643 PUSH2 0x501 JUMP JUMPDEST JUMPDEST PUSH1 0x0 PUSH2 0x652 DUP5 DUP3 DUP6 ADD PUSH2 0x527 JUMP JUMPDEST SWAP2 POP POP SWAP3 SWAP2 POP POP JUMP JUMPDEST PUSH32 0x4E487B7100000000000000000000000000000000000000000000000000000000 PUSH1 0x0 MSTORE PUSH1 0x11 PUSH1 0x4 MSTORE PUSH1 0x24 PUSH1 0x0 REVERT JUMPDEST PUSH1 0x0 PUSH2 0x695 DUP3 PUSH2 0x506 JUMP JUMPDEST SWAP2 POP PUSH2 0x6A0 DUP4 PUSH2 0x506 JUMP JUMPDEST SWAP3 POP DUP3 DUP3 MUL PUSH2 0x6AE DUP2 PUSH2 0x506 JUMP JUMPDEST SWAP2 POP DUP3 DUP3 DIV DUP5 EQ DUP4 ISZERO OR PUSH2 0x6C5 JUMPI PUSH2 0x6C4 PUSH2 0x65B JUMP JUMPDEST JUMPDEST POP SWAP3 SWAP2 POP POP JUMP JUMPDEST PUSH1 0x0 PUSH2 0x6D7 DUP3 PUSH2 0x506 JUMP JUMPDEST SWAP2 POP PUSH2 0x6E2 DUP4 PUSH2 0x506 JUMP JUMPDEST SWAP3 POP DUP3 DUP3 ADD SWAP1 POP DUP1 DUP3 GT ISZERO PUSH2 0x6FA JUMPI PUSH2 0x6F9 PUSH2 0x65B JUMP JUMPDEST JUMPDEST SWAP3 SWAP2 POP POP JUMP JUMPDEST PUSH32 0x4E487B7100000000000000000000000000000000000000000000000000000000 PUSH1 0x0 MSTORE PUSH1 0x41 PUSH1 0x4 MSTORE PUSH1 0x24 PUSH1 0x0 REVERT JUMPDEST PUSH32 0x4E487B7100000000000000000000000000000000000000000000000000000000 PUSH1 0x0 MSTORE PUSH1 0x32 PUSH1 0x4 MSTORE PUSH1 0x24 PUSH1 0x0 REVERT JUMPDEST PUSH1 0x0 PUSH2 0x769 DUP3 PUSH2 0x506 JUMP JUMPDEST SWAP2 POP PUSH1 0x0 DUP3 SUB PUSH2 0x77C JUMPI PUSH2 0x77B PUSH2 0x65B JUMP JUMPDEST JUMPDEST PUSH1 0x1 DUP3 SUB SWAP1 POP SWAP2 SWAP1 POP JUMP JUMPDEST PUSH1 0x0 DUP3 DUP3 MSTORE PUSH1 0x20 DUP3 ADD SWAP1 POP SWAP3 SWAP2 POP POP JUMP JUMPDEST PUSH32 0x537472696E67733A20686578206C656E67746820696E73756666696369656E74 PUSH1 0x0 DUP3 ADD MSTORE POP JUMP JUMPDEST PUSH1 0x0 PUSH2 0x7CE PUSH1 0x20 DUP4 PUSH2 0x787 JUMP JUMPDEST SWAP2 POP PUSH2 0x7D9 DUP3 PUSH2 0x798 JUMP JUMPDEST PUSH1 0x20 DUP3 ADD SWAP1 POP SWAP2 SWAP1 POP JUMP JUMPDEST PUSH1 0x0 PUSH1 0x20 DUP3 ADD SWAP1 POP DUP2 DUP2 SUB PUSH1 0x0 DUP4 ADD MSTORE PUSH2 0x7FD DUP2 PUSH2 0x7C1 JUMP JUMPDEST SWAP1 POP SWAP2 SWAP1 POP JUMP JUMPDEST PUSH1 0x0 PUSH2 0x80F DUP3 PUSH2 0x506 JUMP JUMPDEST SWAP2 POP PUSH32 0xFFFFFFFFFFFFFFFFFFFFFFFFFFFFFFFFFFFFFFFFFFFFFFFFFFFFFFFFFFFFFFFF DUP3 SUB PUSH2 0x841 JUMPI PUSH2 0x840 PUSH2 0x65B JUMP JUMPDEST JUMPDEST PUSH1 0x1 DUP3 ADD SWAP1 POP SWAP2 SWAP1 POP JUMP JUMPDEST PUSH32 0x4E487B7100000000000000000000000000000000000000000000000000000000 PUSH1 0x0 MSTORE PUSH1 0x12 PUSH1 0x4 MSTORE PUSH1 0x24 PUSH1 0x0 REVERT JUMPDEST PUSH1 0x0 PUSH2 0x886 DUP3 PUSH2 0x506 JUMP JUMPDEST SWAP2 POP PUSH2 0x891 DUP4 PUSH2 0x506 JUMP JUMPDEST SWAP3 POP DUP3 PUSH2 0x8A1 JUMPI PUSH2 0x8A0 PUSH2 0x84C JUMP JUMPDEST JUMPDEST DUP3 DUP3 DIV SWAP1 POP SWAP3 SWAP2 POP POP JUMP JUMPDEST PUSH1 0x0 PUSH2 0x8B7 DUP3 PUSH2 0x506 JUMP JUMPDEST SWAP2 POP PUSH2 0x8C2 DUP4 PUSH2 0x506 JUMP JUMPDEST SWAP3 POP DUP3 DUP3 SUB SWAP1 POP DUP2 DUP2 GT ISZERO PUSH2 0x8DA JUMPI PUSH2 0x8D9 PUSH2 0x65B JUMP JUMPDEST JUMPDEST SWAP3 SWAP2 POP POP JUMP JUMPDEST PUSH1 0x0 PUSH2 0x8EB DUP3 PUSH2 0x506 JUMP JUMPDEST SWAP2 POP PUSH2 0x8F6 DUP4 PUSH2 0x506 JUMP JUMPDEST SWAP3 POP DUP3 PUSH2 0x906 JUMPI PUSH2 0x905 PUSH2 0x84C JUMP JUMPDEST JUMPDEST DUP3 DUP3 MOD SWAP1 POP SWAP3 SWAP2 POP POP JUMP INVALID LOG2 PUSH5 0x6970667358 0x22 SLT KECCAK256 SWAP5 0xA8 0x5E NUMBER 0xE3 SWAP5 0xD1 PUSH32 0xE6FA10916964516C4DF0046932BA0A4B31D4C0AA82E49B5664736F6C63430008 SLT STOP CALLER "
				},
				"gasEstimates": {
					"creation": {
						"codeDepositCost": "475000",
						"executionCost": "536",
						"totalCost": "475536"
					},
					"external": {
						"toHexString(uint256)": "infinite",
						"toHexString(uint256,uint256)": "infinite",
						"toString(uint256)": "infinite"
					}
				},
				"methodIdentifiers": {
					"toHexString(uint256)": "8fba8d5c",
					"toHexString(uint256,uint256)": "63e1cbea",
					"toString(uint256)": "6900a3ae"
				}
			},
			"storageLayout": {
				"storage": [],
				"types": null
			},
			"userdoc": {
				"kind": "user",
				"methods": {},
				"version": 1
			}
		}
	}
}