{
	"data": {
		"bytecode": {
			"linkReferences": {},
			"object": "608060405234801561001057600080fd5b5061018a806100206000396000f3fe608060405234801561001057600080fd5b50600436106100415760003560e01c80635a4236b114610046578063699450e814610050578063dd49702c1461006f575b600080fd5b61004e610079565b005b6100586100af565b60405161006692919061012b565b60405180910390f35b6100776100c1565b005b603260008001819055507f636861726d696e67000000000000000000000000000000000000000000000000600060010181905550565b60008060000154908060010154905082565b6000602581600001819055507f746f6d6d79000000000000000000000000000000000000000000000000000000816001018190555050565b6000819050919050565b61010c816100f9565b82525050565b6000819050919050565b61012581610112565b82525050565b60006040820190506101406000830185610103565b61014d602083018461011c565b939250505056fea2646970667358221220b999008da9a184958d629fcb00e541d7ba3bb575b55451939a3e12c5de582ab364736f6c63430008120033",
			"opcodes": "PUSH1 0x80 PUSH1 0x40 MSTORE CALLVALUE DUP1 ISZERO PUSH2 0x10 JUMPI PUSH1 0x0 DUP1 REVERT JUMPDEST POP PUSH2 0x18A DUP1 PUSH2 0x20 PUSH1 0x0 CODECOPY PUSH1 0x0 RETURN INVALID PUSH1 0x80 PUSH1 0x40 MSTORE CALLVALUE DUP1 ISZERO PUSH2 0x10 JUMPI PUSH1 0x0 DUP1 REVERT JUMPDEST POP PUSH1 0x4 CALLDATASIZE LT PUSH2 0x41 JUMPI PUSH1 0x0 CALLDATALOAD PUSH1 0xE0 SHR DUP1 PUSH4 0x5A4236B1 EQ PUSH2 0x46 JUMPI DUP1 PUSH4 0x699450E8 EQ PUSH2 0x50 JUMPI DUP1 PUSH4 0xDD49702C EQ PUSH2 0x6F JUMPI JUMPDEST PUSH1 0x0 DUP1 REVERT JUMPDEST PUSH2 0x4E PUSH2 0x79 JUMP JUMPDEST STOP JUMPDEST PUSH2 0x58 PUSH2 0xAF JUMP JUMPDEST PUSH1 0x40 MLOAD PUSH2 0x66 SWAP3 SWAP2 SWAP1 PUSH2 0x12B JUMP JUMPDEST PUSH1 0x40 MLOAD DUP1 SWAP2 SUB SWAP1 RETURN JUMPDEST PUSH2 0x77 PUSH2 0xC1 JUMP JUMPDEST STOP JUMPDEST PUSH1 0x32 PUSH1 0x0 DUP1 ADD DUP2 SWAP1 SSTORE POP PUSH32 0x636861726D696E67000000000000000000000000000000000000000000000000 PUSH1 0x0 PUSH1 0x1 ADD DUP2 SWAP1 SSTORE POP JUMP JUMPDEST PUSH1 0x0 DUP1 PUSH1 0x0 ADD SLOAD SWAP1 DUP1 PUSH1 0x1 ADD SLOAD SWAP1 POP DUP3 JUMP JUMPDEST PUSH1 0x0 PUSH1 0x25 DUP2 PUSH1 0x0 ADD DUP2 SWAP1 SSTORE POP PUSH32 0x746F6D6D79000000000000000000000000000000000000000000000000000000 DUP2 PUSH1 0x1 ADD DUP2 SWAP1 SSTORE POP POP JUMP JUMPDEST PUSH1 0x0 DUP2 SWAP1 POP SWAP2 SWAP1 POP JUMP JUMPDEST PUSH2 0x10C DUP2 PUSH2 0xF9 JUMP JUMPDEST DUP3 MSTORE POP POP JUMP JUMPDEST PUSH1 0x0 DUP2 SWAP1 POP SWAP2 SWAP1 POP JUMP JUMPDEST PUSH2 0x125 DUP2 PUSH2 0x112 JUMP JUMPDEST DUP3 MSTORE POP POP JUMP JUMPDEST PUSH1 0x0 PUSH1 0x40 DUP3 ADD SWAP1 POP PUSH2 0x140 PUSH1 0x0 DUP4 ADD DUP6 PUSH2 0x103 JUMP JUMPDEST PUSH2 0x14D PUSH1 0x20 DUP4 ADD DUP5 PUSH2 0x11C JUMP JUMPDEST SWAP4 SWAP3 POP POP POP JUMP INVALID LOG2 PUSH5 0x6970667358 0x22 SLT KECCAK256 0xB9 SWAP10 STOP DUP14 0xA9 LOG1 DUP5 SWAP6 DUP14 PUSH3 0x9FCB00 0xE5 COINBASE 0xD7 0xBA EXTCODESIZE 0xB5 PUSH22 0xB55451939A3E12C5DE582AB364736F6C634300081200 CALLER "
		},
		"gasEstimates": {
			"creation": {
				"codeDepositCost": "78800",
				"executionCost": "129",
				"totalCost": "78929"
			},
			"external": {
				"initStudent()": "44411",
				"initStudent3()": "44362",
				"student()": "4655"
			}
		},
		"methodIdentifiers": {
			"initStudent()": "dd49702c",
			"initStudent3()": "5a4236b1",
			"student()": "699450e8"
		}
	},
	"abi": [
		{
			"inputs": [],
			"name": "initStudent",
			"outputs": [],
			"stateMutability": "nonpayable",
			"type": "function"
		},
		{
			"inputs": [],
			"name": "initStudent3",
			"outputs": [],
			"stateMutability": "nonpayable",
			"type": "function"
		},
		{
			"inputs": [],
			"name": "student",
			"outputs": [
				{
					"internalType": "uint256",
					"name": "id",
					"type": "uint256"
				},
				{
					"internalType": "bytes32",
					"name": "name",
					"type": "bytes32"
				}
			],
			"stateMutability": "view",
			"type": "function"
		}
	]
}