{
	"data": {
		"bytecode": {
			"linkReferences": {},
			"object": "60806040526101f460005534801561001657600080fd5b506101eb806100266000396000f3fe608060405234801561001057600080fd5b50600436106100575760003560e01c80631f2b9cd41461005c5780633450bd6a1461006657806358143798146100845780636d2866b7146100a25780638381f58a146100c0575b600080fd5b6100646100de565b005b61006e6100ee565b60405161007b9190610137565b60405180910390f35b61008c6100f7565b6040516100999190610137565b60405180910390f35b6100aa610112565b6040516100b79190610137565b60405180910390f35b6100c8610118565b6040516100d59190610137565b60405180910390f35b6100e66100ee565b600181905550565b600060c8905090565b60008060c86000546101099190610181565b90508091505090565b60015481565b60005481565b6000819050919050565b6101318161011e565b82525050565b600060208201905061014c6000830184610128565b92915050565b7f4e487b7100000000000000000000000000000000000000000000000000000000600052601160045260246000fd5b600061018c8261011e565b91506101978361011e565b92508282019050808211156101af576101ae610152565b5b9291505056fea26469706673582212206e244af4b3efbd8ee025748eb8a9c7e80a70fef9b1107595d5af0b907dc7992f64736f6c63430008120033",
			"opcodes": "PUSH1 0x80 PUSH1 0x40 MSTORE PUSH2 0x1F4 PUSH1 0x0 SSTORE CALLVALUE DUP1 ISZERO PUSH2 0x16 JUMPI PUSH1 0x0 DUP1 REVERT JUMPDEST POP PUSH2 0x1EB DUP1 PUSH2 0x26 PUSH1 0x0 CODECOPY PUSH1 0x0 RETURN INVALID PUSH1 0x80 PUSH1 0x40 MSTORE CALLVALUE DUP1 ISZERO PUSH2 0x10 JUMPI PUSH1 0x0 DUP1 REVERT JUMPDEST POP PUSH1 0x4 CALLDATASIZE LT PUSH2 0x57 JUMPI PUSH1 0x0 CALLDATALOAD PUSH1 0xE0 SHR DUP1 PUSH4 0x1F2B9CD4 EQ PUSH2 0x5C JUMPI DUP1 PUSH4 0x3450BD6A EQ PUSH2 0x66 JUMPI DUP1 PUSH4 0x58143798 EQ PUSH2 0x84 JUMPI DUP1 PUSH4 0x6D2866B7 EQ PUSH2 0xA2 JUMPI DUP1 PUSH4 0x8381F58A EQ PUSH2 0xC0 JUMPI JUMPDEST PUSH1 0x0 DUP1 REVERT JUMPDEST PUSH2 0x64 PUSH2 0xDE JUMP JUMPDEST STOP JUMPDEST PUSH2 0x6E PUSH2 0xEE JUMP JUMPDEST PUSH1 0x40 MLOAD PUSH2 0x7B SWAP2 SWAP1 PUSH2 0x137 JUMP JUMPDEST PUSH1 0x40 MLOAD DUP1 SWAP2 SUB SWAP1 RETURN JUMPDEST PUSH2 0x8C PUSH2 0xF7 JUMP JUMPDEST PUSH1 0x40 MLOAD PUSH2 0x99 SWAP2 SWAP1 PUSH2 0x137 JUMP JUMPDEST PUSH1 0x40 MLOAD DUP1 SWAP2 SUB SWAP1 RETURN JUMPDEST PUSH2 0xAA PUSH2 0x112 JUMP JUMPDEST PUSH1 0x40 MLOAD PUSH2 0xB7 SWAP2 SWAP1 PUSH2 0x137 JUMP JUMPDEST PUSH1 0x40 MLOAD DUP1 SWAP2 SUB SWAP1 RETURN JUMPDEST PUSH2 0xC8 PUSH2 0x118 JUMP JUMPDEST PUSH1 0x40 MLOAD PUSH2 0xD5 SWAP2 SWAP1 PUSH2 0x137 JUMP JUMPDEST PUSH1 0x40 MLOAD DUP1 SWAP2 SUB SWAP1 RETURN JUMPDEST PUSH2 0xE6 PUSH2 0xEE JUMP JUMPDEST PUSH1 0x1 DUP2 SWAP1 SSTORE POP JUMP JUMPDEST PUSH1 0x0 PUSH1 0xC8 SWAP1 POP SWAP1 JUMP JUMPDEST PUSH1 0x0 DUP1 PUSH1 0xC8 PUSH1 0x0 SLOAD PUSH2 0x109 SWAP2 SWAP1 PUSH2 0x181 JUMP JUMPDEST SWAP1 POP DUP1 SWAP2 POP POP SWAP1 JUMP JUMPDEST PUSH1 0x1 SLOAD DUP2 JUMP JUMPDEST PUSH1 0x0 SLOAD DUP2 JUMP JUMPDEST PUSH1 0x0 DUP2 SWAP1 POP SWAP2 SWAP1 POP JUMP JUMPDEST PUSH2 0x131 DUP2 PUSH2 0x11E JUMP JUMPDEST DUP3 MSTORE POP POP JUMP JUMPDEST PUSH1 0x0 PUSH1 0x20 DUP3 ADD SWAP1 POP PUSH2 0x14C PUSH1 0x0 DUP4 ADD DUP5 PUSH2 0x128 JUMP JUMPDEST SWAP3 SWAP2 POP POP JUMP JUMPDEST PUSH32 0x4E487B7100000000000000000000000000000000000000000000000000000000 PUSH1 0x0 MSTORE PUSH1 0x11 PUSH1 0x4 MSTORE PUSH1 0x24 PUSH1 0x0 REVERT JUMPDEST PUSH1 0x0 PUSH2 0x18C DUP3 PUSH2 0x11E JUMP JUMPDEST SWAP2 POP PUSH2 0x197 DUP4 PUSH2 0x11E JUMP JUMPDEST SWAP3 POP DUP3 DUP3 ADD SWAP1 POP DUP1 DUP3 GT ISZERO PUSH2 0x1AF JUMPI PUSH2 0x1AE PUSH2 0x152 JUMP JUMPDEST JUMPDEST SWAP3 SWAP2 POP POP JUMP INVALID LOG2 PUSH5 0x6970667358 0x22 SLT KECCAK256 PUSH15 0x244AF4B3EFBD8EE025748EB8A9C7E8 EXP PUSH17 0xFEF9B1107595D5AF0B907DC7992F64736F PUSH13 0x63430008120033000000000000 "
		},
		"gasEstimates": {
			"creation": {
				"codeDepositCost": "98200",
				"executionCost": "22253",
				"totalCost": "120453"
			},
			"external": {
				"destructuringReturn()": "22271",
				"number()": "2495",
				"numberFinal()": "2473",
				"returnNumber()": "337",
				"returnNumber2()": "infinite"
			}
		},
		"methodIdentifiers": {
			"destructuringReturn()": "1f2b9cd4",
			"number()": "8381f58a",
			"numberFinal()": "6d2866b7",
			"returnNumber()": "3450bd6a",
			"returnNumber2()": "58143798"
		}
	},
	"abi": [
		{
			"inputs": [],
			"name": "destructuringReturn",
			"outputs": [],
			"stateMutability": "nonpayable",
			"type": "function"
		},
		{
			"inputs": [],
			"name": "number",
			"outputs": [
				{
					"internalType": "uint256",
					"name": "",
					"type": "uint256"
				}
			],
			"stateMutability": "view",
			"type": "function"
		},
		{
			"inputs": [],
			"name": "numberFinal",
			"outputs": [
				{
					"internalType": "uint256",
					"name": "",
					"type": "uint256"
				}
			],
			"stateMutability": "view",
			"type": "function"
		},
		{
			"inputs": [],
			"name": "returnNumber",
			"outputs": [
				{
					"internalType": "uint256",
					"name": "number2",
					"type": "uint256"
				}
			],
			"stateMutability": "pure",
			"type": "function"
		},
		{
			"inputs": [],
			"name": "returnNumber2",
			"outputs": [
				{
					"internalType": "uint256",
					"name": "",
					"type": "uint256"
				}
			],
			"stateMutability": "view",
			"type": "function"
		}
	]
}